:020000040800F2
:10000000B0080020F51E0008CD1E0008CF1E000815
:10001000D11E0008D31E0008D51E000800000000F5
:10002000000000000000000000000000D71E0008D3
:10003000D91E000800000000DB1E0008DD1E0008BD
:100040001D1F0008211F0008251F0008291F000888
:100050002D1F0008311F0008351F0008391F000838
:100060003D1F0008411F0008451F0008491F0008E8
:100070004D1F0008511F0008551F0008591F000898
:100080005D1F0008611F0008651F0008691F000848
:100090006D1F0008711F0008751F0008791F0008F8
:1000A0007D1F0008811F0008851F0008891F0008A8
:1000B0008D1F0008911F0008951F0008991F000858
:1000C0009D1F0008A11F0008A51F0008A91F000808
:1000D000AD1F0008B11F0008B51F0008B91F0008B8
:1000E000BD1F0008C11F0008C51F0008C91F000868
:1000F000CD1F0008D11F0008D51F0008D91F000818
:10010000DD1F0008E11F0008E51F0008E91F0008C7
:10011000ED1F0008F11F0008F51F0008F91F000877
:10012000FD1F000801200008052000080920000824
:100130000D200008112000081520000819200008D3
:100140001D20000821200008252000082920000883
:100150002D20000831200008352000083920000833
:100160003D200008412000084520000849200008E3
:100170004D20000851200008552000085920000893
:100180005D20000861200008652000086920000843
:100190006D200008712000087520000879200008F3
:1001A0007D200008812000088520000889200008A3
:1001B0008D20000891200008952000089920000853
:1001C0009D200008A12000087CB50400012600F055
:1001D000FBFB0500002C01D101205AE0206A4028D9
:1001E00094F84000012801D1022052E0012084F857
:1001F000400094F8410000280AD1002084F8400013
:10020000200000F0E0FB41F28831200000F0B4FA59
:100210002068006830F4F850A168491E50EA0120B7
:1002200021680860A06C00902B0000222021200093
:1002300000F0A4FA0100C9B2002926D121680A6899
:1002400014490A40616852EA0162E1680A43E169BF
:100250000A43216A0A4321680A6021684A680E49F4
:100260000A40216952EA014261690A43A1690A43CD
:1002700021684A602168096851F001012268116013
:1002800000216164012184F84110002184F84010AC
:10029000C0B276BD2FFFFF00FEF8E0FF10B50400EE
:1002A000002C01D101201AE094F84000012801D16E
:1002B000022014E0012084F8400020680068400813
:1002C000400021680860200000F084FB002060648A
:1002D000002084F84100002084F84000002010BD78
:1002E0002DE9F84304000D0016005FF0010800F04E
:1002F0006BFB0700A8690028E8690028286A002825
:1003000094F84000012801D102203DE0012084F84A
:10031000400094F8410001282FD1002060640220A1
:1003200084F8410000963B0000222021200000F0CC
:1003300025FA81464846C0B2002820D10022290073
:10034000200000F044FA686A002812D100963B00B1
:1003500001220221200000F011FA81464846C0B275
:1003600000280CD102202168C860012084F84100D7
:1003700005E0012084F8410001E05FF0020900205F
:1003800084F840004846C0B2BDE8F2832DE9F84346
:1003900005000C001600002700F016FB80462868B8
:1003A00010F1200995F84000012801D102205EE0FB
:1003B000012085F8400095F84100012850D1002027
:1003C0006864002C45D0122085F841002868006937
:1003D000401CE86228680069401CA8626C622868BA
:1003E000406930F0406029684861E86A002815D00B
:1003F0000096434601220421280000F0BFF90700BF
:100400003800C0B2002809D1686A411C69620078CE
:1004100089F80000E86A401EE862E6E73800C0B2EA
:10042000002812D10096434601220221280000F044
:10043000A5F907003800C0B2002806D102202968BB
:10044000C860280000F04CF90700012085F8410041
:1004500008E0686C50F0080068640120070001E0C3
:1004600002200700002085F840003800C0B2BDE837
:10047000F2832DE9FC4705000C001600002700F070
:10048000A3FA80462868D0F81890286810F1200A4E
:1004900095F84000012801D1022063E0012085F891
:1004A000400095F84100012855D100206864002CD7
:1004B0004AD0222085F8410028680069401CA863C2
:1004C00028680069401C68632C632868406930F024
:1004D000406050F08060296848612868C0F8189032
:1004E000A86B002815D0009643460122062128005B
:1004F00000F044F907003800C0B2002809D1286B89
:10050000411C29639AF800100170A86B401EA86373
:10051000E6E73800C0B2002812D100964346012217
:100520000221280000F02AF907003800C0B2002894
:1005300006D102202968C860280000F0D1F8070021
:10054000012085F8410008E0686C50F008006864FC
:100550000120070001E002200700002085F840008C
:100560003800C0B2BDE8F6872DE9FC4704000D0055
:1005700016001F005FF0010800F026FA8146A86906
:100580000028E8690028286A002894F8400001281B
:1005900001D102204CE0012084F8400094F8410091
:1005A00001283ED100206064422084F84100009779
:1005B0004B4600222021200000F0E0F88246504601
:1005C000C0B200282FD13068216888627068216825
:1005D0004862B0682168C8622068016831F440014F
:1005E0003069014351F4800120680160F068A8621D
:1005F0005FF000622900200000F0E9F800974B4608
:1006000001220821200000F0B9F882465046C0B20D
:10061000002808D108202168C860012084F8410022
:1006200001E05FF0020A002084F840005046C0B2AA
:10063000BDE8F6872DE9F84304000D0016005FF0D1
:10064000010800F0C1F90700A8690028E86900283E
:10065000286A002894F84000012801D102203DE0DA
:10066000012084F8400094F8410001282FD1002097
:100670006064822084F84100A06C00903B0000225E
:100680002021200000F07AF881464846C0B20028B8
:100690001FD12068016831F00801706801432068AB
:1006A0000160706808280BD1306821680863102049
:1006B0002168C8602068006850F4801021680860D4
:1006C0005FF040622900200000F081F801E05FF057
:1006D0000209002084F840004846C0B2BDE8F28319
:1006E0007CB50400002500F06FF9060094F8410085
:1006F00080073ED5002084F840002068006840074D
:1007000011D52068006830F0040021680860E06BB3
:1007100000F07EF905002800C0B2002803D0606C0C
:1007200050F0040060642068006850F00200216806
:100730000860A06C0090330001220221200000F02C
:100740001DF805002800C0B200280BD10220216846
:10075000C860A06C0090330000222021200000F02F
:100760000DF805002800C0B2002802D1012084F84D
:1007700041002800C0B276BD816470472DE9F04188
:1007800005000E0090461F00069C286880683042D5
:1007900001D0012000E000204146C0B2C9B2884229
:1007A00012D014F1010FF0D0002C04D000F00CF99D
:1007B000C01B8442E9D2042085F84100686C50F0E7
:1007C00001006864012000E00020BDE8F08110B461
:1007D0004B6A002B06D0B2F1406F03D08B6A5B1ED0
:1007E000046823618B69002B79D00B6A002B3ED003
:1007F0008B680468E361CB69002B20D0CC6A0B6B5B
:100800001C434B6B1C434B6A1C434B6954EA8344A7
:100810000B691C430B6A1C43CB681C43CB691C430C
:100820008B691C430B681C43144303685C61B2F181
:10083000406F00F0C6804B680468A361C1E0CC6AD9
:100840000B6B1C434B6B1C434B6A1C434B6954EAB8
:1008500083440B691C430B6A1C43CB691C438B69A3
:100860001C430B681C43144303685C61A9E0CB691B
:10087000002B1ED0CC6A0B6B1C434B6B1C434B6A8A
:100880001C434B6954EA83440B6A1C43CB681C43EA
:10089000CB691C438B691C430B681C4314430368DE
:1008A0005C61B2F1406F00F08C804B680468A3611A
:1008B00087E0CC6A0B6B1C434B6B1C434B6A1C439D
:1008C0004B6954EA83440B6A1C43CB691C438B6914
:1008D0001C430B681C43144303685C6171E00B6AA2
:1008E000002B39D08B680468E361CB69002B1DD0E5
:1008F000CC6A0B6B1C434B6B1C434B6A1C434B6910
:1009000054EA83440B691C430B6A1C43CB681C43A9
:10091000CB691C438B691C43144303685C61B2F1CF
:10092000406F4ED04B680468A3614AE0CC6A0B6B01
:100930001C434B6B1C434B6A1C434B6954EA834476
:100940000B691C430B6A1C43CB691C438B691C431A
:10095000144303685C6134E0CB69002B1BD0CC6A84
:100960000B6B1C434B6B1C434B6A1C434B6954EA97
:1009700083440B6A1C43CB681C43CB691C438B69C3
:100980001C43144303685C61B2F1406F19D04B689B
:100990000468A36115E04B6A002B12D0CC6A0B6B84
:1009A0001C434B6B1C434B6A1C434B6954EA834406
:1009B0000B6A1C43CB691C438B691C4314430368BB
:1009C0005C6110BC7047704701480068704700BF09
:1009D000AC000020704730B4002513E050F8042B21
:1009E000D30744BFA9F101039A18091F042942F84B
:1009F000045BFAD213468C0744BF15809B1CC907C1
:100A000048BF1D7050F8041B0029E7D130BC704767
:100A100070B50400A56DFFF7D7FF060094F8350008
:100A2000022806D080206065002084F83400012070
:100A30003BE02068006830F01600216808602068FC
:100A4000406930F0800021684861206C002802D1A4
:100A5000A06C002805D02068006830F008002168EC
:100A6000086020680068400840002168086020682D
:100A70000068C0070ED5FFF7A7FF801B0628F6D336
:100A800020206065002084F83400032084F83500BD
:100A900003200AE03F21E06D8140A960002084F836
:100AA0003400012084F83500002070BD2DE9FC41A0
:100AB00004000026002C01D10120D8E12078C007D5
:100AC0006DD5DFF89405016811F00C01042909D0F7
:100AD000006810F00C0008280ED1DFF880050068CF
:100AE000400209D5DFF86C050068800357D56068BF
:100AF000002854D10120BAE16068B0F5803F06D1EA
:100B0000DFF85005016851F48031016026E060682B
:100B100000280AD1DFF83C05016831F4803101601A
:100B2000016831F48021016018E06068B0F5A02F01
:100B30000AD1DFF82005016851F4802101600168C5
:100B400051F48031016009E0DFF80805016831F4F3
:100B500080310160016831F4802101606068002803
:100B60000ED0FFF731FF0500DFF8E80400688003CE
:100B700015D4FFF729FF401B6528F5D3032076E144
:100B8000FFF722FF0500DFF8CC040068800306D5DC
:100B9000FFF71AFF401B6528F5D3032067E1207893
:100BA000800752D5DFF8B004016811F00C0F09D0AE
:100BB000006810F00C00082816D1DFF8A0040068C7
:100BC000400211D4DFF88C040168890704D5E1687C
:100BD000012901D001204AE1016831F0F8012269C0
:100BE00051EAC201016030E0E06800281AD0DFF865
:100BF0006474386850F001003860FFF7E5FE0500C6
:100C00003868800706D4FFF7DFFE401B0328F7D3C0
:100C100003202CE1386830F0F800216950EAC10067
:100C2000386012E0DFF82C74386840084000386003
:100C3000FFF7CAFE05003868800706D5FFF7C4FE37
:100C4000401B0328F7D3032011E12078000728D5A3
:100C50006069002812D0DFF80874386850F001008D
:100C60003860FFF7B1FE05003868800719D4FFF738
:100C7000ABFE401B0328F7D30320F8E0DFF8E07356
:100C80003868400840003860FFF79EFE050038686D
:100C9000800706D5FFF798FE401B0328F7D30320F3
:100CA000E5E02078400740F18780DFF8C0733868BE
:100CB000C0000AD4386850F080503860386810F0AE
:100CC00080500090009801200600DFF8A483D8F837
:100CD0000000C00513D4D8F8000050F48070C8F8A4
:100CE0000000FFF771FE0500D8F80000C00506D42B
:100CF000FFF76AFE401B6528F6D30320B7E0A06823
:100D0000012806D1DFF86C03016851F00101016090
:100D100025E0A06800280AD1DFF8580301684908D7
:100D200049000160016831F00401016017E0A0682A
:100D300005280AD1DFF83C03016851F00401016085
:100D4000016851F00101016009E0DFF82803016842
:100D5000490849000160016831F004010160A068A0
:100D6000002810D0FFF730FE0500DFF80803006808
:100D7000800719D4FFF728FE401B41F289318842D1
:100D8000F3D3032073E0FFF71FFE0500DFF8E40252
:100D90000068800708D5FFF717FE401B41F2893134
:100DA0008842F3D3032062E03000C0B2012803D1AF
:100DB000386830F080503860A069002856D0DFF8DD
:100DC0009802006810F00C0008284DD0A069022895
:100DD00037D1DFF88072386830F080703860FFF704
:100DE000F3FD80463868800107D5FFF7EDFDB0EBD5
:100DF00008000328F6D3032039E0E169206A0143A3
:100E0000606A51EA8011A06A4008401E51EA004120
:100E1000E06A51EA006151F00051DFF840020160E0
:100E2000386850F080703860FFF7CEFD05003868F4
:100E300080011BD4FFF7C8FD401B0328F7D3032014
:100E400015E0DFF81072386830F080703860FFF716
:100E5000BBFD05003868800108D5FFF7B5FD401BD4
:100E60000328F7D3032002E0012000E00020BDE8C2
:100E7000F6812DE9F04104000D000026002C01D17F
:100E800001209FE0DFF8F071386810F00F00A842F1
:100E90000BD238680009000128433860386810F028
:100EA0000F00A84201D001208CE02078800719D5DE
:100EB0002078400705D5DFF8A001016851F4E05122
:100EC00001602078000705D5DFF88C01016851F436
:100ED00060410160DFF880110A6832F0F002A0681A
:100EE00002430A602078C00737D56068012806D120
:100EF000DFF860010068800311D4012062E06068BF
:100F0000022806D1DFF84C010068800107D40120D7
:100F100058E050480068800701D4012052E0DFF813
:100F20003881D8F800108908890060680143C8F842
:100F30000010FFF749FD0600D8F8000010F00C0083
:100F40006168B0EB810F08D0FFF73EFD801B41F2D6
:100F500089318842F0D3032034E0386810F00F0064
:100F600085420BD238680009000128433860386890
:100F700010F00F00A84201D0012023E020784007A4
:100F800006D535490A6832F4E052E06802430A6047
:100F90002078000707D53048016831F460412269A4
:100FA00051EAC201016000F00FF834492A4A126880
:100FB000C2F30312895CC8402B4908600F2000F07F
:100FC00061F80020BDE8F0812DE9F0410024002502
:100FD000002600272048006810F00C00002804D0EC
:100FE000042804D0082804D031E01E4830E024480A
:100FF0002EE0DFF86880D8F8000010F03F00040011
:10100000D8F8000040020CD5D8F80000C0F38810D2
:101010001B49A1FB00012200002300F059F8050044
:101020000BE0D8F80000C0F388100E49A1FB0001C6
:101030002200002300F04CF80500D8F80000C0F3AF
:101040000140401C40000600B5FBF6F000E00548FA
:10105000BDE8F08100380240083802400438024000
:10106000743802400024F40004000020403802409C
:101070000070004070380240003C0240E41E00084E
:1010800040787D0110B504004FF47A700D4909785D
:10109000B0FBF1F00C490968B1FBF0F000F0B0F9D9
:1010A000002801D001200CE0102C09D200222100E0
:1010B0005FF0FF3000F08FF904480460002000E08A
:1010C000012010BD080000200400002000000020C6
:1010D000BBBBE1B1B2F5803F80F07E80022A1ED911
:1010E0008C46B1FBF2F102FB11C31B0443EA10432F
:1010F000B3FBF2FC02FB1C3380B240EA0343B3FBB8
:10110000F2F002FB103240EA0C4000237047022A42
:1011100005D98446B0FBF2F002FB10C270474AB119
:1011200005D100F0010249085FEA30007047002253
:101130000023704700F078B90B0002000021002066
:101140007047904271EB030CF6D3B3F5803F2FD27A
:10115000F0B5B3FA83F7B1FA81F4A7F10F0E3D1B96
:101160005340CEF1200602FA0EF2F3415340B5F19E
:101170000F0746D80F3C2C444140C4F12006A04044
:10118000F1414140B1FBF3F603FB1611A2FB06450A
:10119000001BA94102D2761E8018594180EA010243
:1011A00021FA0EF362FA0EF200215A403046F0BDE9
:1011B00030B4B1FBF3FC03FB1C11A2FB0C45001B7C
:1011C000A94103D2ACF1010C8018594130BC024650
:1011D0000B46604600217047B2F1807F65D3F0B5C1
:1011E000B2FA82F7B1FA81F4C7F10F063D1B22FA79
:1011F00006F307F1110EF24120355A40B5F10F0701
:10120000B8D94140C4F12006A040F1414140B1FBB2
:10121000F3FC03FB1C11A2FB0C45001BA94103D2EC
:10122000BCF1010C801859410F2F12D30F3FC90395
:1012300041EA5041B1FBF3F603FB1611A2FB064550
:10124000D4EBC030A94102D2761E8018594146EA3B
:10125000CC3C07B34140C7F12006B840F1414140C2
:10126000B1FBF3F603FB1611A2FB0645001BA941D7
:1012700002D2761E8018594180EA010221FA0EF34B
:10128000C7F1200462FA0EF20CFA07F05A402CFA69
:1012900004F13043F0BD80EA010221FA0EF300218F
:1012A00062FA0EF260465A40F0BD8C46B1FBF2F194
:1012B00002FB11C31B0243EA1063B3FBF2FC02FB07
:1012C0001C331B024CEA002043EA1063B3FBF2FC20
:1012D00002FB1C331B024CEA002043EA1063B3FB01
:1012E000F2FC02FB1C331B024CEA002043EA1063B1
:1012F000B3FBF2FC02FB1C324CEA002000237047D7
:1013000010B410F00703DFF8044122684FF6FF0124
:101310000A40DFF8FC1051EA03210A43226010BCA6
:101320007047DFF8E8000068C0F30220704710B48F
:10133000020052B2002A05D40A01364B040064B2FE
:101340001A5508E00A01344B040064B214F00F048B
:10135000234403F8042C10BC704770B4030013F04E
:101360000704D4F10700052801D3042001E0D4F1DB
:101370000700251D072D01D2002500E0E51E0126EE
:1013800016FA00F0401E0140A94016FA05F56D1E40
:101390002A401143080070BC704710B50400601E5D
:1013A000B0F1807F01D301200EE0601E1B49086070
:1013B0000F215FF0FF30FFF7BAFF002018490860E7
:1013C000072018490860002010BD10B50400200057
:1013D000FFF796FF10BD2DE9F04104000D00160047
:1013E0000027FFF79EFF8046320029004046FFF7A6
:1013F000B4FF0100200040B2FFF799FFBDE8F08183
:1014000010B504002000FFF7C8FF10BD0CED00E090
:101410000000FA0500E400E018ED00E014E000E050
:1014200018E000E010E000E07047000010B5CC4C80
:10143000CC4820602000FEF731FF002801D00120B9
:1014400055E000F095F9C8480021C1610021016212
:1014500000214162002141610021C162002101633C
:10146000002141634FF40051C160C0480021016177
:101470000121C160102181605FF480014161012080
:1014800060600420A0601020E0608020B0FA80F04E
:10149000401E20614FF4A06060610020A061002028
:1014A000E061002020622000FEF78EFE002801D0BF
:1014B00001201CE0200000F01BF8002801D00120D2
:1014C00015E0200000F0ACF8002801D001200EE06B
:1014D000200000F04DF8002801D0012007E0200096
:1014E00000F028F8002801D0012000E0002010BD05
:1014F00070B504009C4D4FF48070A8616620286090
:101500000020686241F28836320029002000FEF790
:10151000E7FE002801D001200BE09920286032006E
:1015200029002000FEF7DCFE002801D0012000E0A9
:10153000002070BD1CB504008B494FF440708861D9
:10154000EB2008604FF44060C8615FF04070486273
:101550000A20486100200190002000906A46200087
:10156000FFF768F8002801D0012000E0002016BD38
:1015700030B58FB004004FF4807007908520019043
:1015800000200890002009905FF080700A900020F1
:10159000069001200B9000200C9000200D90002060
:1015A0000E9041F288352A0001A92000FEF798FE2E
:1015B000002801D0012031E02A0069462000FEF712
:1015C00058FF002801D0012028E0200000F09EF8FC
:1015D000002801D0012021E0812001909DF8001019
:1015E00011F00F010A225FF07060B0FA80F08240C3
:1015F00011438DF800102A0001A92000FEF770FEAB
:10160000002801D0012009E02A0069462000FEF7E9
:10161000BDFE002801D0012000E000200FB030BD49
:10162000F0B595B004004FF4807007900020099049
:101630000020069000200C9000200D9000200E90BD
:1016400010201190002013905FF48000149065200A
:101650000190002008905FF080750A9501200B90A2
:101660003F4E41F288373A0001A93000FEF738FEBC
:10167000002801D0012047E03A0069463000FEF71B
:10168000F8FE002801D001203EE006200190002055
:101690000A903A0001A93000FEF722FE002801D08E
:1016A000012031E002200F900220109001201290C2
:1016B000052001900A953B000FAA01A93000FEF712
:1016C00053FF002801D001201EE06120019001207D
:1016D0000B909DF8000010F03F0050F040008DF896
:1016E00000003A0001A93000FEF7FAFD002801D001
:1016F000012009E03A0069463000FEF747FE002865
:1017000001D0012000E0002015B0F0BD70B504004C
:10171000154D4FF44070A8610620286000206862D3
:1017200041F28836320029002000FEF7D9FD00285A
:1017300001D0012013E00D4A022010600220506009
:10174000052028605FF040706862330029002000A7
:10175000FEF70AFF002801D0012000E0002070BD44
:101760000C000020001000A0580000209000002075
:1017700010B586B03648016851F00201016000687A
:1017800010F00200059005983248016851F00201FE
:101790000160016831F0020101602F48016851F0D9
:1017A00002010160016811F00201059105990168CB
:1017B00051F008010160016811F0080105910599D7
:1017C000016851F010010160006810F010000590F0
:1017D0000598402000900A200490022001900120EA
:1017E0000290022003901D4C6946200000F03CF856
:1017F00004200090092004900020029069462000F7
:1018000000F032F84FF40060009009200490144C6E
:101810006946200000F028F84FF48050009009201D
:1018200004906946200000F01FF804200090092071
:10183000049069460B4800F017F84FF400500090F0
:10184000092004906946200000F00EF806B010BD93
:101850003838024018380240303802400004024054
:10186000000C0240001002402DE9F8410022002344
:10187000002400260025102D80F00B81012717FA87
:1018800005F213000A681A4014009C4240F0FF80E1
:101890004A68022A02D04A68122A1FD12A00D208B6
:1018A00000EB8202D2F820C05FF00F0E15F00702A5
:1018B000D2B292001EFA02FE3CEA0E0CD1F810E001
:1018C00015F00702D2B292001EFA02FE5EEA0C0C7C
:1018D00066462A00D20800EB82021662D0F800C0E9
:1018E0005FF0030E2A00D2B252001EFA02F23CEA66
:1018F000020C91F8048018F003082A00D2B25200BA
:1019000018FA02F858EA0C0CC0F800C04A68012A1C
:1019100008D04A68022A05D04A68112A02D04A68CB
:10192000122A1BD186682A00D2B252001EFA02F295
:101930009643D1F80C802A00D2B2520018FA02F86D
:1019400058EA060686604268AF40BA434F68C7F35C
:101950000017AF403A439446C0F804C0C6682A0056
:10196000D2B252001EFA02FE36EA0E068F682A0034
:10197000D2B2520097403E43C6604A68D20040F15E
:101980008680DFF81421176857F4804717601268C3
:1019900012F480420092009ADFF800C12A009208F7
:1019A0005CF822705FF00F0E15F00302D2B29200C5
:1019B0001EFA02FE37EA0E07DFF8E420904201D15A
:1019C000002631E0DFF8DC20904201D101262BE037
:1019D000DFF8D420904201D1022625E0DFF8CC20A8
:1019E000904201D103261FE0DFF8C420904201D1CC
:1019F000042619E02F4A904201D1052614E02E4A10
:101A0000904201D106260FE02C4A904201D10726D0
:101A10000AE02B4A904201D1082605E0294A90426B
:101A200001D1092600E00A26F6B215F00302D2B26F
:101A30009200964037432A0092084CF82270224EBA
:101A40003268A243D1F804C05FEACC3C00D52243FF
:101A500032601E4F3E68A643D1F804C05FEA8C3C5A
:101A600000D526433E601A4F3A68A243D1F804C01D
:101A70005FEACC2C00D522433A60164F3E68A6435D
:101A8000D1F804C05FEA8C2C00D526433E606D1C63
:101A9000F1E6BDE8F1810000443802400838014019
:101AA000000002400004024000080240000C024016
:101AB000001002400014024000180240001C0240C6
:101AC0000020024000240240003C0140043C014050
:101AD000083C01400C3C0140BFF34F8FBFF36F8FB8
:101AE000002049490860BFF34F8FBFF36F8F47480D
:101AF000016851F400310160BFF34F8FBFF36F8F66
:101B00007047BFF34F8FBFF36F8F4048016831F4C8
:101B10000031016000203C490860BFF34F8FBFF3E4
:101B20006F8F704710B4002039490860BFF34F8FA2
:101B300038480168C1F34E32C1F3C900030043F6CF
:101B4000E07010EA421050EA8370334C20601800B5
:101B5000431E0028F3D11000421E0028ECD1BFF331
:101B60004F8F2A48046854F480340460BFF34F8FC9
:101B7000BFF36F8F10BC704710B400202449086079
:101B8000BFF34F8F2148016831F480310160BFF30A
:101B90004F8F20480168C1F34E32C1F3C9000300E2
:101BA00043F6E07010EA421050EA83701B4C20604C
:101BB0001800431E0028F3D11000421E0028ECD16B
:101BC000BFF34F8FBFF36F8F10BC704780B500F02D
:101BD00072F800F07DF800F030F800F027F80028E7
:101BE00001D000F029F800F06CF800200C490860E2
:101BF0000C480D49096801605FF01041096881F3E4
:101C0000088800688047FEE750EF00E014ED00E030
:101C100084ED00E080ED00E060EF00E074EF00E0B4
:101C200010E000E0A80000200400009010B500249F
:101C3000FFF7FCFB204310BDFEE730B591B0002458
:101C4000012005905FF48030069002200B905FF435
:101C500080000C9019200D904FF4D8700E90022047
:101C60000F900820109005A8FEF720FF050028001F
:101C7000C0B2002800D0FEE700F03EF804002000CB
:101C8000C0B2002800D0FEE70F2000900220019093
:101C9000002002904FF4A05003904FF48050049025
:101CA00006216846FFF7E5F80100C9B2002900D017
:101CB000FEE711B030BD80B5FFF70EFFFFF732FF32
:101CC00001BD80B5FFF71DFFFFF756FF01BD000006
:101CD00080B50748016851F4807101600320FFF767
:101CE00074FB0F20FFF7CEF900F004F8002002BDCE
:101CF000003C0240704700007CB500241B4801688E
:101D000051F080510160006810F080500090009800
:101D1000154E306850F480303060FEF755FE0500F7
:101D2000104C2068C00308D4FEF74EFE401B40F262
:101D3000E9318842F4D3032013E0306850F40030D6
:101D40003060FEF741FE06002068800308D4FEF7ED
:101D50003BFE801B40F2E9318842F5D3032000E0CE
:101D6000002076BD04700040007000404038024002
:101D70000F48016851F4700101600E49086850F085
:101D80000100086000200C4A10600A680B480240FD
:101D90000A600B480B4A1060086830F48020086025
:101DA0000020094908605FF000600849086070473A
:101DB00088ED00E00038024008380240FFFFF6FEE0
:101DC00010300024043802400C38024008ED00E0D6
:101DD00030B450F8041B79B10268436802440830FB
:101DE000DC0744BFA9F10104E31852F8045B43F88F
:101DF000045B091FF9D1ECE730BC704710B5074907
:101E000079441831064C7C44163404E00A68081DF5
:101E1000114488470146A142F8D110BD2C000000B2
:101E20004C0000004EF68851CEF20001086840F4E4
:101E300070000860BFF34F8FBFF36F8F4FF00070DB
:101E4000E1EE100A704700008FEBFFFFA4000000D6
:101E50000C0000200000000079FFFFFF0C000000D4
:101E6000B0000000000000200000000000F00DF8AD
:101E7000002801D0FFF7C2FFAFF300800020AFF3CE
:101E80000080FFF7A3FE00F002F80120704700F089
:101E900001B800000746384600F002F8FBE70000F2
:101EA00080B5AFF30080024A11001820ABBEFBE7FB
:101EB0002600020003480168034A1278891801606D
:101EC000704700BFAC000020080000207047FEE70C
:101ED000FEE7FEE7FEE770477047704780B5FFF703
:101EE000E9FF01BD00000000000000000102030442
:101EF000060708090148804701480047711D00088E
:101F0000051F0008AFF30080FFF78CFFFFF7AEFF5F
:101F1000100000000024F40001000000FFF7FEBFE5
:101F2000FFF7FEBFFFF7FEBFFFF7FEBFFFF7FEBFE5
:101F3000FFF7FEBFFFF7FEBFFFF7FEBFFFF7FEBFD5
:101F4000FFF7FEBFFFF7FEBFFFF7FEBFFFF7FEBFC5
:101F5000FFF7FEBFFFF7FEBFFFF7FEBFFFF7FEBFB5
:101F6000FFF7FEBFFFF7FEBFFFF7FEBFFFF7FEBFA5
:101F7000FFF7FEBFFFF7FEBFFFF7FEBFFFF7FEBF95
:101F8000FFF7FEBFFFF7FEBFFFF7FEBFFFF7FEBF85
:101F9000FFF7FEBFFFF7FEBFFFF7FEBFFFF7FEBF75
:101FA000FFF7FEBFFFF7FEBFFFF7FEBFFFF7FEBF65
:101FB000FFF7FEBFFFF7FEBFFFF7FEBFFFF7FEBF55
:101FC000FFF7FEBFFFF7FEBFFFF7FEBFFFF7FEBF45
:101FD000FFF7FEBFFFF7FEBFFFF7FEBFFFF7FEBF35
:101FE000FFF7FEBFFFF7FEBFFFF7FEBFFFF7FEBF25
:101FF000FFF7FEBFFFF7FEBFFFF7FEBFFFF7FEBF15
:10200000FFF7FEBFFFF7FEBFFFF7FEBFFFF7FEBF04
:10201000FFF7FEBFFFF7FEBFFFF7FEBFFFF7FEBFF4
:10202000FFF7FEBFFFF7FEBFFFF7FEBFFFF7FEBFE4
:10203000FFF7FEBFFFF7FEBFFFF7FEBFFFF7FEBFD4
:10204000FFF7FEBFFFF7FEBFFFF7FEBFFFF7FEBFC4
:10205000FFF7FEBFFFF7FEBFFFF7FEBFFFF7FEBFB4
:10206000FFF7FEBFFFF7FEBFFFF7FEBFFFF7FEBFA4
:10207000FFF7FEBFFFF7FEBFFFF7FEBFFFF7FEBF94
:10208000FFF7FEBFFFF7FEBFFFF7FEBFFFF7FEBF84
:10209000FFF7FEBFFFF7FEBFFFF7FEBFFFF7FEBF74
:0420A000FFF7FEBF89
:0200000490006A
:1000000000000520AD050090A51E0090A71E0090E1
:10001000A91E0090AB1E0090AD1E009000000000D5
:10002000000000000000000000000000A177009028
:10003000AF1E00900000000041780090A57800906D
:10004000FD050090FD050090FD050090FD05009068
:10005000FD050090FD050090FD050090FD05009058
:10006000FD050090FD050090FD050090FD05009048
:10007000FD050090FD050090FD050090FD05009038
:10008000FD050090FD050090FD050090FD05009028
:10009000FD050090FD050090FD050090FD05009018
:1000A000FD050090FD050090FD050090FD05009008
:1000B000FD050090FD050090FD050090FD050090F8
:1000C000FD050090FD050090FD050090FD050090E8
:1000D000FD050090FD050090FD050090FD050090D8
:1000E000FD050090FD050090FD050090FD050090C8
:1000F000FD050090FD050090FD050090FD050090B8
:10010000FD050090FD050090FD050090FD050090A7
:10011000FD050090FD050090B11E0090FD050090CA
:10012000FD050090FD050090FD050090FD05009087
:10013000FD050090FD050090FD050090FD05009077
:10014000FD050090FD050090FD050090FD05009067
:10015000FD050090FD050090FD050090FD05009057
:10016000FD050090FD050090FD050090FD05009047
:10017000FD050090FD050090FD050090FD05009037
:10018000FD050090FD050090FD050090FD05009027
:10019000FD050090FD050090FD050090FD05009017
:1001A000BD1E0090FD050090C91E0090FD05009049
:1001B000FD050090FD050090FD050090FD050090F7
:0801C000FD050090FD05009013
:1001D00010B5054C237833B9044B13B10448AFF381
:1001E00000800123237010BD2001002000000000CA
:1001F0007C17029008B5034B1BB103490348AFF3CA
:10020000008008BD00000000240100207C1702903F
:1002100001F0FF01102A2BDB10F0070F08D010F8B7
:10022000013B013A8B422DD010F0070F42B3F6D1BB
:10023000F0B441EA012141EA014122F007047FF0D4
:1002400000070023F0E80256083C85EA010586EA2B
:10025000010685FA47F5A3FA87F586FA47F6A5FA67
:1002600087F68EB9EED1F0BC01F0FF0102F0070273
:1002700032B110F8013B013A83EA010313B1F8D11E
:100280000020704701387047002D06BF35460338FF
:10029000073815F0010F07D1013015F4807F02BF38
:1002A000013015F4C03F0130F0BC0138704700BF89
:1002B00053B94AB9002908BF00281CBF4FF0FF31CD
:1002C0004FF0FF3000F070B9ADF1080C6DE904CECD
:1002D00000F006F8DDF804E0DDE9022304B0704721
:1002E0002DE9F047089E0D4604460F46002B4AD1E3
:1002F0008A42944665D9B2FA82F343B102FA03FC0A
:10030000C3F120029F4020FA02F217439C404FEABB
:100310001C4E1FFA8CF5B7FBFEF1220C0EFB117779
:1003200042EA074201FB05F090420AD91CEB0202A7
:1003300001F1FF3780F01C81904240F219810239AF
:100340006244121AA4B2B2FBFEF00EFB102244EA81
:10035000024400FB05F5A5420AD91CEB040400F198
:10036000FF3280F00781A54240F2048164440238E4
:1003700040EA0140641B00211EB1DC400023C6E9B5
:100380000043BDE8F0878B4208D9002E00F0ED80D5
:100390000021C6E900050846BDE8F087B3FA83F1FD
:1003A000002949D1AB4202D3824200F2F880841A7C
:1003B00065EB030201201746002EE2D0C6E9004794
:1003C000DFE702B9FFDEB2FA82F3002B40F0908043
:1003D0008A1A4FEA1C471FFA8CFE0121B2FBF7F57F
:1003E00007FB1520220C42EA00420EFB05F090426A
:1003F00008D91CEB020205F1FF3802D2904200F24C
:10040000CB804546121AA4B2B2FBF7F007FB1022CC
:1004100044EA02440EFB00FEA64508D91CEB040486
:1004200000F1FF3202D2A64500F2BB801046A4EBD9
:100430000E0440EA05409FE7C1F120078B4022FAF5
:1004400007FC4CEA030C05FA01F420FA07F3FD401F
:100450004FEA1C492343B5FBF9F81FFA8CFE09FB50
:1004600018551C0C44EA054408FB0EF5A54202FA97
:1004700001F200FA01F00BD91CEB040408F1FF3A79
:1004800080F08880A54240F28580A8F1020864448B
:10049000641B9DB2B4FBF9F309FB134445EA044421
:1004A00003FB0EFEA64508D91CEB040403F1FF353F
:1004B0006CD2A6456AD9023B644443EA0843A3FBD5
:1004C0000295A4EB0E04AC42C846AE4656D353D0B8
:1004D00056B1B0EB080264EB0E0404FA07F7CA4009
:1004E000CC401743C6E9007418460021BDE8F087E8
:1004F000C3F1200102FA03FC20FA01F225FA01F10E
:100500009D402A434FEA1C471FFA8CFEB1FBF7F0CF
:1005100007FB1015110C41EA054100FB0EF58D4259
:1005200004FA03F408D91CEB010100F1FF382FD2C3
:100530008D422DD902386144491B92B2B1FBF7F5C7
:1005400007FB151142EA014205FB0EF1914208D961
:100550001CEB020205F1FF3816D2914214D9023D7C
:100560006244521A45EA004138E73146304608E70E
:100570003946E6E61046FBE64845A9D2B9EB020843
:1005800065EB0C0E013BA3E74546EAE72B4694E7F3
:100590004046D1E7D0467BE7023D624432E7084659
:1005A0000AE76444023842E7704700BFDFF834D0FE
:1005B000002103E00C4B5B58435004310B480C4BBB
:1005C00042189A42F6D30B4A02E0002342F8043B59
:1005D000094B9A42F9D303F0EFFE20F055FB00F0EF
:1005E0007BFF7047000005203C4702900000002080
:1005F0002001002020010020D42D0120FEE77047BB
:1006000008B500F059FDBDE8084000F0E5BC00F079
:1006100055BD406870474160704700004FF0E022D0
:10062000D2F8FC3D43F08073C2F8FC3D054B064A0E
:10063000D3F8B01F0A43C3F8B02F1A6842F0010282
:100640001A607047001000E055CEACC5511A01EB9E
:100650005301B1FBF3F07047014B5868704700BF7E
:10066000001000E0704710B504460C211FF0C2FADC
:10067000204610BD036810B51B69044631B1984788
:10068000A26863689B1A1844606010BD9847A06018
:10069000FBE7704730B58DB00D46144600212C2283
:1006A00001A820F048FA01A803F0C8FD9DF8040055
:1006B00030B1BDF8063001202B60BDF8103023604A
:1006C0000DB030BD10B5044604211FF093FA20464A
:1006D00010BD000008B54FF488714FF4F07003F0BE
:1006E00057FD28B1034B2021034A044820F030F87D
:1006F00008BD00BFFC1702901D1802904718029019
:10070000032823D8DFE800F0020B131A104B102146
:1007100010481A68B2FA82F2520904F0D5BC0C4BA8
:1007200040215A68B2FA82F252090B48F5E7084BA9
:1007300080219A68B2FA82F25209F6E7044B40210E
:100740000648DA68B2FA82F25209E6E7704700BF5B
:100750003C01002000040240000802400018024052
:10076000032823D8DFE800F0020B131A104B1021E6
:1007700010481A68003A18BF012204F0A5BC0C4BBF
:1007800040215A68003A18BF01220B48F5E7084B90
:1007900080219A68003A18BF0122F6E7044B4021F5
:1007A0000648DA68003A18BF0122E6E7704700BF42
:1007B0003C010020000402400008024000180240F2
:1007C00003280FD8DFE800F00206090B10210648C5
:1007D00004F07FBC40210548FAE78021FBE7402177
:1007E0000348F5E7704700BF0004024000080240DC
:1007F0000018024008B5032813D8DFE800F0020A09
:100800000D0F1021084804F059FC431E584258416E
:1008100008BD40210548F6E78021FBE74021044858
:10082000F1E70020F1E700BF0004024000080240A9
:100830000018024070B5084D00240126E0B2FFF711
:10084000D9FF18B12B68012B18BF2E600134043575
:10085000052CF3D170BD00BF3C010020012380F8BE
:10086000741080F87530704700207047416400397B
:10087000024B18BF01211970704700BFEB290120FE
:1008800000207047836B0BB10846184770474FF63E
:10089000FF707047406803689B6918477047000005
:1008A00038B50446FFF7C6FF204600F013FD236865
:1008B000094A4FF04041D3F888502046074BA847DB
:1008C0000023074D84F84A302846FFF7A7FE01238E
:1008D000256184F86C3038BD00FC03C000F807C007
:1008E0004C01002008B503680446D3F880309847CF
:1008F000236820469B6F984700F032F92368204612
:100900001B6F98474FF48051064804F0E2FB082122
:10091000054804F0DEFB00F023F9236820461B6F36
:100920009847F8E7002002400028024010B504462E
:100930000AF076FC23682046D3F8AC30BDE81040BE
:10094000184700F091BC00F095BC000070B500F0B5
:10095000E7FC10490023C1F88430BFF34F8FD1F872
:10096000803043F6E074C3F3C900C3F34E335B0138
:1009700003EA0406024646EA8275013AC1F8745257
:10098000F9D2203B13F1200FF2D1BFF34F8FBFF309
:100990006F8F70BD00ED00E000F042BC00F0CCBCF9
:1009A00000F0D4BC00F046BC09F0A0BE10B504466F
:1009B0007C211FF01FF9204610BD90F877301BB145
:1009C000406803681B6818471846704790F8341051
:1009D0000D4B10B590F874401A788C4209D03AB992
:1009E0000A490B4A08881488108001220C801A706A
:1009F00010BD002AFCD0064A0449148808880C80DF
:100A000010800022F3E700BFE4290120E229012041
:100A1000E029012070B50D46194635B9094B40F261
:100A2000D221094A09481FF093FEC0E90F52003A4B
:100A3000074B18BF01221A700368BDE87040D3F855
:100A40008C301847AC180290E418029032190290CA
:100A5000EA29012008B5094B1B888B4203D8084BB3
:100A60001B88934205D9074B9E21074A07481FF070
:100A70006FFE074B1980074B1A8008BDE029012043
:100A8000E229012077190290DA19029032190290B6
:100A9000E6290120E8290120014608B5034B186822
:100AA00001B101210AF0D6FB012008BDEC2901208B
:100AB000034B00225A609A60024A1A60704700BFD6
:100AC0004C010020DC1702900121002208B50846E5
:100AD00006F034FB0A4B186028B90A4B28210A4A51
:100AE0000A481FF035FE00220421012006F0ECFB2D
:100AF000074B186018B9074B2C21034AF0E708BDD3
:100B00005C010020F81A0290411B0290701B0290B9
:100B100058010020BD1B0290024B4FF0FF311868B6
:100B200006F062BB5C010020014B186806F096BB22
:100B30005C010020024B0021186806F055BB00BF85
:100B40005C010020FFF7F0BF0023034803491A4669
:100B5000006806F0FFBB00BF580100200400002021
:100B600013B50023074C01A91A46206806F034FC8F
:100B70004FF0FF33002201A9206806F02DFC02B0DF
:100B800010BD00BF5801002003685B6C18470120AE
:100B9000704703689B6A18470D4B82B01A6B42F48A
:100BA00000021A631A6B02F400020192019A1A6998
:100BB00042F400021A611A6922F400021A61054B1C
:100BC000054A1A614FF08062044B9A6002B0704788
:100BD000003802409C180020210C009000E100E049
:100BE00040F2EF3070470000054B4FF08062036029
:100BF000044BC3F88820BFF34F8FBFF36F8F70474C
:100C00005C1D029000E100E010B504464FF45A610B
:100C1000FFF7EAFF20461EF0EDFF204610BD000062
:100C2000024B1B68586803685B691847EC29012070
:100C300070B504460A4B0C300026254660226060E1
:100C40002672667245F8203B29460AF057FC04F5E7
:100C50005A63EE602435AB42FBD1204670BD00BF25
:100C60005C1D029008B50B290BD8DFE801F01206D5
:100C7000100A0A0A0A0808080808012008BD052009
:100C8000FCE7054B6621054A05481FF061FD002081
:100C9000F4E70220F2E700BFFF1B02901A1C02904B
:100CA000641C029008B50A2909D8DFE801F0100693
:100CB0000E080808080606060600012008BD054BB8
:100CC0008721054A05481FF043FD0020F6E7022072
:100CD000F4E700BFFF1B0290AF1C0290641C02905F
:100CE0002DE9F84391F81D800C4607464146FFF771
:100CF000B9FF94F81E90054638464946FFF7B2FF03
:100D0000494606463846FFF7CDFFA18A628B434B22
:100D1000521A1A649A61228B521A1A61E28A586333
:100D200042EA014220695A646268D863DA6027683F
:100D3000802F28D0227F0FD8202F65D0402F63D05E
:100D4000042F1AD045EA0265344BC84545F40035F6
:100D5000DD615FD0324A44E0B7F5807F04D0B7F55B
:100D6000007FEFD12F4900E02F4941EA0262DA61AA
:100D7000E2681A625E62586132E045EA026242F459
:100D80000032DA61F6E7A7683A1DDA62217F3A7825
:100D900045EA016545F40035DD615E62586142B1A6
:100DA000012A21D0214B40F21111214A21481FF084
:100DB000CFFCDA69798822F47F42013922F01002EF
:100DC00042EA01220121DA61144BDA6942F0200281
:100DD000DA61DA699206FCD410229A600029B9D04F
:100DE000154A1A60BDE8F883DA69FF39788822F479
:100DF0007F4218BF0121013822F0100242EA00228E
:100E000042F01002DA61DFE745EA0262034B42F486
:100E10000032B6E740F20122E3E700BF00B0024033
:100E200001020100090002000A000200FA1C0290FF
:100E3000141D0290641C02900102020038B50C4699
:100E4000897FFFF72FFF174BA58AE28A586342EA92
:100E5000054221695A64628BD963521B1A64256862
:100E6000082D0ED19A611A6158620F4A207F42EA1A
:100E70000062DA61E2681A620C4A5961D9601A604C
:100E800038BD0022D8611A61E1680A0A4809C1F335
:100E9000C40102F4784200F4FC6002430A439A63FE
:100EA000034AECE700B00240090001000102020021
:100EB00001020300012070474020704700EB8110C1
:100EC0000830704700EB81100830704701207047F0
:100ED00040F23C60704740F23C6303FB0100083085
:100EE000704740F23C6303FB01000830704701206B
:100EF00070471020704700EB01100830704700EB7E
:100F0000011008307047084601F050BC034B10B583
:100F10000446036008F07DFA204610BD141E0290BE
:100F200010B50446FFF7F2FF482120461EF062FE8E
:100F3000204610BD034B10B50446036008F069FA63
:100F4000204610BDE01D029010B50446FFF7F2FFE9
:100F500040F2446120461EF04DFE204610BD0000C8
:100F6000034B10B50446036008F053FA204610BD49
:100F7000AC1D029010B50446FFF7F2FF1821204681
:100F80001EF038FE204610BD084B10B50446036025
:100F900000F5CE60FFF7BAFF04F12C00FFF7CAFF9F
:100FA00004F11400FFF7DCFF204610BD481E02903C
:100FB00008B50248FFF7E8FF08BD00BF6401002044
:100FC00010B50446FFF7E0FF40F6180120461EF07A
:100FD00011FE204610BD00002DE9F34100F0CEFFC8
:100FE0000024054600F0CEFF23460146224628464F
:100FF000009411F0A7FF254B254A2046254D1A6085
:1010000002F066FA244811F005FF2B68BFF35B8FEE
:10101000DB0735D428461EF0EFFD88B31F4C204B6C
:1010200004F2BC6604F1140004F12C0804F5CE6748
:1010300023606060C4F80880E760266108F0EAF980
:10104000184B4046636108F0E5F9174B3846E362F8
:1010500008F0E0F9154B04F5D760C4F8703602F0DB
:1010600079FC224604F5D761304602F09DFA3046FD
:1010700001F09CFB0E481FF089FB28461EF0C8FDBE
:101080000C4802B0BDE8F041FFF70ABC502A01202D
:101090009C1700206001002008000020640100204F
:1010A000481E0290AC1D0290E01D0290141E02909A
:1010B000B10F009020170020704700000148FFF793
:1010C00011BC00BF2017002070B5234E234B244CC9
:1010D0003046244D2360FFF7ABFD284615F03EF85F
:1010E000214B00224FF4807120481A861A6683F83B
:1010F0006C201A67DC60C3E912121D49C3E919129A
:101100004FF080715967012183F8781019490B60FD
:101110004FF4F0710180184801804FF4887117482E
:10112000C3E90422C3E90622C3E90822C3E90A226B
:10113000C3E90E22C3E91022C3E91422C3E916222F
:10114000C3E9016501800E4883F8342001800D4910
:101150000A700D4A1A6070BD800900209C18029028
:101160007C090020A017002020170020E029012082
:1011700001000001EC290120E6290120E2290120DB
:10118000E8290120E4290120281A02900148FFF7EC
:101190002BBD00BF80090020002070478180704770
:1011A000C180704701817047418170477047704727
:1011B00070477047704710B4C4880368121B848856
:1011C0005B6D091B12B25DF8044B09B218474FF66C
:1011D000FF7383814FF0FF3303621368C3611060B4
:1011E000704790F825201AB190F8242002B11860B9
:1011F000704780F82610704790F82600704700224C
:1012000010B5B1F90840B1F90A100280428084801B
:10121000C18010BD0022028042808280C28070475F
:10122000034B902283F85A2383F85823704700BF5A
:1012300000E100E0094A0A49D3680A48C3F30A03F7
:10124000013B9BB20B801169C1F30A010139018096
:101250001364536B43F0010353637047006801400C
:101260001C1800201A180020014BD3F8AC0070475E
:1012700000680140024B0122C3F8AC105A6270476B
:1012800000680140124A5369DB0370B51ED5002384
:10129000C2F88430BFF34F8FD2F8803043F6E07449
:1012A000C3F3C900C3F34E335B0103EA04060146EE
:1012B00046EA81750139C2F87452F9D2203B13F124
:1012C000200FF2D1BFF34F8FBFF36F8F70BD00BF00
:1012D00000ED00E070B5044609F05DFA23685D6E2C
:1012E0000EF01AFB01462046A84723682046054A0F
:1012F000D3F888504FF040410023AC46BDE8704021
:10130000604700BF00FC03C009F02CBA90F84B30D6
:1013100013B1024B01221A7009F030BA18180020DC
:1013200009F0EAB909F045BB90F8252012B103682D
:101330005B69184770470000034B4FF080629A606A
:101340004FF080729A60704700E100E0084B4FF068
:101350008062C3F88820BFF34F8FBFF36F8F4FF0C9
:101360008072C3F88820BFF34F8FBFF36F8F704731
:1013700000E100E010B5144C236823B3134B144A6A
:101380001B6C11888B4213D1124B198804F066FB39
:10139000226892F86630013382F86630FFF7D4FB9A
:1013A000206809F03DFF0020BDE81040FFF7A8B914
:1013B00004F054FB206803681B6A98470020BDE8CE
:1013C0001040FFF7CDB910BDEC29012000680140A5
:1013D0001C1800201A1800200149002007F07EBBCD
:1013E000990A0090F8B500240A4D0B4F0B4E284681
:1013F00003F0EEF8284603F065F93223386003FB6A
:101400000400332390FBF3F46420346005F07CFE89
:10141000EDE700BF30180020201800202818002019
:1014200010B51446642392B2024805F0A4FC20468D
:1014300010BD00BFB819002010B594B010220021D3
:1014400002240AA81FF077FB1422002103A81FF032
:1014500072FB1F4B012119201A6C42F080521A6452
:101460001B6C03F080530193019B1A4B1A6842F4E2
:1014700040421A601B6803F440430293029B4FF4FE
:101480008033CDE908134FF48003CDE90E434FF4C8
:10149000D873CDE9100308A8CDE9124404F034FB59
:1014A00000B1FEE704F0F8FA00B1FEE70F234FF4B5
:1014B000A0520590072103A8CDE903344FF48053CF
:1014C000CDE9062304F008FD00B1FEE714B010BD1D
:1014D00000380240007000402DE980489BB0BFF307
:1014E0004F8FBFF36F8FC14A0021C2F85012BFF374
:1014F0004F8FBFF36F8F536943F400335361BFF3D2
:101500004F8FBFF36F8FC2F88410BFF34F8FD2F8A5
:10151000803043F6E074C3F3C900C3F34E335B017C
:1015200003EA0406014646EA81750139C2F86052B1
:10153000F9D2203B13F1200FF2D1BFF34F8F536943
:1015400043F480335361BFF34F8FBFF36F8F102588
:1015500002F062FF00210DA82A4601261FF0EBFAD7
:10156000002403F0C3F94FF0005EA14B0DA84FF02B
:101570001C0AADF8346003274FF0020940F201184D
:101580004FF0400BCDE90EE39A4B109303F0CCF9EA
:101590004FF040430DA88DF83CA00E938DF83560B8
:1015A0008DF83F40ADF8424003F0BEF916230DA878
:1015B000ADF842808DF83C308DF835908DF83F7055
:1015C00003F0B2F94FF010430DA88DF83CA04FF096
:1015D000040A0E938DF835708DF83F40ADF8424007
:1015E00003F0A2F917230DA8ADF842804FF00508CB
:1015F0008DF83C308DF835A08DF83F7003F094F9EC
:1016000013230DA88DF835808DF83C308DF84040BF
:1016100003F08AF9504603F077F9FFF70DFF142223
:1016200021460DA81FF087FA734B294673481A6BA1
:101630002A431A631A6B2A400292029A1A6B42EAF0
:1016400009021A631A6B02EA09020392039A1A6BDF
:1016500042F040021A631A6B02F040020492049AAC
:101660001A6B42F400721A631A6B02F4007205924C
:10167000059A1A6B42F008021A631A6B02F008020C
:101680000692069A1A6B42F480621A631A6B02F48D
:1016900080620792079A1A6B42F020021A631A6B53
:1016A00002F020020892089A1A6B42F480721A63C0
:1016B0001A6B02F480720992099A1A6B32431A6308
:1016C0001A6B32400A920A9A1A6B42F080021A632D
:1016D0001A6B02F080020B920B9A1A6B42EA0A0212
:1016E0001A6322461B6B03EA0A030C930C9B03F05C
:1016F000EBFC22460821424803F0E6FC22464FF468
:101700008051404803F0E0FC2246C0213E4803F0EF
:10171000DBFC224640213D4803F0D6FC0DA93748AA
:10172000CDE90D56CDE90F4703F046FB08230DA97F
:101730003348CDE90D36CDE90F4403F03DFB4FF4BE
:1017400080530DA92F48CDE90D36CDE90F4403F0A4
:1017500033FBC0230DA92C48CDE90D36CDE90F4749
:1017600003F02AFB29480DA9CDE90DB6CDE90F47B5
:1017700003F022FB2648274B848003600662C0E901
:10178000054403F0FDF800B1FEE7234C234BC4E908
:101790000200C4E90030C4E90A00C4E90C00204694
:1017A00003F00AFA00B1FEE73146204603F0BCFA26
:1017B00000B1FEE71A4B0DA91A4A98621395C3E9C6
:1017C00000208022C3E9020AC3E90620C3E9080019
:1017D0001846C3E9045BCDE90D55CDE90F55CDE9B8
:1017E000115504F0DFFEF8B1FEE700BF00ED00E0A8
:1017F0001200000301000101003802400004024011
:101800000028024000200240000802400018024068
:1018100078180020003002409C18002000B00240E0
:1018200084190020400100A002F098FC02F04AFC5C
:10183000054600B1FEE7342201464C4C35260DEB3F
:10184000020040F215271FF076F9494B282040F29C
:10185000352CA586256184F83650C4E90035092366
:10186000C4E905030B232046C4E9076340F21B13B8
:10187000C4E9097340F21D13C4E90255C4E90BC35E
:1018800003F0F4FF024600B1FEE74FF4F0710D9053
:101890004FF48873ADF864208DF866201893CDE975
:1018A0000E10FF20CDE912024FF48060CDE9162121
:1018B000CDE914080DA92046CDE9103904F0A1F8AE
:1018C00000B1FEE72B4B4FF4E1322B49186158620F
:1018D000C3E900120C22C3E90200C3E90520C3E9F1
:1018E0000700184605F0BBFA00B1FEE71022002100
:1018F0000DA8224C1FF01FF9214A4FF48033012517
:101900002046E5616561C4E9002300231D4AA36008
:101910002361A36184F82030E362A262E36084F86B
:10192000303002F0AFFD00B1FEE7CDE90D050F90BC
:101930000DA9204602F0CAFE00B1FEE70190FEF7B5
:101940005FFEFEF75CFE05F051FB0F4A01990F4860
:1019500005F086FB0E4B0F4A186001990E4805F002
:101960007FFB0E4B186005F05BFBFEE7DC180020E8
:1019700000680140B8190020001001403018002014
:10198000002001400100000F941E0290E51300901A
:101990002C180020701E02900F06009024180020C2
:1019A0000268034B9A4201D102F048BD704700BF64
:1019B00000100040FEE700000D4B82B00F216FF0D9
:1019C00001001A6C42F080521A641A6C02F08052C4
:1019D0000092009A5A6C42F480425A6400225B6C76
:1019E00003F480430193019B02B002F02DBF00BFBE
:1019F0000038024010B588B004461422002103A824
:101A00001FF099F82268104B9A421BD103F58C33D2
:101A100003A90E485A6C42F480725A645A6C02F45C
:101A200080720192019A1A6B42F001021A6301223C
:101A30001B6B03F001030293029B0323CDE90323F5
:101A400003F0BAF908B010BD0020014000000240C8
:101A5000026882B0084B9A420BD1D3F8302803F5C4
:101A6000006342F480521A631B6B03F480530193AA
:101A7000019B02B0704700BF003002400E4B07B51B
:101A800002689A4215D1A3F5F04305215A201A6B3A
:101A900042F400021A6300221B6B03F4000301935B
:101AA000019B02F0D1FE5A2003B05DF804EB02F076
:101AB000FDBE03B05DF804FB00B0024070B5ACB0F1
:101AC00004461422002106A81FF035F884220021C4
:101AD0000BA81FF030F82268464B9A4240F08880ED
:101AE000082305200B93642310930223CDE91130C2
:101AF00001230BA8159304F0CBFA08B1FFF75AFFA6
:101B00003D4B022400250E265A6C06A93B4842F0A4
:101B100080625A645A6C02F080620092009A1A6BDA
:101B200042F010021A631A6B02F010020192019A3D
:101B30001A6B42F400721A631A6B02F4007202927A
:101B4000029A1A6B42F480621A631A6B02F4806282
:101B50000392039A1A6B42F040021A631A6B02F066
:101B600040020492049A1A6B42F480721A631B6B4F
:101B700003F480730593059B1023CDE90634CDE96A
:101B800008540A9603F018F94EF6FF7306A91C488C
:101B90000A96CDE90634CDE9085403F00DF9F72390
:101BA00006A918480A96CDE90634CDE9085403F091
:101BB00003F94FF4805306A91348CDE906340923ED
:101BC000CDE908540A9303F0F7F84FF4464306A909
:101BD0000E480A96CDE90634CDE9085403F0ECF836
:101BE00058202A46052102F02FFE582002F05EFE02
:101BF0002CB070BD00680140003802400010024067
:101C00000024024000280240001802400020024048
:101C1000F0B5ABB004461422002104A81EF08BFFDF
:101C20008422002109A81EF086FF2268204B9A42D8
:101C30003CD1402309A8099304F02AFA08B1FFF720
:101C4000B9FE1C4B0227002603255A6C072404A961
:101C5000194842F010025A645A6C02F010020192C4
:101C6000019A1A6B42F002021A631A6B02F0020226
:101C70000292029A1A6B42F001021A631B6B0894DB
:101C800003F001030393039B8023CDE90665CDE9AF
:101C9000043703F091F84FF4007304A9074808943F
:101CA000CDE90437CDE9066503F086F82BB0F0BD29
:101CB00000100140003802400004024000000240D1
:101CC000F0B5002387B003932A4B1E68002E4ED137
:101CD0000122022703250C241A6001A9264B27485C
:101CE0009A6B42F001029A639B6B03F0010300932D
:101CF000009B4FF68373CDE90454CDE9013703F01F
:101D00005BF848F2331301A91D480594CDE901376A
:101D1000CDE9036503F050F84CF2037301A91948AB
:101D20000594CDE90137CDE9036503F045F84FF699
:101D30003F0301A914480594CDE90137CDE90365B6
:101D400003F03AF8242301A910480594CDE901379E
:101D5000CDE9036503F030F804230D480DEB0301D2
:101D60000594CDE90137CDE9036503F025F807B007
:101D7000F0BD00BF441A00200038024000100240AD
:101D800000180240000C024000140240001C0240F7
:101D90000008024008B5144B1A6822BB01224FF616
:101DA000837112481A60124A936B23F00103936304
:101DB00003F0E4F848F233110E4803F0DFF84CF278
:101DC00003710D4803F0DAF84FF63F010B4803F0BA
:101DD000D5F824210A4803F0D1F804210948BDE8C8
:101DE000084003F0CBB808BD401A002000100240A4
:101DF0000038024000180240000C0240001402406B
:101E0000001C024000080240214B1A6C42F01002F4
:101E100070B51A6488B01B6C054601A903A803F0CD
:101E200010030293029B04F015F9069B4BBB04F0D0
:101E3000F1F8184E184B336040F2E733F360174B5C
:101E4000B0FBF3F3013B3046736000233361B360B2
:101E5000B36104F065FD044680B9304604F008FC27
:101E6000044658B9362002F021FD0F2D0DD8224628
:101E70002946362002F0E8FC094B1D60204608B0D8
:101E800070BD04F0C7F84000D3E70124F6E700BFB7
:101E900000380240481A00200010004040420F0065
:101EA000400000207047FEE7FEE7FEE7FEE77047D0
:101EB000014804F01FBC00BF481A0020014803F08D
:101EC00043BD00BFDC180020014802F0A3BE00BFE4
:101ED0009C1800200120704708B51EF0CFFE162385
:101EE00003604FF0FF3008BD08B51EF0C7FE162393
:101EF0000360FEE770B50D4614460E46731B9C4208
:101F000001DC204670BDAFF3008006F8010BF5E759
:101F10004FF0FF3070474FF4005300204B60704784
:101F200001207047002070470A4A08B513680BB9B2
:101F3000094B1360136869461844884206D91EF09D
:101F40009DFE0C2303604FF0FF3008BD1060184663
:101F5000FBE700BF941A0020D82D0120704710B570
:101F6000044604211DF046FE204610BD08B519B9EF
:101F700001F0FAFA006808BD0020FCE7004870474D
:101F8000CC1E02901420704713B5002451B1036891
:101F900001AA01948DF803409C680DF10303A0474A
:101FA00002B010BD0846FBE7C0897047008A704741
:101FB000C088704780887047807A00F07F00704743
:101FC000807AC0097047704710B5044608211DF09B
:101FD00011FE204610BD7047704700F598730868E1
:101FE000496803C3704770477047416070470022DB
:101FF00010B5B1F90840B1F90A100280428084801E
:10200000C18010BD70477047064BC0F84801C0F84A
:102010004C310023C0F8503100F5A273C0F84031B4
:10202000704700BF81220090012303727047704700
:102030007047704770477047014640680368103129
:102040005B6E184701464068036810311B6E1847E5
:10205000704710B441680346C2689B68541001EB96
:102060006200D20748BF0A595DF8044B48BFD358F5
:10207000184743682BB183682BB9C06800F0010092
:102080007047184670470120704710B504460C2170
:102090001DF0B0FD204610BD10B5044610211DF006
:1020A000A9FD204610BD10B504464FF4AE711DF0D9
:1020B000A1FD204610BD10B5044638211DF09AFD43
:1020C000204610BD10B5044628211DF093FD204682
:1020D00010BD10B5044640211DF08CFD204610BDFA
:1020E00008B50DF019FCBDE808400EF0D1B80000AD
:1020F000054B01461B782BB1406818B103680C31C1
:102100005B6E1847704700BFEB290120037A70B55A
:102110000546BBB940680368DB69984704463CB98B
:10212000686805F10C010368BDE870401B6E184734
:10213000A18820466B8FC91A236809B21B6B984788
:10214000A469ECE770BD70B5044690F83900013021
:1021500094F83830C0B2984284F8390005D9012388
:102160002372002384F8393070BDB4F93A2000217D
:102170000FF08CF910F0010283B206D04FF6FF7118
:102180000028D8BF0A46134418B2238AC01AA08771
:1021900060680368DB69984705462DB96068036885
:1021A000BDE870405B691847A9882846A38F194489
:1021B0002B6809B21B6B9847AD69EEE737B504464B
:1021C000807A0130637AC0B29842A07205D90123A7
:1021D00023720023A37203B030BDB4F90C20002198
:1021E0000FF054F910F0010283B228D1E081184BAE
:1021F000258B19881748E389B0F90000CA1A2B44C7
:10220000ADF8060012B25B1A606869462283ADF829
:1022100000200022ADF804300368ADF802201B69ED
:102220009847A37A012BD6D10B4B1B78002BD2D029
:102230000DF072FB03B0BDE830400DF073BB4FF6FC
:10224000FF710028D8BF0A461344E381CFE700BFDF
:10225000E0290120E2290120EA29012010B50446E5
:10226000D0F8400158B10368DB68984738B1D4F81A
:10227000400103689B6898470023C4F8403110BDB3
:102280002DE9F14FD0E9555A0746A86803681B6A43
:10229000984740F23B63984205D8464BA321464AF3
:1022A00046481EF055FA686803681B6A98470F286D
:1022B00003D8434BA421404AF2E7E86803681B6A4D
:1022C00098470B2803D83F4BA5213B4AE8E7DFF8A6
:1022D000FC900DF021FB04300DF084FBD9F80000D8
:1022E00010B10368DB689847D9F8000010B10368A3
:1022F0001B689847DFF8D880D8F8000010B1036851
:102300005B699847D7F83C0110B103685B68984750
:10231000D8F8000010B103681B689847D7F83C0153
:1023200010B103689B689847E86800214FF0000BE4
:1023300003685B6A9847244B0446C0F804B0036006
:10234000594680F808B0A86803685B6A9847064653
:1023500001F068FA6868594603685B6A9847054661
:10236000314601F039F9C9F80040C7F83C51C8F8C6
:102370000060E5B12B1DCAF8003030463368C5F85F
:1023800008A0DB68F56398472B6828461B689847C8
:10239000214630460FF074F8236820461B699847A1
:1023A000236820465B6901B0BDE8F04F18472B4613
:1023B000E1E700BF6C200290FA200290F821029021
:1023C0003F220290E222029080260290342A0120CD
:1023D000302A01202DE9F0411D46036804461646C7
:1023E0001B6BBDF9187098472368314620465B6B1C
:1023F00098472368294620469B6B984723683946AF
:102400002046DB6BBDE8F041184700002DE9F74F8F
:10241000D0E955BA0746DBF8080003681B6A9847FD
:1024200040F23B63984205D8554BA321554A564884
:102430001EF08EF9DBF8040003681B6A98470F282A
:1024400003D8524BA4214F4AF1E7DBF80C00036894
:102450001B6A9847372803D84D4BA521494AE6E720
:10246000DFF840910DF058FA04300DF0BBFAD9F8BE
:10247000000010B10368DB689847D9F8000010B17C
:1024800003681B689847DFF82081D8F8000010B176
:1024900003685B699847D7F83C0110B103685B6833
:1024A0009847D8F8000010B103681B689847D7F820
:1024B0003C0110B103689B689847DBF80C000021D1
:1024C000002503685B6A9847324B334A294603600C
:1024D0004FF4A053B2F90020044603814FF48073F7
:1024E000456043632D4B857203612D4BC581B3F964
:1024F0000030C0E905558381C0E90755C0E9095599
:10250000C0E90B55103000922A46FFF763FFDBF855
:102510000800294603685B6A9847064601F082F97D
:10252000DBF80400294603685B6A98470546314694
:1025300001F052F8C9F80040C7F83C51C8F80060F3
:10254000E5B12B1DCAF8003030463368C5F808A045
:10255000DB68F56398472B6828461B689847214637
:1025600030460EF08DFF236820461B69984723688C
:1025700020465B6903B0BDE8F04F18472B46E1E702
:102580006C20029085230290F82102903F22029055
:10259000E2220290C8260290E2290120B42502908E
:1025A000E0290120342A0120302A01202DE9F74FAB
:1025B000D0E9555A0746A86803681B6A9847B0F5E2
:1025C000477F05D2564BA321564A57481EF0C0F804
:1025D000686803681B6A98470F2803D8534BA421E7
:1025E000504AF2E7E86803681B6A98473F2803D817
:1025F0004F4BA5214B4AE8E7DFF844910DF08CF9E9
:1026000004300DF0EFF9D9F8000010B10368DB6871
:102610009847D9F8000010B103681B689847DFF8A5
:102620002481D8F8000010B103685B699847D7F897
:102630003C0110B103685B689847D8F8000010B1FE
:1026400003681B689847D7F83C0110B103689B6882
:102650009847E868002103685B6A98470022354B79
:10266000064642600446027246F80C3B304609F0CA
:1026700097FF1423002223872F4BA2871B78002B60
:1026800037D101232372A868002103685B6A984749
:10269000064601F099F96868002103685B6A98476B
:1026A0000546314601F068F9C9F80040C7F83C51C9
:1026B000C8F80060002D30D02B1DCAF8003030461D
:1026C0003368C5F808A0DB68F56398472B6828468F
:1026D0001B689847214630460EF0D2FE23682046FC
:1026E0001B699847236820465B6903B0BDE8F04F3B
:1026F0001847124B1146DFF850B03046B3F900309E
:102700000093BBF90030FFF765FE304609F0C4FEC8
:10271000BBF800305B426387B5E72B46CDE700BFCF
:102720006C20029095240290F82102903F220290A2
:10273000E2220290A4260290EB290120E229012046
:10274000342A0120302A0120E0290120F8B504466E
:1027500017460E460DF018FA104B00251C6029464E
:102760000F4BC4E955760F4E236030680E4BC4E919
:102770005355C4E951350368C4E94F559B689847E0
:10278000284600F0A5FE336893F876200AB1D86C8D
:1027900000B9986815F0C9FA2046F8BD402A012012
:1027A00034260290EC2901201C260290064BC0F82A
:1027B0004801C0F84C310023C0F8503100F5A27335
:1027C000C0F84031704700BF81220090064BC0F82E
:1027D0004801C0F84C310023C0F8503100F5A27315
:1027E000C0F84031704700BF0D240090064BC0F880
:1027F0004801C0F84C310023C0F8503100F5A273F5
:10280000C0F84031704700BFAD250090406A704766
:10281000806A704770478B88C069DB0A0A6850F885
:1028200023001044704710B5C2B1137BB3B1547B81
:10283000D27A240204F4E0641443026A98B202EBF0
:10284000840213888B4202D192F9020010BD05D890
:102850000138043280B20028F3D1F7E70020F5E711
:1028600010B504462C211DF0C5F9204610BD00000E
:1028700030B58BB00446BDF860500895BDF85C508B
:1028800007959DF8505006959DF84C5005959DF87C
:10289000485004959DF8445003959DF8405002958A
:1028A0009DF83C500195BDF8385000950EF098F910
:1028B000064B20462360159BE361169B2362199B00
:1028C00063621A9BA3620BB030BD00BFEC2602907E
:1028D0007047704770477047704770477047704740
:1028E000704770477047704770477047704730B403
:1028F00044680346C2689B68551004EB6200D20727
:1029000048BF625930BC48BFD358184743682BB101
:1029100083682BB9C06800F0010070471846704703
:102920000120704710B5044610211DF063F92046C0
:1029300010BD10B504464FF4C3611DF05BF920468D
:1029400010BD00F26443994270B504460D4602D1B1
:102950000368DB6A984704F593639D4203D12368BB
:1029600020461B6B984704F234539D4203D12368E1
:1029700020465B6B984704F5AD639D4203D1236805
:1029800020469B6B984704F29C539D4203D12368D9
:102990002046DB6B984704F2D4539D4203D10CF0E0
:1029A000BBFFFFF723FF04F2CC439D4203D1236812
:1029B00020461B6C984704F5A0639D4205D123680F
:1029C00020465B6CBDE87040184770BD036870B569
:1029D00004461B6B154698472368204629465B6BC7
:1029E000BDE87040184700000022C0E90122C0E99C
:1029F0000322C0E90522C0E907224FF480728284D5
:102A0000014A0260704700BF4C27029010B504468F
:102A1000262200211EF08FF82046FFF7E5FF002355
:102A20002046A36284F82C30012384F82430044B20
:102A300023604FF6FF73E385238684F8323010BDA0
:102A4000843C02902DE9F04F04460025FF274FF605
:102A5000FF76A24604F16C0904F19C0804F2644B71
:102A60002DED088B87B00EF05FFBE94B2946E5633F
:102A700026224AF8403B50461EF05DF85046FFF7CC
:102A8000B3FFE44B262229462364484684F8667047
:102A9000A566ADF810601EF04EF84846FFF7A4FF9B
:102AA000DD4B04A94846E366BDF8103084F8947005
:102AB00004F59A77A4F892300AF067FBD74BA4F894
:102AC00096504046E366A4F8985006F08FFF3846CB
:102AD00007F08EFA5846FFF799FF04F593631846FE
:102AE00008EE103AFFF792FF04F2CC43184608EEC6
:102AF000903AFFF78BFF04F5A063184609EE103AF1
:102B0000FFF784FF04F23453184609EE903AFFF7BA
:102B10007DFF04F5AD6318460AEE103AFFF776FF25
:102B200004F29C5318460AEE903AFFF76FFFBC4B35
:102B3000A4F8D065261DC4F89C3504F2D453184679
:102B40000BEE103AFFF762FFB64B2A462946C4F84F
:102B500008365046B44BC4F81456C4F810364FF437
:102B60008873C4F80C4600934FF4F073FFF732FCFF
:102B70004FF07F4351463046A3664FF00F0A07F0EF
:102B800020FB042304A94846ADF8103009F0A0FE4C
:102B90004FF488732A462946484600934FF4F07351
:102BA000FFF718FC2A462946484609F06FFE4946B9
:102BB00030464FF0030907F004FB1E232E22404647
:102BC000009322219623FFF705FC4046974906F023
:102BD0004BFE974B04A940460493ADF8149006F0C1
:102BE00056FE4046012106F04FFF0A222B46404682
:102BF000114684F8CB9007F071FA414630464FF009
:102C0000100807F0DEFA38460F22CA21FFF7DEFE71
:102C10007823294638461A4607F0AEF84946384622
:102C2000642302224FF0110906F05CFF57230A22A9
:102C30003846022106F04AFF2946384607F008F8D0
:102C4000452309223846012106F034FF294638463B
:102C500006F0E4FF0A222B463846114604F5C1650A
:102C600006F04CFF734A38460A2106F0ACFF39469D
:102C700030460E2707F0A5FA58464C222221FFF7CE
:102C8000A5FE0DEB080203A95846ADF80C90ADF86F
:102C900010800AF05CF959463046C4F88C5407F0AD
:102CA00090FA18EE100A7E222221FFF78FFE0DEB1C
:102CB000080203A918EE100AADF80CA0ADF81070C8
:102CC0000AF045F918EE101A3046C4F8C05407F05F
:102CD00078FA18EE900A4C225421FFF777FE0DEB9C
:102CE000080203A918EE900AADF80C90ADF8108018
:102CF0000AF02DF918EE901A3046C4F8F45407F093
:102D000060FA19EE100A7E225421FFF75FFE0DEBE8
:102D1000080203A919EE100AADF80CA0ADF8107066
:102D20000AF015F919EE101A3046C4F8285507F0C4
:102D300048FA19EE900A4C228621FFF747FE0DEB68
:102D4000080203A919EE900AADF80C90ADF81080B6
:102D50000AF0FDF819EE901A3046C4F85C5507F0F9
:102D600030FA1AEE100A7E228621FFF72FFE0DEBB5
:102D7000080203A91AEE100AADF80CA0ADF8107005
:102D80000AF0E5F81AEE101A3046C4F8905507F02C
:102D900018FA1AEE900AB0225421FFF717FE0D23FD
:102DA0000DEB08021AEE900AADF80C300C230DEB77
:102DB0000301A4F8D035ADF810300AF0C8F81AEEC7
:102DC000901A3046C4F8C45507F0FBF91BEE100A00
:102DD000E22240F2B311FFF7F9FD13230DEB0802D5
:102DE00003A9ADF80C3012231BEE100AADF8103019
:102DF0000AF0ADF830461BEE101AC4F8FC5507F087
:102E0000E0F9204607B0BDEC088BBDE8F08F00BFAD
:102E1000CC270290B03A0290F83C0290183B029006
:102E2000CC390290B427029043290090FFF000FFB4
:102E300064200290F314019030B585B00368044615
:102E400001816D460146D3F884303C3428469847CA
:102E500095E8070084E8070005B030BD30B585B0BF
:102E60000368044641816D460146D3F884303C3402
:102E70002846984795E8070084E8070005B030BD6C
:102E80000022028042808280C280704780F8361023
:102E90007047036870B504461B6B15469847236856
:102EA000204629465B6EBDE87040184700207047F9
:102EB000806C704770477047704770477047704725
:102EC00030B444680346C2689B68551004EB620046
:102ED000D20748BF625930BC48BFD358184743682F
:102EE0002BB183682BB9C06800F001007047184609
:102EF00070470120704730B444680346C2689B683D
:102F0000551004EB6200D20748BF625930BC48BF7D
:102F1000D358184743682BB183682BB9C06800F0B9
:102F200001007047184670470120704710B50446ED
:102F30004C211CF05FFE204610BD10B50446102148
:102F40001CF058FE204610BD10B5044610211CF0A0
:102F500051FE204610BD10B504464FF447711CF0D9
:102F600049FE204610BD08B5FEF7DEF908BD00F1A8
:102F7000D0028A4202D10368DB6A1847704700001A
:102F8000036870B55E6B0446114B8DB21B682BB99C
:102F9000104B6C21104A11481DF0DAFB1049828D4C
:102FA0000988914203D80F4B6D210B4AF3E713F8C0
:102FB00012200D4B1B6853F8220003681B6B9847C7
:102FC000281A334601B22046BDE87040184700BFBA
:102FD000442A012014280290562802909128029039
:102FE000482A0120D82802904C2A01209C3088428F
:102FF00008B505D10CF090FCBDE80840FFF7E6BB32
:1030000008BD00224FF0FF318260C0E90021704707
:1030100038B504460D46262200211DF08CFD2046C1
:10302000FFF7E2FC064B2046294623602B88E38409
:10303000FF2384F828300AF0A8F8204638BD00BFE6
:10304000F83C02902DE9F04F044600254FF6FF773B
:10305000A14604F16C0B04F19C0A04F1D00604F5BE
:1030600027782DED028B8BB00EF05EF8AB4B26224D
:103070002946E56349F8403B48461DF05CFD48465B
:10308000FFF7B2FCA64B08A9A5662364FF235846A8
:10309000ADF8207084F86630FFF7BAFFA14B262206
:1030A0002946E3665046A4F89650A4F898501DF0BF
:1030B00042FD5046FFF798FC4FF00103C4F8C4509E
:1030C000304684F8C030984B84F8C850C4F89C301F
:1030D000A4F8CA70A4F8CC7084F8CE7009F0F2FDA0
:1030E00004F51C7308A9ADF82070184608EE103AD4
:1030F000FFF78EFF2946262240461DF01CFD404664
:10310000FFF772FC894B2A462946C4F8C4324FF4B3
:103110007F034846A4F8C872C4F8D032271D844BF8
:10312000C4F8CC52C4F89C324FF0FF33A4F8D45208
:10313000C4F8D852C4F8E452C4E9B7357D4BC4E9A9
:10314000BF347D4BC4E9C1357C4BC4E9C3347C4BEF
:10315000C4E9C5354FF4887300934FF4F073FFF75B
:1031600039F94FF07F4349463846A36607F029F8FE
:10317000042308A95846ADF8203009F0A9FB4FF404
:1031800088732A462946584600934FF4F073FFF798
:1031900021F92A462946584609F078FB594638460F
:1031A00007F00FF8E22240F2B3115046FFF70EFC91
:1031B000132308AA07A9ADF81C3012235046ADF816
:1031C000203009F0C4FE04F5437351463846C4F874
:1031D000C43006F0F6FF052308A93046ADF82030CC
:1031E00006F08CFADC231A22822130460093FFF786
:1031F000F1F86E223046114609F00FFE82226FF080
:103200008101304609F08EFE2B464FF47A72294632
:103210003046009506F01FF92946304609F02CFE8D
:103220004849304606F051F932230D220B21304631
:1032300009F0DEFD0121304609F07CFD0121304618
:1032400009F07BFD04F53F71304606F0BBFA3146CC
:10325000384606F0B6FFC622DB2118EE100AFFF74B
:10326000B5FB062308A918EE100AADF8203009F0C6
:103270008CFF18EE101A384606F0A3FF27239F2272
:10328000D221404600933C23FFF7A4F84FF07F4340
:10329000A4F8D05202ADC4F8CC324146D4F89C32E6
:1032A0002846D3F88430984704F5367395E807002C
:1032B00083E80700244B04F53A751B682BB9234BB0
:1032C0006021234A23481DF043FA234B1B88012B1E
:1032D00003D8224B61211E4AF4E7214B01211868D3
:1032E00000F032F91F4A03460A2128460FF084FDF8
:1032F0000E4B08A9404608930223C4F8E452ADF8E7
:10330000243009F069FA3846414606F05AFF204653
:103310000BB0BDEC028BBDE8F08F00BF1C2A029001
:10332000B03A0290183B0290843C029064200290D4
:103330005C290290EC2902906F2F0090042A0290E1
:10334000ED2F0090F3140190442A012014280290DC
:103350001629029091280290482A0120D82802902C
:10336000502A01204E2902907047000030B5164DBA
:103370008FB02C68BFF35B8F14F0010421D1284675
:103380001CF03AFCE8B1114B012211491148059497
:10339000CDE90B43104B0893104BCDE906430423B2
:1033A000CDE903321C230F220093CDE90944CDE976
:1033B0000144FFF75DFA0A481DF0E8F928461CF0C1
:1033C00027FC04480FB030BD981A0020842E0290CC
:1033D000EC0710909C1A00200047029010470290C2
:1033E0006933009000207047002070470EB403B589
:1033F00003AB002153F8042B01930DF019FA02B02E
:103400005DF804EB03B070470CB407B504AB53F898
:10341000042B01930DF00CFA03B05DF804EB02B03D
:1034200070470000436C10B5044673B3038F2BB98B
:10343000184BC521184A19481DF08AF9C38E00EBB4
:1034400043035B8C0BB30EF0D7FD238F012B03D806
:10345000134BCB21134AEEE7E28E40F63F10531C8C
:103460009BB2092B194688BFA3F10A0104EB410165
:10347000498C814209D10A2B04EB420228BF002368
:10348000508C04EB4303588451842046BDE810401F
:103490000EF0B4BCA42E0290AD2E0290582F0290D4
:1034A000A22F0290B02F02900EF071BC10B586B022
:1034B00002AC84E806001A460AAB21460593019344
:1034C000099B0093089B0BF0C9FD06B010BD0000DE
:1034D00038B518BB124B13481C681349B4B12268A5
:1034E00022440260626822440A60A26814440F4BBE
:1034F00000221A8000F038F8054600F033F80C4B33
:103500001C600C4B1D600C4B188007E00B4B0360DC
:103510000B4B0B600B4B1C68002CE8D138BD00BF77
:10352000C81A0020CC1A0020D01A0020D41A00207B
:10353000442A01204C2A0120482A0120D808109052
:10354000C0081090EC081090044B1B6853F8210041
:10355000034B1B6803EB4000704700BFD01A0020EC
:10356000CC1A00200620704700487047D81A002067
:1035700008B5FFF7FBFE014B186008BDD81A002004
:10358000704710B504464FF4AE711CF033FB204673
:1035900010BD10B50446D0F8580100F0DEF9204601
:1035A000BDE810400CF07CBA10B50446FFF7CEF829
:1035B000014B2046236010BD8C30029070470438C8
:1035C0007047704710B5044610211CF013FB2046CD
:1035D00010BDA0F10400F5E70022C1608260044A3A
:1035E00010B502F1080420320460426010BD00BF33
:1035F000D03002907047D0F828360133182BA8BF7E
:103600000023C0F82836D0F81C360133182BA8BF89
:103610000023C0F81C367047D0F82836013B48BF5D
:103620001723C0F82836D0F81C36013B48BF1723B3
:10363000C0F81C367047D0F8303601333B2B09DC1C
:10364000C0F83036D0F8243601333B2B18DCC0F8F4
:1036500024367047D0F82C2600230132C0F83036CB
:103660003B2A02DCC0F82C26ECE7D0F82826C0F86C
:103670002C360132172AD8BF1346C0F82836E1E7A6
:10368000D0F8202600230132C0F824363B2A02DC81
:10369000C0F820267047D0F81C26C0F8203601322A
:1036A000172AD8BF1346C0F81C367047D0F83036FA
:1036B000013B08D4C0F83036D0F82436013B16D48C
:1036C000C0F824367047D0F82C363B22013BC0F8B6
:1036D000302602D4C0F82C36EEE7D0F82836C0F8F1
:1036E0002C26013B48BF1723C0F82836E4E7D0F862
:1036F00020363B22013BC0F8242602D4C0F82036F5
:103700007047D0F81C36C0F82026013B48BF17236D
:10371000C0F81C3670470000034B10B50446036028
:10372000FFF7E2F8204610BDB431029010B5044610
:10373000FFF7F2FF40F23C6120461CF05BFA2046A6
:1037400010BDD0F82C3601333B2B09DCC0F82C36E9
:10375000D0F8203601333B2B0EDCC0F82036704702
:10376000D0F8282600230132C0F82C36172AD8BFFB
:103770001346C0F82836EBE7D0F81C2600230132A8
:10378000C0F82036172AD8BF1346C0F81C36704739
:10379000D0F82C36013B08D4C0F82C36D0F82036AF
:1037A000013B0DD4C0F8203670473B23C0F82C36BF
:1037B000D0F82836013B48BF1723C0F82836EDE77C
:1037C0003B23C0F82036D0F81C36013B48BF1723F6
:1037D000C0F81C367047000008B5054B1B682BB9B4
:1037E000044B8721044A05481CF0B2FF008808BD3D
:1037F0007C2A0120F8300290343102906731029027
:1038000038B5044600F2CA50FFF7E6FF054604F556
:10381000BA60FFF7E1FF2B1A58425841C4F834064A
:1038200038BD000010B50446FFF70CF9054B2046E3
:1038300023600023C4F81836C4F83436C4F8383688
:1038400010BD00BFB431029038B50446FFF74DF803
:1038500004F19C05284606F08BFCC4F8280628468F
:1038600006F09FFCC4F82C06284604F59A7506F06D
:103870009BFCC4F83006284606F07AFCC4F81C0607
:10388000284606F08EFCC4F82006284606F08CFC7C
:10389000C4F8240638BD70B50446D0F83006D4F814
:1038A0003436D4F82C16D4F82826B3B1D4F8183608
:1038B0003C25013393FBF5F6C4F8183605FB1633A7
:1038C0005BB901303B281EDCC4F83006D4F824363E
:1038D00001333B2B28DCC4F8243694F8303604F14D
:1038E0009C0094F82C2694F8281606F0F7FB94F820
:1038F000243694F8202604F59A7094F81C16BDE836
:10390000704006F0EBBB0131C4F830363B2902DCD5
:10391000C4F82C16DAE70132C4F82C36172AD8BFBF
:103920001346C4F82836D1E7D4F820260023013204
:10393000C4F824363B2A02DCC4F82026CDE7D4F8AC
:103940001C26C4F820360132172AD8BF1346C4F803
:103950001C36C2E700220260704770477047043887
:103960007047704710B5044610211CF043F92046FB
:1039700010BDA0F10400F5E70022C1608260044A96
:1039800010B502F1080420320460426010BD00BF8F
:10399000FC310290704703681B6B1847034B10B54E
:1039A00004460360FFF787FA204610BD30320290CC
:1039B00010B50446FFF7F2FF4FF4477120461CF0A4
:1039C00019F9204610BD000010B50446FFF73AFB78
:1039D000014B2046236010BD30320290FFF76CBAD5
:1039E000024B0022D030196805F083BD2818002052
:1039F00030B5054685B0D03005F06AFD044605F5C2
:103A00001C70952C17DC062303A9ADF80C3001902F
:103A100009F0BBFB01980DF036F823460F4A0A2146
:103A200005F53A700FF0E8F905F5277005B0BDE827
