:020000040800F2
:10000000B0080020F51E0008CD1E0008CF1E000815
:10001000D11E0008D31E0008D51E000800000000F5
:10002000000000000000000000000000D71E0008D3
:10003000D91E000800000000DB1E0008DD1E0008BD
:100040001D1F0008211F0008251F0008291F000888
:100050002D1F0008311F0008351F0008391F000838
:100060003D1F0008411F0008451F0008491F0008E8
:100070004D1F0008511F0008551F0008591F000898
:100080005D1F0008611F0008651F0008691F000848
:100090006D1F0008711F0008751F0008791F0008F8
:1000A0007D1F0008811F0008851F0008891F0008A8
:1000B0008D1F0008911F0008951F0008991F000858
:1000C0009D1F0008A11F0008A51F0008A91F000808
:1000D000AD1F0008B11F0008B51F0008B91F0008B8
:1000E000BD1F0008C11F0008C51F0008C91F000868
:1000F000CD1F0008D11F0008D51F0008D91F000818
:10010000DD1F0008E11F0008E51F0008E91F0008C7
:10011000ED1F0008F11F0008F51F0008F91F000877
:10012000FD1F000801200008052000080920000824
:100130000D200008112000081520000819200008D3
:100140001D20000821200008252000082920000883
:100150002D20000831200008352000083920000833
:100160003D200008412000084520000849200008E3
:100170004D20000851200008552000085920000893
:100180005D20000861200008652000086920000843
:100190006D200008712000087520000879200008F3
:1001A0007D200008812000088520000889200008A3
:1001B0008D20000891200008952000089920000853
:1001C0009D200008A12000087CB50400012600F055
:1001D000FBFB0500002C01D101205AE0206A4028D9
:1001E00094F84000012801D1022052E0012084F857
:1001F000400094F8410000280AD1002084F8400013
:10020000200000F0E0FB41F28831200000F0B4FA59
:100210002068006830F4F850A168491E50EA0120B7
:1002200021680860A06C00902B0000222021200093
:1002300000F0A4FA0100C9B2002926D121680A6899
:1002400014490A40616852EA0162E1680A43E169BF
:100250000A43216A0A4321680A6021684A680E49F4
:100260000A40216952EA014261690A43A1690A43CD
:1002700021684A602168096851F001012268116013
:1002800000216164012184F84110002184F84010AC
:10029000C0B276BD2FFFFF00FEF8E0FF10B50400EE
:1002A000002C01D101201AE094F84000012801D16E
:1002B000022014E0012084F8400020680068400813
:1002C000400021680860200000F084FB002060648A
:1002D000002084F84100002084F84000002010BD78
:1002E0002DE9F84304000D0016005FF0010800F04E
:1002F0006BFB0700A8690028E8690028286A002825
:1003000094F84000012801D102203DE0012084F84A
:10031000400094F8410001282FD1002060640220A1
:1003200084F8410000963B0000222021200000F0CC
:1003300025FA81464846C0B2002820D10022290073
:10034000200000F044FA686A002812D100963B00B1
:1003500001220221200000F011FA81464846C0B275
:1003600000280CD102202168C860012084F84100D7
:1003700005E0012084F8410001E05FF0020900205F
:1003800084F840004846C0B2BDE8F2832DE9F84346
:1003900005000C001600002700F016FB80462868B8
:1003A00010F1200995F84000012801D102205EE0FB
:1003B000012085F8400095F84100012850D1002027
:1003C0006864002C45D0122085F841002868006937
:1003D000401CE86228680069401CA8626C622868BA
:1003E000406930F0406029684861E86A002815D00B
:1003F0000096434601220421280000F0BFF90700BF
:100400003800C0B2002809D1686A411C69620078CE
:1004100089F80000E86A401EE862E6E73800C0B2EA
:10042000002812D10096434601220221280000F044
:10043000A5F907003800C0B2002806D102202968BB
:10044000C860280000F04CF90700012085F8410041
:1004500008E0686C50F0080068640120070001E0C3
:1004600002200700002085F840003800C0B2BDE837
:10047000F2832DE9FC4705000C001600002700F070
:10048000A3FA80462868D0F81890286810F1200A4E
:1004900095F84000012801D1022063E0012085F891
:1004A000400095F84100012855D100206864002CD7
:1004B0004AD0222085F8410028680069401CA863C2
:1004C00028680069401C68632C632868406930F024
:1004D000406050F08060296848612868C0F8189032
:1004E000A86B002815D0009643460122062128005B
:1004F00000F044F907003800C0B2002809D1286B89
:10050000411C29639AF800100170A86B401EA86373
:10051000E6E73800C0B2002812D100964346012217
:100520000221280000F02AF907003800C0B2002894
:1005300006D102202968C860280000F0D1F8070021
:10054000012085F8410008E0686C50F008006864FC
:100550000120070001E002200700002085F840008C
:100560003800C0B2BDE8F6872DE9FC4704000D0055
:1005700016001F005FF0010800F026FA8146A86906
:100580000028E8690028286A002894F8400001281B
:1005900001D102204CE0012084F8400094F8410091
:1005A00001283ED100206064422084F84100009779
:1005B0004B4600222021200000F0E0F88246504601
:1005C000C0B200282FD13068216888627068216825
:1005D0004862B0682168C8622068016831F440014F
:1005E0003069014351F4800120680160F068A8621D
:1005F0005FF000622900200000F0E9F800974B4608
:1006000001220821200000F0B9F882465046C0B20D
:10061000002808D108202168C860012084F8410022
:1006200001E05FF0020A002084F840005046C0B2AA
:10063000BDE8F6872DE9F84304000D0016005FF0D1
:10064000010800F0C1F90700A8690028E86900283E
:10065000286A002894F84000012801D102203DE0DA
:10066000012084F8400094F8410001282FD1002097
:100670006064822084F84100A06C00903B0000225E
:100680002021200000F07AF881464846C0B20028B8
:100690001FD12068016831F00801706801432068AB
:1006A0000160706808280BD1306821680863102049
:1006B0002168C8602068006850F4801021680860D4
:1006C0005FF040622900200000F081F801E05FF057
:1006D0000209002084F840004846C0B2BDE8F28319
:1006E0007CB50400002500F06FF9060094F8410085
:1006F00080073ED5002084F840002068006840074D
:1007000011D52068006830F0040021680860E06BB3
:1007100000F07EF905002800C0B2002803D0606C0C
:1007200050F0040060642068006850F00200216806
:100730000860A06C0090330001220221200000F02C
:100740001DF805002800C0B200280BD10220216846
:10075000C860A06C0090330000222021200000F02F
:100760000DF805002800C0B2002802D1012084F84D
:1007700041002800C0B276BD816470472DE9F04188
:1007800005000E0090461F00069C286880683042D5
:1007900001D0012000E000204146C0B2C9B2884229
:1007A00012D014F1010FF0D0002C04D000F00CF99D
:1007B000C01B8442E9D2042085F84100686C50F0E7
:1007C00001006864012000E00020BDE8F08110B461
:1007D0004B6A002B06D0B2F1406F03D08B6A5B1ED0
:1007E000046823618B69002B79D00B6A002B3ED003
:1007F0008B680468E361CB69002B20D0CC6A0B6B5B
:100800001C434B6B1C434B6A1C434B6954EA8344A7
:100810000B691C430B6A1C43CB681C43CB691C430C
:100820008B691C430B681C43144303685C61B2F181
:10083000406F00F0C6804B680468A361C1E0CC6AD9
:100840000B6B1C434B6B1C434B6A1C434B6954EAB8
:1008500083440B691C430B6A1C43CB691C438B69A3
:100860001C430B681C43144303685C61A9E0CB691B
:10087000002B1ED0CC6A0B6B1C434B6B1C434B6A8A
:100880001C434B6954EA83440B6A1C43CB681C43EA
:10089000CB691C438B691C430B681C4314430368DE
:1008A0005C61B2F1406F00F08C804B680468A3611A
:1008B00087E0CC6A0B6B1C434B6B1C434B6A1C439D
:1008C0004B6954EA83440B6A1C43CB691C438B6914
:1008D0001C430B681C43144303685C6171E00B6AA2
:1008E000002B39D08B680468E361CB69002B1DD0E5
:1008F000CC6A0B6B1C434B6B1C434B6A1C434B6910
:1009000054EA83440B691C430B6A1C43CB681C43A9
:10091000CB691C438B691C43144303685C61B2F1CF
:10092000406F4ED04B680468A3614AE0CC6A0B6B01
:100930001C434B6B1C434B6A1C434B6954EA834476
:100940000B691C430B6A1C43CB691C438B691C431A
:10095000144303685C6134E0CB69002B1BD0CC6A84
:100960000B6B1C434B6B1C434B6A1C434B6954EA97
:1009700083440B6A1C43CB681C43CB691C438B69C3
:100980001C43144303685C61B2F1406F19D04B689B
:100990000468A36115E04B6A002B12D0CC6A0B6B84
:1009A0001C434B6B1C434B6A1C434B6954EA834406
:1009B0000B6A1C43CB691C438B691C4314430368BB
:1009C0005C6110BC7047704701480068704700BF09
:1009D000AC000020704730B4002513E050F8042B21
:1009E000D30744BFA9F101039A18091F042942F84B
:1009F000045BFAD213468C0744BF15809B1CC907C1
:100A000048BF1D7050F8041B0029E7D130BC704767
:100A100070B50400A56DFFF7D7FF060094F8350008
:100A2000022806D080206065002084F83400012070
:100A30003BE02068006830F01600216808602068FC
:100A4000406930F0800021684861206C002802D1A4
:100A5000A06C002805D02068006830F008002168EC
:100A6000086020680068400840002168086020682D
:100A70000068C0070ED5FFF7A7FF801B0628F6D336
:100A800020206065002084F83400032084F83500BD
:100A900003200AE03F21E06D8140A960002084F836
:100AA0003400012084F83500002070BD2DE9FC41A0
:100AB00004000026002C01D10120D8E12078C007D5
:100AC0006DD5DFF89405016811F00C01042909D0F7
:100AD000006810F00C0008280ED1DFF880050068CF
:100AE000400209D5DFF86C050068800357D56068BF
:100AF000002854D10120BAE16068B0F5803F06D1EA
:100B0000DFF85005016851F48031016026E060682B
:100B100000280AD1DFF83C05016831F4803101601A
:100B2000016831F48021016018E06068B0F5A02F01
:100B30000AD1DFF82005016851F4802101600168C5
:100B400051F48031016009E0DFF80805016831F4F3
:100B500080310160016831F4802101606068002803
:100B60000ED0FFF731FF0500DFF8E80400688003CE
:100B700015D4FFF729FF401B6528F5D3032076E144
:100B8000FFF722FF0500DFF8CC040068800306D5DC
:100B9000FFF71AFF401B6528F5D3032067E1207893
:100BA000800752D5DFF8B004016811F00C0F09D0AE
:100BB000006810F00C00082816D1DFF8A0040068C7
:100BC000400211D4DFF88C040168890704D5E1687C
:100BD000012901D001204AE1016831F0F8012269C0
:100BE00051EAC201016030E0E06800281AD0DFF865
:100BF0006474386850F001003860FFF7E5FE0500C6
:100C00003868800706D4FFF7DFFE401B0328F7D3C0
:100C100003202CE1386830F0F800216950EAC10067
:100C2000386012E0DFF82C74386840084000386003
:100C3000FFF7CAFE05003868800706D5FFF7C4FE37
:100C4000401B0328F7D3032011E12078000728D5A3
:100C50006069002812D0DFF80874386850F001008D
:100C60003860FFF7B1FE05003868800719D4FFF738
:100C7000ABFE401B0328F7D30320F8E0DFF8E07356
:100C80003868400840003860FFF79EFE050038686D
:100C9000800706D5FFF798FE401B0328F7D30320F3
:100CA000E5E02078400740F18780DFF8C0733868BE
:100CB000C0000AD4386850F080503860386810F0AE
:100CC00080500090009801200600DFF8A483D8F837
:100CD0000000C00513D4D8F8000050F48070C8F8A4
:100CE0000000FFF771FE0500D8F80000C00506D42B
:100CF000FFF76AFE401B6528F6D30320B7E0A06823
:100D0000012806D1DFF86C03016851F00101016090
:100D100025E0A06800280AD1DFF8580301684908D7
:100D200049000160016831F00401016017E0A0682A
:100D300005280AD1DFF83C03016851F00401016085
:100D4000016851F00101016009E0DFF82803016842
:100D5000490849000160016831F004010160A068A0
:100D6000002810D0FFF730FE0500DFF80803006808
:100D7000800719D4FFF728FE401B41F289318842D1
:100D8000F3D3032073E0FFF71FFE0500DFF8E40252
:100D90000068800708D5FFF717FE401B41F2893134
:100DA0008842F3D3032062E03000C0B2012803D1AF
:100DB000386830F080503860A069002856D0DFF8DD
:100DC0009802006810F00C0008284DD0A069022895
:100DD00037D1DFF88072386830F080703860FFF704
:100DE000F3FD80463868800107D5FFF7EDFDB0EBD5
:100DF00008000328F6D3032039E0E169206A0143A3
:100E0000606A51EA8011A06A4008401E51EA004120
:100E1000E06A51EA006151F00051DFF840020160E0
:100E2000386850F080703860FFF7CEFD05003868F4
:100E300080011BD4FFF7C8FD401B0328F7D3032014
:100E400015E0DFF81072386830F080703860FFF716
:100E5000BBFD05003868800108D5FFF7B5FD401BD4
:100E60000328F7D3032002E0012000E00020BDE8C2
:100E7000F6812DE9F04104000D000026002C01D17F
:100E800001209FE0DFF8F071386810F00F00A842F1
:100E90000BD238680009000128433860386810F028
:100EA0000F00A84201D001208CE02078800719D5DE
:100EB0002078400705D5DFF8A001016851F4E05122
:100EC00001602078000705D5DFF88C01016851F436
:100ED00060410160DFF880110A6832F0F002A0681A
:100EE00002430A602078C00737D56068012806D120
:100EF000DFF860010068800311D4012062E06068BF
:100F0000022806D1DFF84C010068800107D40120D7
:100F100058E050480068800701D4012052E0DFF813
:100F20003881D8F800108908890060680143C8F842
:100F30000010FFF749FD0600D8F8000010F00C0083
:100F40006168B0EB810F08D0FFF73EFD801B41F2D6
:100F500089318842F0D3032034E0386810F00F0064
:100F600085420BD238680009000128433860386890
:100F700010F00F00A84201D0012023E020784007A4
:100F800006D535490A6832F4E052E06802430A6047
:100F90002078000707D53048016831F460412269A4
:100FA00051EAC201016000F00FF834492A4A126880
:100FB000C2F30312895CC8402B4908600F2000F07F
:100FC00061F80020BDE8F0812DE9F0410024002502
:100FD000002600272048006810F00C00002804D0EC
:100FE000042804D0082804D031E01E4830E024480A
:100FF0002EE0DFF86880D8F8000010F03F00040011
:10100000D8F8000040020CD5D8F80000C0F38810D2
:101010001B49A1FB00012200002300F059F8050044
:101020000BE0D8F80000C0F388100E49A1FB0001C6
:101030002200002300F04CF80500D8F80000C0F3AF
:101040000140401C40000600B5FBF6F000E00548FA
:10105000BDE8F08100380240083802400438024000
:10106000743802400024F40004000020403802409C
:101070000070004070380240003C0240E41E00084E
:1010800040787D0110B504004FF47A700D4909785D
:10109000B0FBF1F00C490968B1FBF0F000F0B0F9D9
:1010A000002801D001200CE0102C09D200222100E0
:1010B0005FF0FF3000F08FF904480460002000E08A
:1010C000012010BD080000200400002000000020C6
:1010D000BBBBE1B1B2F5803F80F07E80022A1ED911
:1010E0008C46B1FBF2F102FB11C31B0443EA10432F
:1010F000B3FBF2FC02FB1C3380B240EA0343B3FBB8
:10110000F2F002FB103240EA0C4000237047022A42
:1011100005D98446B0FBF2F002FB10C270474AB119
:1011200005D100F0010249085FEA30007047002253
:101130000023704700F078B90B0002000021002066
:101140007047904271EB030CF6D3B3F5803F2FD27A
:10115000F0B5B3FA83F7B1FA81F4A7F10F0E3D1B96
:101160005340CEF1200602FA0EF2F3415340B5F19E
:101170000F0746D80F3C2C444140C4F12006A04044
:10118000F1414140B1FBF3F603FB1611A2FB06450A
:10119000001BA94102D2761E8018594180EA010243
:1011A00021FA0EF362FA0EF200215A403046F0BDE9
:1011B00030B4B1FBF3FC03FB1C11A2FB0C45001B7C
:1011C000A94103D2ACF1010C8018594130BC024650
:1011D0000B46604600217047B2F1807F65D3F0B5C1
:1011E000B2FA82F7B1FA81F4C7F10F063D1B22FA79
:1011F00006F307F1110EF24120355A40B5F10F0701
:10120000B8D94140C4F12006A040F1414140B1FBB2
:10121000F3FC03FB1C11A2FB0C45001BA94103D2EC
:10122000BCF1010C801859410F2F12D30F3FC90395
:1012300041EA5041B1FBF3F603FB1611A2FB064550
:10124000D4EBC030A94102D2761E8018594146EA3B
:10125000CC3C07B34140C7F12006B840F1414140C2
:10126000B1FBF3F603FB1611A2FB0645001BA941D7
:1012700002D2761E8018594180EA010221FA0EF34B
:10128000C7F1200462FA0EF20CFA07F05A402CFA69
:1012900004F13043F0BD80EA010221FA0EF300218F
:1012A00062FA0EF260465A40F0BD8C46B1FBF2F194
:1012B00002FB11C31B0243EA1063B3FBF2FC02FB07
:1012C0001C331B024CEA002043EA1063B3FBF2FC20
:1012D00002FB1C331B024CEA002043EA1063B3FB01
:1012E000F2FC02FB1C331B024CEA002043EA1063B1
:1012F000B3FBF2FC02FB1C324CEA002000237047D7
:1013000010B410F00703DFF8044122684FF6FF0124
:101310000A40DFF8FC1051EA03210A43226010BCA6
:101320007047DFF8E8000068C0F30220704710B48F
:10133000020052B2002A05D40A01364B040064B2FE
:101340001A5508E00A01344B040064B214F00F048B
:10135000234403F8042C10BC704770B4030013F04E
:101360000704D4F10700052801D3042001E0D4F1DB
:101370000700251D072D01D2002500E0E51E0126EE
:1013800016FA00F0401E0140A94016FA05F56D1E40
:101390002A401143080070BC704710B50400601E5D
:1013A000B0F1807F01D301200EE0601E1B49086070
:1013B0000F215FF0FF30FFF7BAFF002018490860E7
:1013C000072018490860002010BD10B50400200057
:1013D000FFF796FF10BD2DE9F04104000D00160047
:1013E0000027FFF79EFF8046320029004046FFF7A6
:1013F000B4FF0100200040B2FFF799FFBDE8F08183
:1014000010B504002000FFF7C8FF10BD0CED00E090
:101410000000FA0500E400E018ED00E014E000E050
:1014200018E000E010E000E07047000010B5CC4C80
:10143000CC4820602000FEF731FF002801D00120B9
:1014400055E000F095F9C8480021C1610021016212
:1014500000214162002141610021C162002101633C
:10146000002141634FF40051C160C0480021016177
:101470000121C160102181605FF480014161012080
:1014800060600420A0601020E0608020B0FA80F04E
:10149000401E20614FF4A06060610020A061002028
:1014A000E061002020622000FEF78EFE002801D0BF
:1014B00001201CE0200000F01BF8002801D00120D2
:1014C00015E0200000F0ACF8002801D001200EE06B
:1014D000200000F04DF8002801D0012007E0200096
:1014E00000F028F8002801D0012000E0002010BD05
:1014F00070B504009C4D4FF48070A8616620286090
:101500000020686241F28836320029002000FEF790
:10151000E7FE002801D001200BE09920286032006E
:1015200029002000FEF7DCFE002801D0012000E0A9
:10153000002070BD1CB504008B494FF440708861D9
:10154000EB2008604FF44060C8615FF04070486273
:101550000A20486100200190002000906A46200087
:10156000FFF768F8002801D0012000E0002016BD38
:1015700030B58FB004004FF4807007908520019043
:1015800000200890002009905FF080700A900020F1
:10159000069001200B9000200C9000200D90002060
:1015A0000E9041F288352A0001A92000FEF798FE2E
:1015B000002801D0012031E02A0069462000FEF712
:1015C00058FF002801D0012028E0200000F09EF8FC
:1015D000002801D0012021E0812001909DF8001019
:1015E00011F00F010A225FF07060B0FA80F08240C3
:1015F00011438DF800102A0001A92000FEF770FEAB
:10160000002801D0012009E02A0069462000FEF7E9
:10161000BDFE002801D0012000E000200FB030BD49
:10162000F0B595B004004FF4807007900020099049
:101630000020069000200C9000200D9000200E90BD
:1016400010201190002013905FF48000149065200A
:101650000190002008905FF080750A9501200B90A2
:101660003F4E41F288373A0001A93000FEF738FEBC
:10167000002801D0012047E03A0069463000FEF71B
:10168000F8FE002801D001203EE006200190002055
:101690000A903A0001A93000FEF722FE002801D08E
:1016A000012031E002200F900220109001201290C2
:1016B000052001900A953B000FAA01A93000FEF712
:1016C00053FF002801D001201EE06120019001207D
:1016D0000B909DF8000010F03F0050F040008DF896
:1016E00000003A0001A93000FEF7FAFD002801D001
:1016F000012009E03A0069463000FEF747FE002865
:1017000001D0012000E0002015B0F0BD70B504004C
:10171000154D4FF44070A8610620286000206862D3
:1017200041F28836320029002000FEF7D9FD00285A
:1017300001D0012013E00D4A022010600220506009
:10174000052028605FF040706862330029002000A7
:10175000FEF70AFF002801D0012000E0002070BD44
:101760000C000020001000A0580000209000002075
:1017700010B586B03648016851F00201016000687A
:1017800010F00200059005983248016851F00201FE
:101790000160016831F0020101602F48016851F0D9
:1017A00002010160016811F00201059105990168CB
:1017B00051F008010160016811F0080105910599D7
:1017C000016851F010010160006810F010000590F0
:1017D0000598402000900A200490022001900120EA
:1017E0000290022003901D4C6946200000F03CF856
:1017F00004200090092004900020029069462000F7
:1018000000F032F84FF40060009009200490144C6E
:101810006946200000F028F84FF48050009009201D
:1018200004906946200000F01FF804200090092071
:10183000049069460B4800F017F84FF400500090F0
:10184000092004906946200000F00EF806B010BD93
:101850003838024018380240303802400004024054
:10186000000C0240001002402DE9F8410022002344
:10187000002400260025102D80F00B81012717FA87
:1018800005F213000A681A4014009C4240F0FF80E1
:101890004A68022A02D04A68122A1FD12A00D208B6
:1018A00000EB8202D2F820C05FF00F0E15F00702A5
:1018B000D2B292001EFA02FE3CEA0E0CD1F810E001
:1018C00015F00702D2B292001EFA02FE5EEA0C0C7C
:1018D00066462A00D20800EB82021662D0F800C0E9
:1018E0005FF0030E2A00D2B252001EFA02F23CEA66
:1018F000020C91F8048018F003082A00D2B25200BA
:1019000018FA02F858EA0C0CC0F800C04A68012A1C
:1019100008D04A68022A05D04A68112A02D04A68CB
:10192000122A1BD186682A00D2B252001EFA02F295
:101930009643D1F80C802A00D2B2520018FA02F86D
:1019400058EA060686604268AF40BA434F68C7F35C
:101950000017AF403A439446C0F804C0C6682A0056
:10196000D2B252001EFA02FE36EA0E068F682A0034
:10197000D2B2520097403E43C6604A68D20040F15E
:101980008680DFF81421176857F4804717601268C3
:1019900012F480420092009ADFF800C12A009208F7
:1019A0005CF822705FF00F0E15F00302D2B29200C5
:1019B0001EFA02FE37EA0E07DFF8E420904201D15A
:1019C000002631E0DFF8DC20904201D101262BE037
:1019D000DFF8D420904201D1022625E0DFF8CC20A8
:1019E000904201D103261FE0DFF8C420904201D1CC
:1019F000042619E02F4A904201D1052614E02E4A10
:101A0000904201D106260FE02C4A904201D10726D0
:101A10000AE02B4A904201D1082605E0294A90426B
:101A200001D1092600E00A26F6B215F00302D2B26F
:101A30009200964037432A0092084CF82270224EBA
:101A40003268A243D1F804C05FEACC3C00D52243FF
:101A500032601E4F3E68A643D1F804C05FEA8C3C5A
:101A600000D526433E601A4F3A68A243D1F804C01D
:101A70005FEACC2C00D522433A60164F3E68A6435D
:101A8000D1F804C05FEA8C2C00D526433E606D1C63
:101A9000F1E6BDE8F1810000443802400838014019
:101AA000000002400004024000080240000C024016
:101AB000001002400014024000180240001C0240C6
:101AC0000020024000240240003C0140043C014050
:101AD000083C01400C3C0140BFF34F8FBFF36F8FB8
:101AE000002049490860BFF34F8FBFF36F8F47480D
:101AF000016851F400310160BFF34F8FBFF36F8F66
:101B00007047BFF34F8FBFF36F8F4048016831F4C8
:101B10000031016000203C490860BFF34F8FBFF3E4
:101B20006F8F704710B4002039490860BFF34F8FA2
:101B300038480168C1F34E32C1F3C900030043F6CF
:101B4000E07010EA421050EA8370334C20601800B5
:101B5000431E0028F3D11000421E0028ECD1BFF331
:101B60004F8F2A48046854F480340460BFF34F8FC9
:101B7000BFF36F8F10BC704710B400202449086079
:101B8000BFF34F8F2148016831F480310160BFF30A
:101B90004F8F20480168C1F34E32C1F3C9000300E2
:101BA00043F6E07010EA421050EA83701B4C20604C
:101BB0001800431E0028F3D11000421E0028ECD16B
:101BC000BFF34F8FBFF36F8F10BC704780B500F02D
:101BD00072F800F07DF800F030F800F027F80028E7
:101BE00001D000F029F800F06CF800200C490860E2
:101BF0000C480D49096801605FF01041096881F3E4
:101C0000088800688047FEE750EF00E014ED00E030
:101C100084ED00E080ED00E060EF00E074EF00E0B4
:101C200010E000E0A80000200400009010B500249F
:101C3000FFF7FCFB204310BDFEE730B591B0002458
:101C4000012005905FF48030069002200B905FF435
:101C500080000C9019200D904FF4D8700E90022047
:101C60000F900820109005A8FEF720FF050028001F
:101C7000C0B2002800D0FEE700F03EF804002000CB
:101C8000C0B2002800D0FEE70F2000900220019093
:101C9000002002904FF4A05003904FF48050049025
:101CA00006216846FFF7E5F80100C9B2002900D017
:101CB000FEE711B030BD80B5FFF70EFFFFF732FF32
:101CC00001BD80B5FFF71DFFFFF756FF01BD000006
:101CD00080B50748016851F4807101600320FFF767
:101CE00074FB0F20FFF7CEF900F004F8002002BDCE
:101CF000003C0240704700007CB500241B4801688E
:101D000051F080510160006810F080500090009800
:101D1000154E306850F480303060FEF755FE0500F7
:101D2000104C2068C00308D4FEF74EFE401B40F262
:101D3000E9318842F4D3032013E0306850F40030D6
:101D40003060FEF741FE06002068800308D4FEF7ED
:101D50003BFE801B40F2E9318842F5D3032000E0CE
:101D6000002076BD04700040007000404038024002
:101D70000F48016851F4700101600E49086850F085
:101D80000100086000200C4A10600A680B480240FD
:101D90000A600B480B4A1060086830F48020086025
:101DA0000020094908605FF000600849086070473A
:101DB00088ED00E00038024008380240FFFFF6FEE0
:101DC00010300024043802400C38024008ED00E0D6
:101DD00030B450F8041B79B10268436802440830FB
:101DE000DC0744BFA9F10104E31852F8045B43F88F
:101DF000045B091FF9D1ECE730BC704710B5074907
:101E000079441831064C7C44163404E00A68081DF5
:101E1000114488470146A142F8D110BD2C000000B2
:101E20004C0000004EF68851CEF20001086840F4E4
:101E300070000860BFF34F8FBFF36F8F4FF00070DB
:101E4000E1EE100A704700008FEBFFFFA4000000D6
:101E50000C0000200000000079FFFFFF0C000000D4
:101E6000B0000000000000200000000000F00DF8AD
:101E7000002801D0FFF7C2FFAFF300800020AFF3CE
:101E80000080FFF7A3FE00F002F80120704700F089
:101E900001B800000746384600F002F8FBE70000F2
:101EA00080B5AFF30080024A11001820ABBEFBE7FB
:101EB0002600020003480168034A1278891801606D
:101EC000704700BFAC000020080000207047FEE70C
:101ED000FEE7FEE7FEE770477047704780B5FFF703
:101EE000E9FF01BD00000000000000000102030442
:101EF000060708090148804701480047711D00088E
:101F0000051F0008AFF30080FFF78CFFFFF7AEFF5F
:101F1000100000000024F40001000000FFF7FEBFE5
:101F2000FFF7FEBFFFF7FEBFFFF7FEBFFFF7FEBFE5
:101F3000FFF7FEBFFFF7FEBFFFF7FEBFFFF7FEBFD5
:101F4000FFF7FEBFFFF7FEBFFFF7FEBFFFF7FEBFC5
:101F5000FFF7FEBFFFF7FEBFFFF7FEBFFFF7FEBFB5
:101F6000FFF7FEBFFFF7FEBFFFF7FEBFFFF7FEBFA5
:101F7000FFF7FEBFFFF7FEBFFFF7FEBFFFF7FEBF95
:101F8000FFF7FEBFFFF7FEBFFFF7FEBFFFF7FEBF85
:101F9000FFF7FEBFFFF7FEBFFFF7FEBFFFF7FEBF75
:101FA000FFF7FEBFFFF7FEBFFFF7FEBFFFF7FEBF65
:101FB000FFF7FEBFFFF7FEBFFFF7FEBFFFF7FEBF55
:101FC000FFF7FEBFFFF7FEBFFFF7FEBFFFF7FEBF45
:101FD000FFF7FEBFFFF7FEBFFFF7FEBFFFF7FEBF35
:101FE000FFF7FEBFFFF7FEBFFFF7FEBFFFF7FEBF25
:101FF000FFF7FEBFFFF7FEBFFFF7FEBFFFF7FEBF15
:10200000FFF7FEBFFFF7FEBFFFF7FEBFFFF7FEBF04
:10201000FFF7FEBFFFF7FEBFFFF7FEBFFFF7FEBFF4
:10202000FFF7FEBFFFF7FEBFFFF7FEBFFFF7FEBFE4
:10203000FFF7FEBFFFF7FEBFFFF7FEBFFFF7FEBFD4
:10204000FFF7FEBFFFF7FEBFFFF7FEBFFFF7FEBFC4
:10205000FFF7FEBFFFF7FEBFFFF7FEBFFFF7FEBFB4
:10206000FFF7FEBFFFF7FEBFFFF7FEBFFFF7FEBFA4
:10207000FFF7FEBFFFF7FEBFFFF7FEBFFFF7FEBF94
:10208000FFF7FEBFFFF7FEBFFFF7FEBFFFF7FEBF84
:10209000FFF7FEBFFFF7FEBFFFF7FEBFFFF7FEBF74
:0420A000FFF7FEBF89
:0200000490006A
:100000000000052069950090913A0090933A009085
:10001000953A0090973A0090993A009000000000BD
:100020000000000000000000000000008189009036
:100030009B3A009000000000218A0090858A009081
:10004000B9950090B9950090B9950090B995009038
:10005000B9950090B9950090B9950090B995009028
:10006000B9950090B9950090B9950090B995009018
:10007000B9950090B9950090B9950090B995009008
:10008000B9950090B9950090B9950090B9950090F8
:10009000B9950090B9950090B9950090B9950090E8
:1000A000B9950090B9950090B9950090B9950090D8
:1000B000B9950090B9950090B9950090B9950090C8
:1000C000B9950090B9950090B9950090B9950090B8
:1000D000B9950090B9950090B9950090B9950090A8
:1000E000B9950090B9950090B9950090B995009098
:1000F000B9950090B9950090B9950090B995009088
:10010000B9950090B9950090B9950090B995009077
:10011000B9950090B99500909D3A0090B9950090DE
:10012000B9950090B9950090B9950090B995009057
:10013000B9950090B9950090B9950090B995009047
:10014000B9950090B9950090B9950090B995009037
:10015000B9950090B9950090B9950090B995009027
:10016000B9950090B9950090B9950090B995009017
:10017000B9950090B9950090B9950090B995009007
:10018000B9950090B9950090B9950090B9950090F7
:10019000B9950090B9950090B9950090B9950090E7
:1001A000A93A0090B9950090B53A0090B9950090A1
:1001B000B9950090B9950090B9950090B9950090C7
:0801C000B9950090B99500907B
:1001D00010B5054C237833B9044B13B10448AFF381
:1001E00000800123237010BD2401002000000000C6
:1001F000601E029008B5034B1BB103490348AFF3DF
:10020000008008BD0000000028010020601E029050
:1002100053B94AB9002908BF00281CBF4FF0FF316D
:100220004FF0FF3000F072B9ADF1080C6DE904CE6B
:1002300000F006F8DDF804E0DDE9022304B07047C1
:100240002DE9F047089E04468846002B4BD18A4290
:10025000154667D9B2FA82F24AB1C2F1200701FA13
:1002600002F320FA07F7954047EA030894404FEA63
:10027000154E230CB8FBFEF71FFA85FC0EFB178802
:1002800043EA084307FB0CF1994209D9EB1807F13F
:10029000FF3080F01B81994240F21881023F2B44CD
:1002A0005B1AA4B2B3FBFEF00EFB103344EA034426
:1002B00000FB0CFCA44509D92C1900F1FF3380F098
:1002C0000781A44540F2048102382C4440EA0740EB
:1002D000A4EB0C0400271EB1D4400023C6E9004360
:1002E0003946BDE8F0878B4209D9002E00F0EB803B
:1002F0000027C6E9000138463946BDE8F087B3FA61
:1003000083F7002F47D18B4202D3824200F2FA805A
:10031000841A61EB030301209846002EE0D0C6E961
:100320000048DDE702B9FFDEB2FA82F2002A40F0AF
:100330008F80491B4FEA154E1FFA85F80127B1FB44
:10034000FEFC230C0EFB1C1143EA014308FB0CF1DD
:10035000994207D9EB180CF1FF3002D2994200F212
:10036000CD808446591AA3B2B1FBFEF00EFB1014E7
:1003700043EA044408FB00F8A04507D92C1900F112
:10038000FF3302D2A04500F2B6801846A4EB080461
:1003900040EA0C409FE7C7F1200CBB4022FA0CFE5C
:1003A0004EEA030E01FA07F420FA0CF521FA0CF3D9
:1003B0004FEA1E482543B3FBF8F92C0C08FB193310
:1003C0001FFA8EFA44EA034309FB0AF49C4202FA3C
:1003D00007F200FA07F10BD91EEB030309F1FF3016
:1003E00080F087809C4240F28480A9F10209734426
:1003F0001B1BADB2B3FBF8F008FB103345EA034416
:1004000000FB0AFAA24508D91EEB040400F1FF33F1
:100410006BD2A24569D90238744440EA0940A0FB76
:100420000289A4EB0A044C45C2464B4654D351D032
:10043000002E69D0B1EB0A0564EB030404FA0CFC4E
:10044000FD40FC404CEA0505C6E90054002747E79B
:10045000C2F1200320FA03F7954001FA02F021FAD5
:1004600003F34FEA154E3843010CB3FBFEF71FFAB6
:1004700085F80EFB173341EA034107FB08F38B4273
:1004800004FA02F407D9691807F1FF3C2FD28B4216
:100490002DD9023F2944CB1A81B2B3FBFEF00EFBEB
:1004A000103341EA034100FB08F38B4207D9691876
:1004B00000F1FF3C17D28B4215D902382944C91AE2
:1004C00040EA07473BE73746304609E70746E7E695
:1004D0001846FBE64145ABD2B8EB020A69EB0E02C7
:1004E00001381346A4E76046E9E7184695E76746F2
:1004F000D1E781467CE702382C4447E7ACF1020C97
:100500002B442FE7384608E73746E9E6704700BF37
:1005100001F0FF01102A2BDB10F0070F08D010F8B4
:10052000013B013A8B422DD010F0070F42B3F6D1B8
:10053000F0B441EA012141EA014122F007047FF0D1
:1005400000070023F0E80256083C85EA010586EA28
:10055000010685FA47F5A3FA87F586FA47F6A5FA64
:1005600087F68EB9EED1F0BC01F0FF0102F0070270
:1005700032B110F8013B013A83EA010313B1F8D11B
:100580000020704701387047002D06BF35460338FC
:10059000073815F0010F07D1013015F4807F02BF35
:1005A000013015F4C03F0130F0BC0138704700BF86
:1005B000704704387047704710B5044610211FF08B
:1005C00093FD204610BDA0F10400F5E70022C160B4
:1005D0008260044A10B502F10804203204604260CF
:1005E00010BD00BFB81E0290704770477047D0F82A
:1005F00028360133172BC8BF0023C0F82836D0F89F
:100600001C360133172BC8BF0023C0F81C367047B7
:10061000D0F82836013B48BF1723C0F82836D0F859
:100620001C36013B48BF1723C0F81C36704700003A
:10063000034B10B50446036000F083FA204610BD5A
:10064000641F029010B50446FFF7F2FF4FF4C76134
:1006500020461FF049FD204610BDD0F8303601334A
:100660003B2B09DCC0F83036D0F8243601333B2B65
:1006700018DCC0F824367047D0F82C26002301324D
:10068000C0F830363B2A02DCC0F82C26ECE7D0F864
:100690002826C0F82C360132172AD8BF1346C0F8D6
:1006A0002836E1E7D0F8202600230132C0F82436AE
:1006B0003B2A02DCC0F820267047D0F81C26C0F880
:1006C00020360132172AD8BF1346C0F81C367047AF
:1006D000D0F83036013B08D4C0F83036D0F8243694
:1006E000013B16D4C0F824367047D0F82C363B2294
:1006F000013BC0F8302602D4C0F82C36EEE7D0F823
:100700002836C0F82C26013B48BF1723C0F82836EE
:10071000E4E7D0F820363B22013BC0F8242602D47F
:10072000C0F820367047D0F81C36C0F82026013BB0
:1007300048BF1723C0F81C367047D0F82C36013359
:100740003B2B09DCC0F82C36D0F8203601333B2B8C
:100750000EDCC0F820367047D0F82826002301327E
:10076000C0F82C36172AD8BF1346C0F82836EBE756
:10077000D0F81C2600230132C0F82036172AD8BF33
:100780001346C0F81C367047D0F82C36013B08D40D
:10079000C0F82C36D0F82036013B0DD4C0F82036F6
:1007A00070473B23C0F82C36D0F82836013B48BFB1
:1007B0001723C0F82836EDE73B23C0F82036D0F8E1
:1007C0001C36013B48BF1723C0F81C367047000099
:1007D00008B5054B1B682BB9044B8721044A054813
:1007E00020F068FB008808BD94270120E01E0290DD
:1007F000AC1F02901C1F029038B5044600F2CA508C
:10080000FFF7E6FF054604F5BA60FFF7E1FF854212
:100810000CBF01230023C4F8343638BD10B504469C
:1008200000F05CFA044B204623600023C4F818361D
:10083000C4F8343610BD00BF641F029038B50446BA
:1008400000F080F904F19C05284609F04DFDC4F83C
:100850002806284609F061FDC4F82C06284604F550
:100860009A7509F05DFDC4F83006284609F03CFD94
:10087000C4F81C06284609F050FDC4F82006284696
:1008800009F04EFDC4F8240638BD70B5D0F83436F2
:100890000446E3B1D4F818163C26D0F8305601319E
:1008A000D0F82C06D4F82826C4F8181691FBF6F3D5
:1008B00006FB131159B901353B2D1EDCC4F8305627
:1008C000D4F8243601333B2B28DCC4F8243694F8C2
:1008D000303604F19C0094F82C2694F8281609F080
:1008E000B9FC94F8243694F8202604F59A7094F80C
:1008F0001C16BDE8704009F0ADBC0130C4F83016DC
:100900003B2802DCC4F82C06DAE7531CC4F82C168A
:10091000172BC8BF0B46C4F82836D1E7D4F82026D9
:1009200000230132C4F824363B2A02DCC4F8202616
:10093000CDE7D4F81C26C4F820360132172AD8BFD8
:100940001346C4F81C36C2E7704704387047704736
:1009500010B5044610211FF0C7FB204610BDA0F1C2
:100960000400F5E70022C1608260044A10B502F17C
:10097000080420320460426010BD00BFE01F0290F6
:10098000704703681B6B1847034B10B504460360A0
:1009900000F0BDFB204610BD1420029010B50446A7
:1009A000FFF7F2FF4FF4477120461FF09DFB2046F2
:1009B00010BD000010B5044600F06CFC014B204651
:1009C000236010BD1420029000F0A2BB024B002255
:1009D000D030196808F085BE6418002073B506464B
:1009E000D03008F06DFE9528054606F51C7416DC1F
:1009F000062301A92046ADF804300CF04CFC20463B
:100A000010F0DDF82B460F4A0A2106F53A7012F075
:100A100093FA06F5277010F0D2F802B070BDB0F569
:100A2000FA7F01DA0723E4E740F29D23984201DCD4
:100A30000823DEE740F23D339842D4BF09230A235E
:100A4000D7E700BF0820029000220260704770477D
:100A5000704700F598730868496803C3704770478A
:100A600000F024BF10B504464FF4AE711FF03CFBFC
:100A7000204610BD10B50446D0F85801FFF7E7FF37
:100A80002046BDE810400FF0A7B810B50446D0F8D6
:100A9000400158B10368DB68984738B1D4F8400189
:100AA00003689B6898470023C4F8403110BD0000DC
:100AB00010B5044600F0C2FE014B2046236010BD75
:100AC0005020029090F8252012B103685B69184706
:100AD00070470020704781807047C1807047018156
:100AE0007047418170477047704770477047704743
:100AF000C388D21A8388C91A036812B209B210B423
:100B00005DF8044B5B6D18474FF6FF7383814FF020
:100B1000FF3303621368C36110607047704770470A
:100B2000704790F825201AB190F8242002B118607F
:100B300070477047704770477047704770477047FD
:100B4000704770477047704730B4C56803464468C3
:100B50006A10ED079B6804EB020048BFA25830BC46
:100B600048BFD358184743682BB183682BB9C06876
:100B700000F001007047184670470120704710B51B
:100B8000044608211FF0B0FA204610BD10B50446F7
:100B900010211FF0A9FA204610BD10B504464FF4ED
:100BA000C3611FF0A1FA204610BD00F264439942D0
:100BB00070B504460D4602D10368DB6A984704F518
:100BC00093639D4203D1236820461B6B984704F230
:100BD00034539D4203D1236820465B6B984704F54C
:100BE000AD639D4203D1236820469B6B984704F276
:100BF0009C539D4203D123682046DB6B984704F247
:100C0000D4539D4203D10EF023FF00F06FFE04F297
:100C1000CC439D4203D1236820461B6C984704F5C2
:100C2000A0639D4205D1236820465B6CBDE87040FF
:100C3000184770BD0A4A026000228280C280028189
:100C400042818281C28102824282C26102844284E4
:100C500080F82420C0E90522012280F82520704771
:100C60000044029070B50368044615461B6B984714
:100C70002368294620465B6BBDE87040184770B575
:100C800004461E46BDF91050FFF7ECFF23683146BD
:100C900020469A6B9047236829462046DB6BBDE8C7
:100CA0007040184710B504462622002120F077F93D
:100CB0002046FFF7BFFF00232046A36284F82C30B4
:100CC000012384F82430044B23604FF6FF73E3853F
:100CD000238684F8323010BDC44202902DE9F04FD3
:100CE00004468FB0002510F0BBFAA246DC4B262646
:100CF000E56329464AF8403B3246504620F04FF91A
:100D00005046FFF797FF04F16C09D64B4FF0FF08F0
:100D10004FF6FF7732462364294684F866804846BA
:100D2000A5660EAEADF8307020F039F9484604F1F2
:100D30009C0BFFF77FFFCC4B84F894804846E3661A
:100D400004F59A7836F8083D3146A4F892300CF054
:100D5000A2FAC64BA4F896505846E366A4F89850F9
:100D600008F016FF404609F009FA04F264431846F9
:100D70000293FFF797FF04F5936318460393FFF779
:100D800091FF04F2CC4318460493FFF78BFF04F560
:100D9000A06318460593FFF785FF04F23453184605
:100DA0000693FFF77FFF04F5AD6318460793FFF73F
:100DB00079FF04F29C5318460893FFF773FFAC4B7E
:100DC000A4F8D075271DC4F89C3504F2D4531846F6
:100DD0000993FFF767FFA74B2A46C4F81456C4F8D7
:100DE00008362946A44B5046C4F80C46C4F81036C1
:100DF0004FF4887300934FF4F073FFF740FF4FF008
:100E00007F4351463846A3664FF0110A09F095FA20
:100E1000042331464846ADF830300BF0DBFD4FF48B
:100E200088732A462946484600934FF4F073FFF72B
:100E300026FF2A46294648460BF0AAFD4946384671
:100E40004FF0030909F079FA1E232E225846009329
:100E500022219623FFF713FF5846884908F0D6FD54
:100E6000874B314658460C93ADF8349008F0E1FDBD
:100E70005846012108F0DAFE2B462A4684F8CB902A
:100E800058460C2109F0E6F9594638464FF00F0B49
:100E900009F053FA40460F22CA21FFF7E3FE7823F8
:100EA000294640461A4609F035F84946404664232B
:100EB00002224FF0100908F0E7FE57230A224046AD
:100EC000022108F0D5FE2946404608F095FF45234B
:100ED00009224046012108F0BFFE2946404608F09D
:100EE00071FF0A222B464046114604F5C16508F001
:100EF000D7FE644A40460A2108F039FF4146384689
:100F00004FF00E0809F019FA02984C222221FFF73F
:100F1000A9FE32460BA90298ADF82CA0ADF830908E
:100F20000CF09BF802993846C4F88C5409F005FA85
:100F300003987E222221FFF795FE32460BA90398E3
:100F4000ADF82CB0ADF830800CF087F80399384636
:100F5000C4F8C05409F0F1F904984C225421FFF769
:100F600081FE32460BA90498ADF82CA0ADF8309064
:100F70000CF073F804993846C4F8F45409F0DDF91C
:100F800005987E225421FFF76DFE32460BA9059885
:100F9000ADF82CB0ADF830800CF05FF8059938460C
:100FA000C4F8285509F0C9F906984C228621FFF7A4
:100FB00059FE32460BA90698ADF82CA0ADF830903A
:100FC0000CF04BF806993846C4F85C5509F0B5F9B1
:100FD00007987E228621FFF745FE32460BA9079827
:100FE000ADF82CB0ADF830800CF037F807993846E2
:100FF000C4F8905509F0A1F90898B0225421FFF7E0
:1010000031FE0D2332460BA9ADF82C300C23089885
:10101000A4F8D035ADF830300CF01FF808993846F8
:10102000C4F8C45509F089F90998E22240F2B311D5
:10103000FFF718FE132332460BA9ADF82C3012230C
:101040000998ADF830300CF008F83846C4F8FC5573
:10105000099909F072F920460FB0BDE8F08F00BF82
:10106000C4200290F0400290384302905841029010
:101070000C400290AC200290AB0B0090FFF000FF00
:101080009C2002902B16019030B585B00368044671
:1010900001816D460146D3F884303C342846984798
:1010A00095E8070084E8070005B030BD30B585B08D
:1010B0000368044641816D460146D3F884303C34D0
:1010C0002846984795E8070084E8070005B030BD3A
:1010D0000022028042808280C280704780F83610F1
:1010E000704770B50368044615461B6B9847236824
:1010F000294620465B6EBDE87040184700207047C7
:1011000008B5FFF7DFFC08BD806C7047704770477B
:10111000704770477047704730B4C56803464468ED
:101120006A10ED079B6804EB020048BFA25830BC70
:1011300048BFD358184743682BB183682BB9C068A0
:1011400000F001007047184670470120704730B426
:10115000C568034644686A10ED079B6804EB02000B
:1011600048BFA25830BC48BFD358184743682BB17A
:1011700083682BB9C06800F00100704718467047BB
:101180000120704710B504464C211EF0ADFF2046EB
:1011900010BD10B5044610211EF0A6FF204610BD5C
:1011A00010B5044610211EF09FFF204610BD10B55B
:1011B00004464FF447711EF097FF204610BD000013
:1011C00070B5036804468DB25E6B114B1B682BB97A
:1011D000104B6C21104A11481FF06CFE1049828D93
:1011E0000988914203D80F4B6D210B4AF3E713F89E
:1011F00012200D4B1B6853F8220003681B6B9847A5
:10120000291A3346204609B2BDE87040184700BF8E
:101210005C270120CF210290C82202901122029067
:1012200060270120522202906427012000F1D002A1
:101230008A4202D10368DB6A184770479C308842B3
:1012400008B505D10EF004FCBDE8084000F03EBB37
:1012500008BD00224FF0FF318260C0E900217047D5
:1012600038B504460D46262200211FF098FE204680
:10127000FFF7E0FC064B2046294623602B88E384D9
:10128000FF2384F828300CF006F8204638BD00BF54
:10129000384302902DE9F04F04468DB000250FF041
:1012A000DFFFA146B54B26222946E5634FF6FF78BE
:1012B00049F8403B48461FF072FE4846FFF7BAFC2B
:1012C000AF4B0CAF04F16C0B2364FF2327F8088DA0
:1012D000584684F866303946A56604F1D006FFF713
:1012E000BFFFA84B26222946E36604F19C03A4F81D
:1012F000965004F5277A1846A4F8985002931FF0E8
:101300004EFE0298FFF796FC4FF00103C4F8C4505C
:10131000304684F8C0309C4B84F8C850C4F89C30E8
:10132000A4F8CA80A4F8CC8084F8CE800BF04CFDE1
:1013300004F51C733946ADF8288018460393FFF76F
:101340008FFF2946262250461FF029FE5046FFF700
:1013500071FC8E4B2A462946C4F8C4324FF47F03F1
:10136000A4F8C8824846C4F8D032894BC4F8CC529D
:10137000C4F89C32874B84F8D452C4F8FC32864BB4
:1013800084F8D552C4F80433844BA4F8D852C4F876
:101390000C33834BA4F8DA52C4F814334FF4887337
:1013A000A4F8DC82A4F8DE8204F10408C4F8E05258
:1013B000C4F8E452C4F80853C4F8185300934FF427
:1013C000F073C4F80043C4F81043FFF758FC4FF023
:1013D0007F4349464046A36608F0AFFF04233946E1
:1013E0005846ADF828300BF0F5FA4FF488732A46CA
:1013F0002946584600934FF4F073FFF740FC2A4605
:10140000294658460BF0C4FA5946404608F095FF65
:10141000E22240F2B3110298FFF724FC13233A466C
:1014200009A9ADF8243012230298ADF828300BF04A
:1014300014FE04F5437302994046C4F8C43008F022
:101440007CFF052339463046ADF8283008F029FAEC
:10145000DC231A22822130460093FFF710FC6E2213
:10146000304611460BF05BFD82226FF08101304661
:101470000BF0DEFD2B464FF47A722946009530467C
:1014800008F0E1F8294630460BF078FD4549304632
:1014900008F013F932230D220B2130460BF02AFD00
:1014A000012130460BF0C8FC012130460BF0C7FC8F
:1014B00004F53F71304608F057FA3146404608F0CF
:1014C0003CFFC622DB210398FFF7CCFB06233946FD
:1014D0000398ADF828300BF0DEFE0399404608F083
:1014E0002CFF27239F22D221009350463C23FFF755
:1014F000C6FB4FF07F43A4F8D05204ADC4F8CC3201
:101500005146D4F89C322846D3F88430984704F5E5
:10151000367395E8070083E80700234B04F53A7516
:101520001B682BB9214B6021214A22481FF0C2FCC5
:10153000214B1B88012B03D8204B61211C4AF4E767
:101540001F4B0121186800F0EBFD1E4A03460A21DB
:10155000284611F0F1FC0D4B394650460A93022300
:10156000C4F8E452ADF82C300BF0B8F940465146BF
:1015700008F0E3FE20460DB0BDE8F08F98220290FF
:10158000F040029058410290C44202909C20029088
:1015900014210290A42102902D120090BC210290EF
:1015A0003D1200902B1601905C270120CF21029064
:1015B0000323029011220290602701205222029000
:1015C00068270120CC210290704770477047416026
:1015D000704710B50022B1F90840B1F90A10028035
:1015E00042808480C18010BD704770470123037220
:1015F000704770477047704770477047436800F105
:1016000010011A681846526E1047436800F1100125
:101610001A681846126E1047704710B4C468034623
:1016200041686210E4079B6801EB020048BF8A58DA
:101630005DF8044B48BFD358184743682BB1836803
:101640002BB9C06800F001007047184670470120B0
:10165000704710B504460C211EF046FD204610BD13
:1016600010B504464FF4AE711EF03EFD204610BD8D
:1016700010B5044610211EF037FD204610BD10B5F0
:10168000044638211EF030FD204610BD10B504463A
:1016900028211EF029FD204610BD10B5044640212A
:1016A0001EF022FD204610BD08B50EF0D1F9BDE8B0
:1016B00008400EF089BE70B5044690F8390001303C
:1016C00094F83830C0B2984284F8390005D9012323
:1016D0002372002384F8393070BDB4F93A20002118
:1016E0000FF070FF83B213F0010206D04FF6FF71C6
:1016F0000028D8BF0A46981800B2238AC01AA087CB
:1017000060680368DB69984705464DB1A98828469B
:10171000A38F19442B6809B21B6B9847AD69F4E796
:1017200060680368BDE870405B691847054B1B782B
:101730003BB143682BB11A6800F10C011846526E98
:10174000104770470327012070B5037A0546BBB9DF
:1017500040680368DB69984704464CB1A18820467D
:101760006B8FC91A236809B21B6B9847A469F4E709
:10177000686805F10C010368BDE870401B6E1847EE
:1017800070BD000013B50446807A0130637AC0B2A0
:101790009842A07205D9012323720023A37202B0DC
:1017A00010BDB4F90C2000210FF00CFF83B213F030
:1017B000010226D1E081174BE1891B8816485B1A8C
:1017C000228BB0F900009BB2ADF8060019B2606838
:1017D000D31A2183ADF800100021ADF80430ADF824
:1017E0000210694603681B699847A37A012BD6D17A
:1017F0000A4B1B78002BD2D00EF02AF90EF02EF9EE
:10180000CDE74FF6FF710028D8BF0A461344E381A5
:10181000D1E700BFF8260120FA2601200227012087
:1018200070B50368044615469B6B984723682946A4
:101830002046DB6BBDE8704018470000F8B5044651
:1018400017460E460EF03CFA144B0025C4F85861BA
:101850001C602946124B134E2360134B3068C4F8AA
:101860003C51C4F84051C4F84431C4F84851C4F85C
:101870004C51C4F85051C4F8547103689B689847A0
:10188000284600F013FC336893F876200AB1D86C30
:1018900000B9986816F0BFFB2046F8BD5827012014
:1018A000C423029004270120AC230290064BC0F809
:1018B0004801C0F84C310023C0F8503100F5A27344
:1018C000C0F84031704700BF4D1A0090064BC0F879
:1018D0004801C0F84C310023C0F8503100F5A27324
:1018E000C0F84031704700BF151C0090064BC0F88F
:1018F0004801C0F84C310023C0F8503100F5A27304
:10190000C0F84031704700BFD11D00902DE9F0476D
:10191000074690689946884603681546DDF820A07A
:101920001B6A9847B0F5C76F05D2424BA321424AC4
:1019300042481FF0BFFA686803681B6A98470F287F
:1019400003D83F4BA4213C4AF2E7E86803681B6ACE
:1019500098470B2803D83B4BA521374AE8E70EF000
:1019600077F804300EF0DAF8D9F8000010B1036807
:10197000DB689847D9F8000010B103681B689847E6
:10198000386810B103685B699847D8F8000010B157
:1019900003685B689847386810B103681B6898470C
:1019A000D8F8000010B103689B689847E8680021E8
:1019B00003685B6A9847044620B1002343600372C2
:1019C000214B0360A868002103685B6A98470646BC
:1019D00008B1FEF723FF6868002103685B6A984737
:1019E000054610B13146FEF7F1FDC9F80040C8F8D0
:1019F00000503E60E5B12B1DCAF800303046C5F8F6
:101A000008A03368F563DB6898472B6828461B6895
:101A10009847214630460FF0CFFD236820461B69CA
:101A20009847236820465B6998472846BDE8F087B9
:101A30002B46E1E774240290A82702900225029029
:101A400043250290E62502901024029007B5D0F8B5
:101A5000583100F59E710093044BD0F8542104488E
:101A6000FFF754FF03B05DF804FB00BF4C270120D3
:101A7000482701202DE9F84F074690689946884687
:101A800003689346DDF828A01B6A9847B0F5C76F36
:101A900005D2574BA321574A57481FF00BFADBF8E2
:101AA000040003681B6A98470F2803D8534BA421EE
:101AB000504AF1E7DBF80C0003681B6A98473728A7
:101AC00003D84F4BA5214B4AE6E70DF0C1FF043088
:101AD0000EF024F8D9F8000010B10368DB689847CD
:101AE000D9F8000010B103681B689847386810B136
:101AF00003685B699847D8F8000010B103685B6819
:101B00009847386810B103681B689847D8F80000F8
:101B100010B103689B689847DBF80C00002103684C
:101B20005B6A9847044648B3364B00252822036079
:101B3000142345602946437200F110030572857233
:101B4000C58118461FF02BFA0122A58284F83520A2
:101B50002D4AE58222612D4A2583B2F900102C4AD4
:101B60006583A583E583258465842586658684F859
:101B70003450A181B2F90020FFF752FEDBF80800D3
:101B8000002103685B6A9847064608B1FEF746FEE7
:101B9000DBF80400002103685B6A9847054610B132
:101BA0003146FEF713FDC9F80040C8F800503E600A
:101BB000E5B12B1DCAF800303046C5F808A03368DF
:101BC000F563DB6898472B6828461B6898472146D1
:101BD00030460FF0F1FC236820461B6998472368C4
:101BE00020465B6998472846BDE8F88F2B46E1E719
:101BF00074240290A62802900225029043250290A8
:101C0000E62502905824029044230290F8260120F1
:101C1000FA26012007B5D0F8583100F59E710093DF
:101C2000044BD0F854210448FFF724FF03B05DF8BB
:101C300004FB00BF4C270120482701202DE9F84F65
:101C40000746906899468846036815461B6A984778
:101C5000B0F5477F05D2554BA321554A55481FF093
:101C600029F9686803681B6A98470F2803D8524B04
:101C7000A4214F4AF2E7E86803681B6A98473F28A7
:101C800003D84E4BA5214A4AE8E70DF0E1FE0430A7
:101C90000DF044FFD9F8000010B10368DB689847E5
:101CA000D9F8000010B103681B689847386810B174
:101CB00003685B699847D8F8000010B103685B6857
:101CC0009847386810B103681B689847D8F8000037
:101CD00010B103689B689847E868002103685B6A55
:101CE00098470446B0B14FF0000B354B0646C0F89C
:101CF00004B080F808B046F80C3B30460AF0D2FC3D
:101D00001423A4F83CB023872E4B1B78002B37D12B
:101D100001232372A868002103685B6A984706467E
:101D200008B1FEF747FE6868002103685B6A9847C0
:101D3000054610B13146FEF715FEC9F80040C8F857
:101D400000503E60002D2FD02B1D0A9A30461360A4
:101D5000AA603368F563DB6898472B6828461B68E0
:101D60009847214630460FF027FC236820461B6920
:101D70009847236820465B6998472846BDE8F88F56
:101D8000DFF848A03046104ABAF90010B2F9002036
:101D9000C4F810B0FFF744FD30460AF0FFFBBAF874
:101DA00000305B426387B5E72B46CEE77424029090
:101DB000892602900225029043250290E625029092
:101DC0003424029003270120FA260120F82601205E
:101DD00007B5D0F8583100F59E710093044BD0F848
:101DE00054210448FFF72AFF03B05DF804FB00BF4D
:101DF0004C2701204827012013B5002249B102AB2E
:101E0000019203F8052D0268946801AAA04702B068
:101E100010BD0846FBE7C0897047008A7047C0883C
:101E2000704780887047807A00F07F007047807A22
:101E3000C0097047406A7047806A704770478B8856
:101E4000C069DB0A0A6850F823001044704710B5D7
:101E5000C2B1137BB3B1547BD27A240204F4E064A0
:101E60001443026A98B202EB840213888B4202D1B7
:101E700092F9020010BD05D80138043280B2002862
:101E8000F3D1F7E70020F5E710B504462C211EF04A
:101E90002BF9204610BD000030B58BB00446BDF8CC
:101EA00060500895BDF85C5007959DF85050069518
:101EB0009DF84C5005959DF8485004959DF8445068
:101EC00003959DF8405002959DF83C500195BDF852
:101ED000385000950EF020FF064B20462360159BDE
:101EE000E361169B2362199B63621A9BA3620BB08A
:101EF00030BD00BFC829029030B5174D8FB02C7887
:101F0000BFF35B8F14F0010423D128461EF0C3F801
:101F1000F8B1124B0122124905941248CDE90B4346
:101F2000114B0893114BCDE906430423CDE903324D
:101F30001C230F220093CDE90944CDE90144FFF7AA
:101F4000ABFF28461EF0B3F8094A0A4905481EF0BF
:101F5000C6F804480FB030BD40010020582E029052
:101F60000000109044010020A04D0290B04D02905E
:101F7000000000203D1E0090704708B519B900F020
:101F800013F8006808BD0020FCE710B504460421E2
:101F90001EF0AAF8204610BD004870478C2E029013
:101FA00014207047062070470048704770010020D9
:101FB00008B5FFF7A1FF014B186008BD70010020B4
:101FC00000207047002070470EB403B503AB00211A
:101FD00053F8042B01930EF0C7FC02B05DF804EB3C
:101FE00003B070470CB407B504AB53F8042B01934E
:101FF0000EF0BAFC03B05DF804EB02B070470000CD
:1020000010B5436C044673B3038F2BB9184BC5212D
:10201000184A19481EF04EFFC38E00EB43035B8C39
:102020000BB310F085F8238F012B03D8134BCB2172
:10203000134AEEE7E28E40F63F10531C9BB2092B89
:10204000194688BFA3F10A0104EB4101498C814282
:1020500009D10A2B04EB420228BF0023508C04EB69
:102060004303588451842046BDE810400FF062BFFE
:102070001C30029049310290253002906930029064
:10208000773002900FF01FBF10B586B002AC84E825
:1020900006001A460AAB214605930193099B00935B
:1020A000089B0DF077F806B010BD000038B5D8B920
:1020B000114B12481B681249BBB11A689C681A443C
:1020C0001C4402605A681A440A606CB10D4B00222D
:1020D0001A80FFF769FF0546FFF764FF0A4B1C6093
:1020E0000A4B1D600A4B188038BD0A4B03600A4B2F
:1020F0000B600A4B1C68E8E774010020780100209F
:102100007C010020800100205C2701206427012041
:1021100060270120E8081090C0081090E408109093
:10212000044B1B6853F82100034B1B6803EB400072
:10213000704700BF7C01002078010020012380F857
:10214000741080F87530704700207047416400318A
:10215000024B18BF01211970704700BF03270120EF
:1021600000207047836B0BB10846184770474FF645
:10217000FF707047406803689B69184780F8261015
:10218000704790F82600704710B50022B1F908405A
:10219000B1F90A10028042808480C18010BD002203
:1021A000028042808280C28070470000034B9022F0
:1021B00083F85A2383F85823704700BF00E100E0FA
:1021C000094A0A49D3680A48C3F30A03013B9BB290
:1021D0000B801169C1F30A01013901801364536B4B
:1021E00043F00103536370470068014086010020FB
:1021F00084010020014B986A704700BF8468014049
:10220000024B0122996243F8602C704784680140B8
:10221000144AF0B55369DB0323D50023C2F8843098
:10222000BFF34F8FD2F8803043F6E076C3F3C90492
:10223000C3F34E33A5075B0103EA060C284621468B
:102240004CEA0007013900F14040C2F874724F1C9B
:10225000F6D1203B13F1200FEED1BFF34F8FBFF328
:102260006F8FF0BD00ED00E010B531B90A4B40F2C0
:10227000D2210A4A0A481EF01DFEC0E90F120032A0
:10228000084918BF01220A7019460268BDE81040CB
:10229000D2F88C20104700BF5732029011330290C1
:1022A0008F3202900227012008B5094B1B888B4210
:1022B00003D8084B1B88934205D9074B9E21074A38
:1022C00007481EF0F7FD074B1980074B1A8008BD21
:1022D000F8260120FA260120F4310290CE32029035
:1022E0008F320290FE2601200027012070B504469F
:1022F00008F00DFB23685D6E0DF0AAFB0146204639
:10230000A84723682046054AD3F888504FF040413B
:102310000023AC46BDE87040604700BF00FC03C02E
:1023200008F0DCBA90F84B3013B1024B01221A705E
:1023300008F0E0BA8201002008F09ABA08F0F5BB74
:1023400010B5044609F028F823682046D3F8AC30CD
:10235000BDE81040184790F877301BB1406803681B
:102360001B6818471846704710B590F8744090F8ED
:1023700034100C4B8C421A7809D03AB90A490B4AEE
:1023800008881488108001220C801A7010BD002A61
:10239000FCD0064A0449148808880C80108000226A
:1023A000F3E700BFFC260120FA260120F8260120D1
:1023B000034B4FF080629A604FF080729A607047D2
:1023C00000E100E0084B4FF08062C3F88820BFF3C3
:1023D0004F8FBFF36F8F4FF08072C3F88820BFF329
:1023E0004F8FBFF36F8F704700E100E010B5144CC2
:1023F000236823B3134B144A1B6C11888B4213D1EF
:10240000124B198802F026F9226892F866300133DF
:1024100082F8663000F002FA206808F0BDFF002064
:10242000BDE8104000F084BC02F014F92068036895
:102430001B6A98470020BDE8104000F0A9BC10BD01
:10244000042701200068014086010020840100204B
:1024500003685B6C18470120704703689B6A184744
:102460000D4B82B01A6B42F400021A631A6B02F42D
:1024700000020192019A1A6942F400021A611A6973
:1024800022F400021A61054B054A1A614FF080627E
:10249000044B9A6002B0704700380240B82901200E
:1024A000B124009000E100E040F2EF3070470000FE
:1024B000024B1B68586803685B69184704270120B2
:1024C00008B50B280BD8DFE800F01206100A0A0A3C
:1024D0000A0808080808012008BD0520FCE7054B8C
:1024E0006621054A05481EF0E5FC0020F4E70220BD
:1024F000F2E700BF793302904A340290943302909D
:1025000008B50A2809D8DFE800F010060E08080808
:10251000080606060600012008BD054B8721054A6E
:1025200005481EF0C7FC0020F6E70220F4E700BFD4
:10253000793302909434029094330290F8B50C46AB
:10254000487FFFF7BDFF0546A77F3846FFF7B8FF76
:1025500006463846FFF7D4FFA38A628BD21A494B4E
:102560001A64A18A628B521A9A61A18A228B521A2A
:102570001A615863A18AE28A42EA01425A642269D6
:10258000DA636268DA602268402A70D010D8042AC0
:102590003BD0202A6BD0237F45EA0365394B45F4B5
:1025A0000035DD61617FA27F914267D0364A4BE002
:1025B000B2F5807F1BD0B2F5007F23D0802AEAD10C
:1025C000A068021DDA62227F45EA026545F4003503
:1025D000DD615E6222695A610278EAB1012A35D072
:1025E0002A4B40F211112A4A2A481EF063FC217F2F
:1025F000294A42EA0162DA61E2681A625E6222698D
:102600005A6120E0217F254AF3E7227F45EA0265EF
:1026100045F40035DD61F1E7D9694288501E21F4A7
:102620007F42012122F0100242EA0022DA61154BBA
:10263000DA6942F02002DA61DA699206FCD41022EB
:102640009A600029B2D0164A1A60F8BDDA6940884B
:1026500022F47F42217F013822F01002FF3942F03C
:10266000100218BF012142EA0022DA61DFE7237F6E
:1026700045EA0365034B45F40035CBE740F2012200
:10268000E2E700BF00B00240010201005F330290A8
:102690000C340290943302900A00020009000200F8
:1026A0000102020010B5887F0C46FFF729FF1C4B82
:1026B0005863A18AE28A42EA01425A642269DA63D3
:1026C000628BA18A521A1A642268082A16D1A18A3A
:1026D000628B521A9A61A18A628B521A1A615862ED
:1026E000104A217F42EA0162DA61E2681A622269D5
:1026F0005A612269DA600C4A1A6010BD0022D86162
:102700001A61E1680A0A4809C1F3C40102F4784277
:1027100000F4FC6002430A439A63044AECE700BFFA
:1027200000B00240090001000102020001020300A2
:10273000054B4FF080620360044BC3F88820BFF361
:102740004F8FBFF36F8F7047C433029000E100E0FA
:1027500010B50446FFF7ECFF4FF45A6120461DF018
:10276000C3FC204610BD000070B505460A4B0C3076
:1027700000262C46602268602E726E7244F8203B60
:10278000214608F077FF05F55A63E6602434A3423A
:10279000FBD1284670BD00BFC43302900121002246
:1027A00008B5084605F0FAFD0A4B186028B90A4B2F
:1027B00028210A4A0A481EF07DFB0022042101203C
:1027C00005F0B6FE074B186018B9074B2C21034AD9
:1027D000F0E708BD8C010020DF34029093350290B1
:1027E000283502908801002051350290024B4FF0AD
:1027F000FF31186805F028BE8C010020014B1868D5
:1028000005F05EBE8C010020024B0021186805F027
:102810001BBE00BF8C010020FFF7F0BF0023034860
:1028200003491A46006805F0C9BE00BF88010020B0
:102830000400002013B50023074C01A91A462068A4
:1028400005F0FEFE4FF0FF33002201A9206805F0DD
:10285000F7FE02B010BD00BF88010020704770472E
:102860007047012070474020704700EB811008300E
:10287000704700EB811008307047012070474FF41B
:10288000C76070474FF4C76303FB0100083070470F
:102890004FF4C76303FB0100083070470120704705
:1028A0001020704700EB01100830704700EB01105A
:1028B000083070470846FEF7F9BF0000034B10B51B
:1028C0000446036006F09CFE204610BD343602909C
:1028D00010B50446FFF7F2FF482120461DF004FC26
:1028E000204610BD034B10B50446036006F088FE79
:1028F000204610BD0036029010B50446FFF7F2FFE7
:102900004FF4C86120461DF0EFFB204610BD0000CB
:10291000034B10B50446036006F072FE204610BD5E
:10292000CC35029010B50446FFF7F2FF182120467F
:102930001DF0DAFB204610BD084B10B504460360BD
:1029400000F26C60FFF7BAFF04F12C00FFF7CAFF3A
:1029500004F11400FFF7DCFF204610BD683602903A
:1029600010B50446FFF7E8FF40F6140120461DF0BD
:10297000BBFB204610BD00002DE9F341FFF70CFB27
:1029800000240546FFF70CFB234601462246284655
:10299000009410F077FB274B274A2046274D1A60FA
:1029A000FFF784FB264810F0D5FA2B78BFF35B8F36
:1029B000DB0738D428461DF06EFB002833D0214CAD
:1029C000214B04F5D76604F1140004F12C0804F23D
:1029D0006C676060C4F80880E7602661236006F0D9
:1029E00011FE1A4B4046636106F00CFE184B384648
:1029F000E36206F007FE174B04F2B460C4F86C36CD
:102A0000FEF722F8224604F2B4613046FEF750F891
:102A10003046FEF74BFF28461DF049FB0E4A0F4992
:102A200020461DF05CFB0E4802B0BDE8F04100F00E
:102A3000D7B800BF68270120C817002090010020E8
:102A4000080000209401002068360290CC350290E6
:102A500000360290343602900000002039290090A0
:102A60004C17002070470000014800F0DBB800BFA1
:102A70004C17002010B5044604211DF035FB2046FC
:102A800010BD10B5044678211DF02EFB204610BD68
:102A900010B504467C211DF027FB204610BD000028
:102AA000F8B53A4C3A4D3B4B22463B4F28463B4902
:102AB0002B601DF014FB3A4E3846FFF755FE2246B8
:102AC000384938461DF00BFB304613F0BDFC22465A
:102AD000354930461DF003FB2246344934481DF089
:102AE000FEFA3448002301223349C560038580F88B
:102AF0002A30C362038680F8483080F8492080F885
:102B00004A3080F84B30416680F8683080F8693090
:102B100080F86A3080F86B302849C0E90176C0E956
:102B20000433C0E90633C0E90833C0E90E33C0E915
:102B30001033C0E91333C0E91533C0E9173380F807
:102B40006C3080F8772080F878201D4A0367106089
:102B50004FF4F07280F874300A801A4980F87530AA
:102B60000A804FF48872184980F876300A80174935
:102B700080F834300A80164A164913702246164BE4
:102B80000360BDE8F8401DF0AABA00BF00000020B5
:102B9000A8090020A0370290AC0900205D28009011
:102BA000CC170020312700905F280090791F0090FB
:102BB000080000204C17002001000001F826012029
:102BC00004270120FE260120FA26012000270120EB
:102BD000FC260120612800907C360290704700009E
:102BE00038B5044600F03EF92046FFF77FFB236826
:102BF000094A4FF04041D3F888502046074BA84778
:102C00000023074D84F84A30284600F071F901236B
:102C1000256184F86C3038BD00FC03C000F807C0A3
:102C20004418002008B503680446D3F8803098475C
:102C3000236820469B6F9847FFF7FCFD23682046DA
:102C40001B6F98474FF48051064803F00CFA082197
:102C5000054803F008FAFFF7EDFD236820461B6FD7
:102C60009847F8E70020024000280240FFF7C2BA68
:102C7000FFF7C6BAF8B5FFF75FFB134A0023C2F8A7
:102C80008430BFF34F8FD2F8803043F6E076C3F341
:102C9000C904C3F34E33A5075B0103EA060C2846BB
:102CA00021464CEA0007013900F14040C2F8747235
:102CB0004F1CF6D1203B13F1200FEED1BFF34F8F05
:102CC000BFF36F8FF8BD00BF00ED00E0FFF76EBAF5
:102CD000FFF76EBBFFF776BBFFF772BA07F0C2BD16
:102CE00008B5054B01461B6800B10121184608F0E4
:102CF0006DFB012008BD00BF0427012010B504466C
:102D00000C211DF0F1F9204610BD000004480023FD
:102D1000044A43608360044B044903601DF0DFB93B
:102D20004418002000000020E4370290DD2B0090C2
:102D3000032823D8DFE800F0020B131A104B1021F0
:102D400010481A68B2FA82F2520903F087B90C4BA4
:102D500040215A68B2FA82F252090B48F5E7084B53
:102D600080219A68B2FA82F25209F6E7044B4021B8
:102D70000648DA68B2FA82F25209E6E7704700BF05
:102D800050180020000402400008024000180240D1
:102D9000032823D8DFE800F0020B131A104B102190
:102DA00010481A68003218BF012203F057B90C4BC3
:102DB00040215A68003218BF01220B48F5E7084B42
:102DC00080219A68003218BF0122F6E7044B4021A7
:102DD0000648DA68003218BF0122E6E7704700BFF4
:102DE0005018002000040240000802400018024071
:102DF00003280FD8DFE800F00206090B102106486F
:102E000003F031B940210548FAE78021FBE7402172
:102E10000348F5E7704700BF000402400008024085
:102E20000018024008B5032813D8DFE800F0020AB2
:102E30000D0F1021084803F00BF9431E584258416A
:102E400008BD40210548F6E78021FBE74021044802
:102E5000F1E70020F1E700BF000402400008024053
:102E60000018024070B50024074D0126E0B2FFF7BC
:102E7000D9FF28B155F82430012B18BF45F824603C
:102E80000134052CF2D170BD5018002030B58DB042
:102E90000D46144600212C2201A81EF080F801A83E
:102EA00006F088F99DF8040030B1BDF80630012025
:102EB0002B60BDF8103023600DB030BD08B54FF465
:102EC00088714FF4F07006F01DF928B1034B2021F2
:102ED000034A04481DF0EEFF08BD00BF4C370290C6
:102EE000B03702906D37029040687047416070477C
:102EF000094A136843F080731360A2F54E42074BF2
:102F00004C3A11680B431360A2F57B62136843F0DF
:102F100001031360704700BFFCED00E055CEACC567
:102F2000521A02EB5302B2FBF3F07047014B1868E0
:102F3000704700BF041000E010B5036804461B6929
:102F400031B19847A26863689B1A1844606010BD4D
:102F50009847A060FBE7000014490020D1F88830B2
:102F600043F47003C1F88830114B1A6842F0010233
:102F70001A6098601A6822F0847222F480321A6013
:102F80000C4A5A601A6822F480221A60D8609A6B40
:102F900042F001029A634FF02042136823F00103CC
:102FA00013604FF010438B60704700BF00ED00E0EE
:102FB0000038024010300024F8B500240A4D0B4FB1
:102FC0000B4E284603F010F9284603F08BF9322304
:102FD000386003FB0404332094FBF0F46420346075
:102FE00005F0C2F9EDE700BFE428012060180020D9
:102FF0006418002010B51446642392B2024802F00F
:10300000E6FB204610BD00BF3029012010B594B06A
:1030100030220021022408A81DF0C1FF1422002143
:1030200003A81DF0BCFF1F4B012119201A6C42F0B0
:1030300080521A641B6C03F080530193019B1A4B5E
:103040001A6842F440421A601B6803F4404302933A
:10305000029B4FF48033CDE908134FF48003CDE990
:103060000E434FF4D873CDE9100308A8CDE91244FC
:1030700001F0AEFB00B1FEE701F00CFB00B1FEE792
:103080000F234FF4A0520590072103A8CDE9033484
:103090004FF48053CDE9062301F07CFD00B1FEE73B
:1030A00014B010BD00380240007000402DE9804887
:1030B00099B0BFF34F8FBFF36F8FB64B0021C3F8AA
:1030C0005012BFF34F8FBFF36F8F5A6942F4003233
:1030D0005A61BFF34F8FBFF36F8FC3F88410BFF3F4
:1030E0004F8FD3F8802043F6E076C2F3C904C2F3D1
:1030F0004E32A507520102EA060C2846214640EA54
:103100000C07013900F14040C3F860724F1CF6D142
:10311000203A12F1200FEED1BFF34F8F5A6942F4DB
:1031200080325A61BFF34F8FBFF36F8F102500F0CD
:10313000C7FC00210BA82A4601261DF030FF002401
:1031400002F01AFD4FF0005E934B0BA84FF01C0AE3
:10315000ADF82C6003274FF0020940F201184FF040
:10316000400BCDE90CE38D4B0E9302F027FD4FF0A1
:1031700040430BA88DF834A00C938DF82D608DF88A
:103180003740ADF83A4002F019FD16230BA8ADF810
:103190003A808DF834308DF82D908DF8377002F02C
:1031A0000DFD4FF010430BA88DF834A04FF0040A2A
:1031B0000C938DF82D708DF83740ADF83A4002F041
:1031C000FDFC17230BA8ADF83A804FF005088DF8E9
:1031D00034308DF82DA08DF8377002F0EFFC1323FA
:1031E0000BA88DF82D808DF834308DF8384002F022
:1031F000E5FC504602F0D0FCFFF708FF1422214600
:103200000BA81DF0CCFE664B294666481A6B2A4374
:103210001A631A6B2A400092009A1A6B42EA09025A
:103220001A631A6B02EA09020192019A1A6B42F0C0
:1032300040021A631A6B02F040020292029A1A6B61
:1032400042F400721A631A6B02F400720392039A3A
:103250001A6B42F008021A631A6B02F00802049219
:10326000049A1A6B42F480621A631A6B02F4806249
:103270000592059A1A6B42F020021A631A6B02F04B
:1032800020020692069A1A6B42F480721A631A6B35
:1032900002F480720792079A1A6B32431A631A6B10
:1032A00032400892089A1A6B42F080021A631A6B35
:1032B00002F080020992099A1A6B42EA0A021A6322
:1032C00022461B6B03EA0A030A930A9B02F0C6FE1E
:1032D00022460821344802F0C1FE22464FF48051B4
:1032E000324802F0BBFE2246C021314802F0B6FE51
:1032F000224640212F4802F0B1FE0BA92948CDE912
:103300000B56CDE90D4702F021FD08230BA92648F5
:10331000CDE90B36CDE90D4402F018FD4FF4805392
:103320000BA92248CDE90B36CDE90D4402F00EFD84
:10333000C0230BA91E48CDE90B36CDE90D4702F09D
:1033400005FD1C480BA9CDE90BB6CDE90D4702F0F0
:10335000FDFC1948194B848003600662C0E90544EE
:1033600000F092FF00B1FEE7154C164BC4E90200D5
:10337000C4E90030C4E90A00C4E90C00204600F0AA
:10338000D5FB00B1FEE73146204600F08FFCD8B1F6
:10339000FEE700BF00ED00E01200000301000101A4
:1033A0000038024000040240002802400020024091
:1033B0000008024000180240182801200030024096
:1033C000B829012000B002405D4B0BA95D4A98620C
:1033D0001195C3E900208022C3E9020AC3E906204F
:1033E000C3E908001846C3E9045BCDE90B55CDE9F4
:1033F0000D55CDE90F5501F085F900B1FEE705F057
:1034000069FE05F019FE054600B1FEE734220146CB
:103410000BA84D4C1DF0C3FD4C4B2820352640F227
:10342000152740F2352C2561A58684F83650C4E96D
:1034300000350923C4E905030B232046C4E90763CB
:1034400040F21B13C4E9097340F21D13C4E902558D
:10345000C4E90BC300F0F8FF024600B1FEE74FF4E9
:10346000F0710B904FF48873ADF85C208DF85E20FE
:103470001693CDE90C10FF20CDE910024FF48060C7
:10348000CDE91421CDE912080BA92046CDE90E396A
:1034900001F0B7F800B1FEE72D4B4FF4E1322D49B2
:1034A00018615862C3E900120C22C3E90200C3E9A3
:1034B0000520C3E90700184602F0FCF900B1FEE759
:1034C000102200210BA8244C1DF069FD234A4FF463
:1034D000803301252046E5616561C4E900230023AE
:1034E0001F4AA3602361A36184F82030E362A262D3
:1034F000E36084F8303002F0BFFD00B1FEE7CDE9B3
:103500000B050D900BA9204602F0F0FE044600B119
:10351000FEE703F077F903F074F904F095FE114A21
:103520002146114804F0CAFE104B114A214618608A
:10353000104804F0C3FE104B186004F09FFEFEE735
:10354000F8290120400100A03C280120006801402A
:103550003029012000100140E42801200020014012
:103560000100000F40380290B92F0090142801206C
:103570001C380290136800902C2901200268034B2C
:103580009A4201D100F0AEBA704700BF001000406F
:10359000FEE70000214B70B51A6C88B0064642F079
:1035A000100201A903A81A641B6C03F01003029314
:1035B000029B01F0B1FB069B4BBB01F08DFB184C4D
:1035C000184B236040F2E733E360174BB0FBF3F096
:1035D00001380023606020462361A360A36103F0EB
:1035E000BDF8054680B9204602F05AFF054658B995
:1035F000362002F09FFA0F2E0DD82A46314636208B
:1036000002F066FA094B1E60284608B070BD01F052
:1036100063FB4000D3E70125F6E700BF0038024016
:103620002C2A01200010004040420F00140000200E
:103630000D4B82B00F216FF001001A6C42F08052E6
:103640001A641A6C02F080520092009A5A6C42F48A
:1036500080425A6400225B6C03F480430193019B17
:1036600002B002F035BA00BF0038024010B588B091
:1036700004461422002103A81DF091FC2268104B7F
:103680009A421BD103F58C3303A90E485A6C42F4BD
:1036900080725A645A6C02F480720192019A1A6B19
:1036A00042F001021A6301221B6B03F00103029333
:1036B000029B0323CDE9032302F048FB08B010BDB1
:1036C0000020014000000240026882B0084B9A428C
:1036D0000BD1D3F8302803F5006342F480521A630B
:1036E0001B6B03F480530193019B02B0704700BF32
:1036F0000030024007B50E4B02689A4215D1A3F57F
:10370000F04305215A201A6B42F400021A6300228A
:103710001B6B03F400030193019B02F0D9F95A20BB
:1037200003B05DF804EB02F005BA03B05DF804FBEA
:1037300000B0024070B5ACB004461422002106A8C7
:103740001DF02DFC842200210BA81DF028FC22680E
:10375000464B9A4240F08880082305200B9364234F
:1037600010930223CDE9113001230BA8159300F02B
:10377000E7FA08B1FFF70CFF3D4B022400250E26A7
:103780005A6C06A93B4842F080625A645A6C02F0B7
:1037900080620092009A1A6B42F010021A631A6B50
:1037A00002F010020192019A1A6B42F400721A633D
:1037B0001A6B02F400720292029A1A6B42F480624F
:1037C0001A631A6B02F480620392039A1A6B42F036
:1037D00040021A631A6B02F040020492049A1A6BB8
:1037E00042F480721A631B6B03F480730593059B8C
:1037F0001023CDE90634CDE908540A9602F0A6FA62
:103800004EF6FF7306A91C480A96CDE90634CDE9A9
:10381000085402F09BFAF72306A918480A96CDE946
:103820000634CDE9085402F091FA4FF4805306A90A
:103830001348CDE906340923CDE908540A9302F070
:1038400085FA4FF4464306A90E480A96CDE9063498
:10385000CDE9085402F07AFA58202A46052102F0F0
:1038600037F9582002F066F92CB070BD00680140AD
:1038700000380240001002400024024000280240AC
:103880000018024000200240F0B5ABB004461422FC
:10389000002104A81DF083FB8422002109A81DF04B
:1038A0007EFB2268204B9A423CD1402309A8099311
:1038B00000F046FA08B1FFF76BFE1C4B022700260A
:1038C00003255A6C072404A9194842F010025A64CF
:1038D0005A6C02F010020192019A1A6B42F0020235
:1038E0001A631A6B02F002020292029A1A6B42F0F9
:1038F00001021A631B6B089403F001030393039BFB
:103900008023CDE90665CDE9043702F01FFA4FF4B4
:10391000007304A907480894CDE90437CDE906658A
:1039200002F014FA2BB0F0BD001001400038024044
:103930000004024000000240F0B587B014220021CC
:1039400001A81DF02CFB2A4B1E68002E4ED101222F
:10395000022703250C241A6001A9264B26489A6BDE
:1039600042F001029A639B6B03F001030093009BFA
:103970004FF68373CDE90454CDE9013702F0E6F93F
:1039800048F2331301A91D480594CDE90137CDE96B
:10399000036502F0DBF94CF2037301A918480594A2
:1039A000CDE90137CDE9036502F0D0F94FF63F03C9
:1039B00001A914480594CDE90137CDE9036502F06A
:1039C000C5F9242301A910480594CDE90137CDE9B3
:1039D000036502F0BBF904230C480DEB03010594C9
:1039E000CDE90137CDE9036502F0B0F907B0F0BDCC
:1039F0006C180020003802400010024000180240FD
:103A0000000C024000140240001C0240000802406A
:103A100008B5144B1A6822BB01224FF68371124875
:103A20001A60124A936B23F00103936302F076FA53
