:020000040800F2
:10000000B0080020F51E0008CD1E0008CF1E000815
:10001000D11E0008D31E0008D51E000800000000F5
:10002000000000000000000000000000D71E0008D3
:10003000D91E000800000000DB1E0008DD1E0008BD
:100040001D1F0008211F0008251F0008291F000888
:100050002D1F0008311F0008351F0008391F000838
:100060003D1F0008411F0008451F0008491F0008E8
:100070004D1F0008511F0008551F0008591F000898
:100080005D1F0008611F0008651F0008691F000848
:100090006D1F0008711F0008751F0008791F0008F8
:1000A0007D1F0008811F0008851F0008891F0008A8
:1000B0008D1F0008911F0008951F0008991F000858
:1000C0009D1F0008A11F0008A51F0008A91F000808
:1000D000AD1F0008B11F0008B51F0008B91F0008B8
:1000E000BD1F0008C11F0008C51F0008C91F000868
:1000F000CD1F0008D11F0008D51F0008D91F000818
:10010000DD1F0008E11F0008E51F0008E91F0008C7
:10011000ED1F0008F11F0008F51F0008F91F000877
:10012000FD1F000801200008052000080920000824
:100130000D200008112000081520000819200008D3
:100140001D20000821200008252000082920000883
:100150002D20000831200008352000083920000833
:100160003D200008412000084520000849200008E3
:100170004D20000851200008552000085920000893
:100180005D20000861200008652000086920000843
:100190006D200008712000087520000879200008F3
:1001A0007D200008812000088520000889200008A3
:1001B0008D20000891200008952000089920000853
:1001C0009D200008A12000087CB50400012600F055
:1001D000FBFB0500002C01D101205AE0206A4028D9
:1001E00094F84000012801D1022052E0012084F857
:1001F000400094F8410000280AD1002084F8400013
:10020000200000F0E0FB41F28831200000F0B4FA59
:100210002068006830F4F850A168491E50EA0120B7
:1002200021680860A06C00902B0000222021200093
:1002300000F0A4FA0100C9B2002926D121680A6899
:1002400014490A40616852EA0162E1680A43E169BF
:100250000A43216A0A4321680A6021684A680E49F4
:100260000A40216952EA014261690A43A1690A43CD
:1002700021684A602168096851F001012268116013
:1002800000216164012184F84110002184F84010AC
:10029000C0B276BD2FFFFF00FEF8E0FF10B50400EE
:1002A000002C01D101201AE094F84000012801D16E
:1002B000022014E0012084F8400020680068400813
:1002C000400021680860200000F084FB002060648A
:1002D000002084F84100002084F84000002010BD78
:1002E0002DE9F84304000D0016005FF0010800F04E
:1002F0006BFB0700A8690028E8690028286A002825
:1003000094F84000012801D102203DE0012084F84A
:10031000400094F8410001282FD1002060640220A1
:1003200084F8410000963B0000222021200000F0CC
:1003300025FA81464846C0B2002820D10022290073
:10034000200000F044FA686A002812D100963B00B1
:1003500001220221200000F011FA81464846C0B275
:1003600000280CD102202168C860012084F84100D7
:1003700005E0012084F8410001E05FF0020900205F
:1003800084F840004846C0B2BDE8F2832DE9F84346
:1003900005000C001600002700F016FB80462868B8
:1003A00010F1200995F84000012801D102205EE0FB
:1003B000012085F8400095F84100012850D1002027
:1003C0006864002C45D0122085F841002868006937
:1003D000401CE86228680069401CA8626C622868BA
:1003E000406930F0406029684861E86A002815D00B
:1003F0000096434601220421280000F0BFF90700BF
:100400003800C0B2002809D1686A411C69620078CE
:1004100089F80000E86A401EE862E6E73800C0B2EA
:10042000002812D10096434601220221280000F044
:10043000A5F907003800C0B2002806D102202968BB
:10044000C860280000F04CF90700012085F8410041
:1004500008E0686C50F0080068640120070001E0C3
:1004600002200700002085F840003800C0B2BDE837
:10047000F2832DE9FC4705000C001600002700F070
:10048000A3FA80462868D0F81890286810F1200A4E
:1004900095F84000012801D1022063E0012085F891
:1004A000400095F84100012855D100206864002CD7
:1004B0004AD0222085F8410028680069401CA863C2
:1004C00028680069401C68632C632868406930F024
:1004D000406050F08060296848612868C0F8189032
:1004E000A86B002815D0009643460122062128005B
:1004F00000F044F907003800C0B2002809D1286B89
:10050000411C29639AF800100170A86B401EA86373
:10051000E6E73800C0B2002812D100964346012217
:100520000221280000F02AF907003800C0B2002894
:1005300006D102202968C860280000F0D1F8070021
:10054000012085F8410008E0686C50F008006864FC
:100550000120070001E002200700002085F840008C
:100560003800C0B2BDE8F6872DE9FC4704000D0055
:1005700016001F005FF0010800F026FA8146A86906
:100580000028E8690028286A002894F8400001281B
:1005900001D102204CE0012084F8400094F8410091
:1005A00001283ED100206064422084F84100009779
:1005B0004B4600222021200000F0E0F88246504601
:1005C000C0B200282FD13068216888627068216825
:1005D0004862B0682168C8622068016831F440014F
:1005E0003069014351F4800120680160F068A8621D
:1005F0005FF000622900200000F0E9F800974B4608
:1006000001220821200000F0B9F882465046C0B20D
:10061000002808D108202168C860012084F8410022
:1006200001E05FF0020A002084F840005046C0B2AA
:10063000BDE8F6872DE9F84304000D0016005FF0D1
:10064000010800F0C1F90700A8690028E86900283E
:10065000286A002894F84000012801D102203DE0DA
:10066000012084F8400094F8410001282FD1002097
:100670006064822084F84100A06C00903B0000225E
:100680002021200000F07AF881464846C0B20028B8
:100690001FD12068016831F00801706801432068AB
:1006A0000160706808280BD1306821680863102049
:1006B0002168C8602068006850F4801021680860D4
:1006C0005FF040622900200000F081F801E05FF057
:1006D0000209002084F840004846C0B2BDE8F28319
:1006E0007CB50400002500F06FF9060094F8410085
:1006F00080073ED5002084F840002068006840074D
:1007000011D52068006830F0040021680860E06BB3
:1007100000F07EF905002800C0B2002803D0606C0C
:1007200050F0040060642068006850F00200216806
:100730000860A06C0090330001220221200000F02C
:100740001DF805002800C0B200280BD10220216846
:10075000C860A06C0090330000222021200000F02F
:100760000DF805002800C0B2002802D1012084F84D
:1007700041002800C0B276BD816470472DE9F04188
:1007800005000E0090461F00069C286880683042D5
:1007900001D0012000E000204146C0B2C9B2884229
:1007A00012D014F1010FF0D0002C04D000F00CF99D
:1007B000C01B8442E9D2042085F84100686C50F0E7
:1007C00001006864012000E00020BDE8F08110B461
:1007D0004B6A002B06D0B2F1406F03D08B6A5B1ED0
:1007E000046823618B69002B79D00B6A002B3ED003
:1007F0008B680468E361CB69002B20D0CC6A0B6B5B
:100800001C434B6B1C434B6A1C434B6954EA8344A7
:100810000B691C430B6A1C43CB681C43CB691C430C
:100820008B691C430B681C43144303685C61B2F181
:10083000406F00F0C6804B680468A361C1E0CC6AD9
:100840000B6B1C434B6B1C434B6A1C434B6954EAB8
:1008500083440B691C430B6A1C43CB691C438B69A3
:100860001C430B681C43144303685C61A9E0CB691B
:10087000002B1ED0CC6A0B6B1C434B6B1C434B6A8A
:100880001C434B6954EA83440B6A1C43CB681C43EA
:10089000CB691C438B691C430B681C4314430368DE
:1008A0005C61B2F1406F00F08C804B680468A3611A
:1008B00087E0CC6A0B6B1C434B6B1C434B6A1C439D
:1008C0004B6954EA83440B6A1C43CB691C438B6914
:1008D0001C430B681C43144303685C6171E00B6AA2
:1008E000002B39D08B680468E361CB69002B1DD0E5
:1008F000CC6A0B6B1C434B6B1C434B6A1C434B6910
:1009000054EA83440B691C430B6A1C43CB681C43A9
:10091000CB691C438B691C43144303685C61B2F1CF
:10092000406F4ED04B680468A3614AE0CC6A0B6B01
:100930001C434B6B1C434B6A1C434B6954EA834476
:100940000B691C430B6A1C43CB691C438B691C431A
:10095000144303685C6134E0CB69002B1BD0CC6A84
:100960000B6B1C434B6B1C434B6A1C434B6954EA97
:1009700083440B6A1C43CB681C43CB691C438B69C3
:100980001C43144303685C61B2F1406F19D04B689B
:100990000468A36115E04B6A002B12D0CC6A0B6B84
:1009A0001C434B6B1C434B6A1C434B6954EA834406
:1009B0000B6A1C43CB691C438B691C4314430368BB
:1009C0005C6110BC7047704701480068704700BF09
:1009D000AC000020704730B4002513E050F8042B21
:1009E000D30744BFA9F101039A18091F042942F84B
:1009F000045BFAD213468C0744BF15809B1CC907C1
:100A000048BF1D7050F8041B0029E7D130BC704767
:100A100070B50400A56DFFF7D7FF060094F8350008
:100A2000022806D080206065002084F83400012070
:100A30003BE02068006830F01600216808602068FC
:100A4000406930F0800021684861206C002802D1A4
:100A5000A06C002805D02068006830F008002168EC
:100A6000086020680068400840002168086020682D
:100A70000068C0070ED5FFF7A7FF801B0628F6D336
:100A800020206065002084F83400032084F83500BD
:100A900003200AE03F21E06D8140A960002084F836
:100AA0003400012084F83500002070BD2DE9FC41A0
:100AB00004000026002C01D10120D8E12078C007D5
:100AC0006DD5DFF89405016811F00C01042909D0F7
:100AD000006810F00C0008280ED1DFF880050068CF
:100AE000400209D5DFF86C050068800357D56068BF
:100AF000002854D10120BAE16068B0F5803F06D1EA
:100B0000DFF85005016851F48031016026E060682B
:100B100000280AD1DFF83C05016831F4803101601A
:100B2000016831F48021016018E06068B0F5A02F01
:100B30000AD1DFF82005016851F4802101600168C5
:100B400051F48031016009E0DFF80805016831F4F3
:100B500080310160016831F4802101606068002803
:100B60000ED0FFF731FF0500DFF8E80400688003CE
:100B700015D4FFF729FF401B6528F5D3032076E144
:100B8000FFF722FF0500DFF8CC040068800306D5DC
:100B9000FFF71AFF401B6528F5D3032067E1207893
:100BA000800752D5DFF8B004016811F00C0F09D0AE
:100BB000006810F00C00082816D1DFF8A0040068C7
:100BC000400211D4DFF88C040168890704D5E1687C
:100BD000012901D001204AE1016831F0F8012269C0
:100BE00051EAC201016030E0E06800281AD0DFF865
:100BF0006474386850F001003860FFF7E5FE0500C6
:100C00003868800706D4FFF7DFFE401B0328F7D3C0
:100C100003202CE1386830F0F800216950EAC10067
:100C2000386012E0DFF82C74386840084000386003
:100C3000FFF7CAFE05003868800706D5FFF7C4FE37
:100C4000401B0328F7D3032011E12078000728D5A3
:100C50006069002812D0DFF80874386850F001008D
:100C60003860FFF7B1FE05003868800719D4FFF738
:100C7000ABFE401B0328F7D30320F8E0DFF8E07356
:100C80003868400840003860FFF79EFE050038686D
:100C9000800706D5FFF798FE401B0328F7D30320F3
:100CA000E5E02078400740F18780DFF8C0733868BE
:100CB000C0000AD4386850F080503860386810F0AE
:100CC00080500090009801200600DFF8A483D8F837
:100CD0000000C00513D4D8F8000050F48070C8F8A4
:100CE0000000FFF771FE0500D8F80000C00506D42B
:100CF000FFF76AFE401B6528F6D30320B7E0A06823
:100D0000012806D1DFF86C03016851F00101016090
:100D100025E0A06800280AD1DFF8580301684908D7
:100D200049000160016831F00401016017E0A0682A
:100D300005280AD1DFF83C03016851F00401016085
:100D4000016851F00101016009E0DFF82803016842
:100D5000490849000160016831F004010160A068A0
:100D6000002810D0FFF730FE0500DFF80803006808
:100D7000800719D4FFF728FE401B41F289318842D1
:100D8000F3D3032073E0FFF71FFE0500DFF8E40252
:100D90000068800708D5FFF717FE401B41F2893134
:100DA0008842F3D3032062E03000C0B2012803D1AF
:100DB000386830F080503860A069002856D0DFF8DD
:100DC0009802006810F00C0008284DD0A069022895
:100DD00037D1DFF88072386830F080703860FFF704
:100DE000F3FD80463868800107D5FFF7EDFDB0EBD5
:100DF00008000328F6D3032039E0E169206A0143A3
:100E0000606A51EA8011A06A4008401E51EA004120
:100E1000E06A51EA006151F00051DFF840020160E0
:100E2000386850F080703860FFF7CEFD05003868F4
:100E300080011BD4FFF7C8FD401B0328F7D3032014
:100E400015E0DFF81072386830F080703860FFF716
:100E5000BBFD05003868800108D5FFF7B5FD401BD4
:100E60000328F7D3032002E0012000E00020BDE8C2
:100E7000F6812DE9F04104000D000026002C01D17F
:100E800001209FE0DFF8F071386810F00F00A842F1
:100E90000BD238680009000128433860386810F028
:100EA0000F00A84201D001208CE02078800719D5DE
:100EB0002078400705D5DFF8A001016851F4E05122
:100EC00001602078000705D5DFF88C01016851F436
:100ED00060410160DFF880110A6832F0F002A0681A
:100EE00002430A602078C00737D56068012806D120
:100EF000DFF860010068800311D4012062E06068BF
:100F0000022806D1DFF84C010068800107D40120D7
:100F100058E050480068800701D4012052E0DFF813
:100F20003881D8F800108908890060680143C8F842
:100F30000010FFF749FD0600D8F8000010F00C0083
:100F40006168B0EB810F08D0FFF73EFD801B41F2D6
:100F500089318842F0D3032034E0386810F00F0064
:100F600085420BD238680009000128433860386890
:100F700010F00F00A84201D0012023E020784007A4
:100F800006D535490A6832F4E052E06802430A6047
:100F90002078000707D53048016831F460412269A4
:100FA00051EAC201016000F00FF834492A4A126880
:100FB000C2F30312895CC8402B4908600F2000F07F
:100FC00061F80020BDE8F0812DE9F0410024002502
:100FD000002600272048006810F00C00002804D0EC
:100FE000042804D0082804D031E01E4830E024480A
:100FF0002EE0DFF86880D8F8000010F03F00040011
:10100000D8F8000040020CD5D8F80000C0F38810D2
:101010001B49A1FB00012200002300F059F8050044
:101020000BE0D8F80000C0F388100E49A1FB0001C6
:101030002200002300F04CF80500D8F80000C0F3AF
:101040000140401C40000600B5FBF6F000E00548FA
:10105000BDE8F08100380240083802400438024000
:10106000743802400024F40004000020403802409C
:101070000070004070380240003C0240E41E00084E
:1010800040787D0110B504004FF47A700D4909785D
:10109000B0FBF1F00C490968B1FBF0F000F0B0F9D9
:1010A000002801D001200CE0102C09D200222100E0
:1010B0005FF0FF3000F08FF904480460002000E08A
:1010C000012010BD080000200400002000000020C6
:1010D000BBBBE1B1B2F5803F80F07E80022A1ED911
:1010E0008C46B1FBF2F102FB11C31B0443EA10432F
:1010F000B3FBF2FC02FB1C3380B240EA0343B3FBB8
:10110000F2F002FB103240EA0C4000237047022A42
:1011100005D98446B0FBF2F002FB10C270474AB119
:1011200005D100F0010249085FEA30007047002253
:101130000023704700F078B90B0002000021002066
:101140007047904271EB030CF6D3B3F5803F2FD27A
:10115000F0B5B3FA83F7B1FA81F4A7F10F0E3D1B96
:101160005340CEF1200602FA0EF2F3415340B5F19E
:101170000F0746D80F3C2C444140C4F12006A04044
:10118000F1414140B1FBF3F603FB1611A2FB06450A
:10119000001BA94102D2761E8018594180EA010243
:1011A00021FA0EF362FA0EF200215A403046F0BDE9
:1011B00030B4B1FBF3FC03FB1C11A2FB0C45001B7C
:1011C000A94103D2ACF1010C8018594130BC024650
:1011D0000B46604600217047B2F1807F65D3F0B5C1
:1011E000B2FA82F7B1FA81F4C7F10F063D1B22FA79
:1011F00006F307F1110EF24120355A40B5F10F0701
:10120000B8D94140C4F12006A040F1414140B1FBB2
:10121000F3FC03FB1C11A2FB0C45001BA94103D2EC
:10122000BCF1010C801859410F2F12D30F3FC90395
:1012300041EA5041B1FBF3F603FB1611A2FB064550
:10124000D4EBC030A94102D2761E8018594146EA3B
:10125000CC3C07B34140C7F12006B840F1414140C2
:10126000B1FBF3F603FB1611A2FB0645001BA941D7
:1012700002D2761E8018594180EA010221FA0EF34B
:10128000C7F1200462FA0EF20CFA07F05A402CFA69
:1012900004F13043F0BD80EA010221FA0EF300218F
:1012A00062FA0EF260465A40F0BD8C46B1FBF2F194
:1012B00002FB11C31B0243EA1063B3FBF2FC02FB07
:1012C0001C331B024CEA002043EA1063B3FBF2FC20
:1012D00002FB1C331B024CEA002043EA1063B3FB01
:1012E000F2FC02FB1C331B024CEA002043EA1063B1
:1012F000B3FBF2FC02FB1C324CEA002000237047D7
:1013000010B410F00703DFF8044122684FF6FF0124
:101310000A40DFF8FC1051EA03210A43226010BCA6
:101320007047DFF8E8000068C0F30220704710B48F
:10133000020052B2002A05D40A01364B040064B2FE
:101340001A5508E00A01344B040064B214F00F048B
:10135000234403F8042C10BC704770B4030013F04E
:101360000704D4F10700052801D3042001E0D4F1DB
:101370000700251D072D01D2002500E0E51E0126EE
:1013800016FA00F0401E0140A94016FA05F56D1E40
:101390002A401143080070BC704710B50400601E5D
:1013A000B0F1807F01D301200EE0601E1B49086070
:1013B0000F215FF0FF30FFF7BAFF002018490860E7
:1013C000072018490860002010BD10B50400200057
:1013D000FFF796FF10BD2DE9F04104000D00160047
:1013E0000027FFF79EFF8046320029004046FFF7A6
:1013F000B4FF0100200040B2FFF799FFBDE8F08183
:1014000010B504002000FFF7C8FF10BD0CED00E090
:101410000000FA0500E400E018ED00E014E000E050
:1014200018E000E010E000E07047000010B5CC4C80
:10143000CC4820602000FEF731FF002801D00120B9
:1014400055E000F095F9C8480021C1610021016212
:1014500000214162002141610021C162002101633C
:10146000002141634FF40051C160C0480021016177
:101470000121C160102181605FF480014161012080
:1014800060600420A0601020E0608020B0FA80F04E
:10149000401E20614FF4A06060610020A061002028
:1014A000E061002020622000FEF78EFE002801D0BF
:1014B00001201CE0200000F01BF8002801D00120D2
:1014C00015E0200000F0ACF8002801D001200EE06B
:1014D000200000F04DF8002801D0012007E0200096
:1014E00000F028F8002801D0012000E0002010BD05
:1014F00070B504009C4D4FF48070A8616620286090
:101500000020686241F28836320029002000FEF790
:10151000E7FE002801D001200BE09920286032006E
:1015200029002000FEF7DCFE002801D0012000E0A9
:10153000002070BD1CB504008B494FF440708861D9
:10154000EB2008604FF44060C8615FF04070486273
:101550000A20486100200190002000906A46200087
:10156000FFF768F8002801D0012000E0002016BD38
:1015700030B58FB004004FF4807007908520019043
:1015800000200890002009905FF080700A900020F1
:10159000069001200B9000200C9000200D90002060
:1015A0000E9041F288352A0001A92000FEF798FE2E
:1015B000002801D0012031E02A0069462000FEF712
:1015C00058FF002801D0012028E0200000F09EF8FC
:1015D000002801D0012021E0812001909DF8001019
:1015E00011F00F010A225FF07060B0FA80F08240C3
:1015F00011438DF800102A0001A92000FEF770FEAB
:10160000002801D0012009E02A0069462000FEF7E9
:10161000BDFE002801D0012000E000200FB030BD49
:10162000F0B595B004004FF4807007900020099049
:101630000020069000200C9000200D9000200E90BD
:1016400010201190002013905FF48000149065200A
:101650000190002008905FF080750A9501200B90A2
:101660003F4E41F288373A0001A93000FEF738FEBC
:10167000002801D0012047E03A0069463000FEF71B
:10168000F8FE002801D001203EE006200190002055
:101690000A903A0001A93000FEF722FE002801D08E
:1016A000012031E002200F900220109001201290C2
:1016B000052001900A953B000FAA01A93000FEF712
:1016C00053FF002801D001201EE06120019001207D
:1016D0000B909DF8000010F03F0050F040008DF896
:1016E00000003A0001A93000FEF7FAFD002801D001
:1016F000012009E03A0069463000FEF747FE002865
:1017000001D0012000E0002015B0F0BD70B504004C
:10171000154D4FF44070A8610620286000206862D3
:1017200041F28836320029002000FEF7D9FD00285A
:1017300001D0012013E00D4A022010600220506009
:10174000052028605FF040706862330029002000A7
:10175000FEF70AFF002801D0012000E0002070BD44
:101760000C000020001000A0580000209000002075
:1017700010B586B03648016851F00201016000687A
:1017800010F00200059005983248016851F00201FE
:101790000160016831F0020101602F48016851F0D9
:1017A00002010160016811F00201059105990168CB
:1017B00051F008010160016811F0080105910599D7
:1017C000016851F010010160006810F010000590F0
:1017D0000598402000900A200490022001900120EA
:1017E0000290022003901D4C6946200000F03CF856
:1017F00004200090092004900020029069462000F7
:1018000000F032F84FF40060009009200490144C6E
:101810006946200000F028F84FF48050009009201D
:1018200004906946200000F01FF804200090092071
:10183000049069460B4800F017F84FF400500090F0
:10184000092004906946200000F00EF806B010BD93
:101850003838024018380240303802400004024054
:10186000000C0240001002402DE9F8410022002344
:10187000002400260025102D80F00B81012717FA87
:1018800005F213000A681A4014009C4240F0FF80E1
:101890004A68022A02D04A68122A1FD12A00D208B6
:1018A00000EB8202D2F820C05FF00F0E15F00702A5
:1018B000D2B292001EFA02FE3CEA0E0CD1F810E001
:1018C00015F00702D2B292001EFA02FE5EEA0C0C7C
:1018D00066462A00D20800EB82021662D0F800C0E9
:1018E0005FF0030E2A00D2B252001EFA02F23CEA66
:1018F000020C91F8048018F003082A00D2B25200BA
:1019000018FA02F858EA0C0CC0F800C04A68012A1C
:1019100008D04A68022A05D04A68112A02D04A68CB
:10192000122A1BD186682A00D2B252001EFA02F295
:101930009643D1F80C802A00D2B2520018FA02F86D
:1019400058EA060686604268AF40BA434F68C7F35C
:101950000017AF403A439446C0F804C0C6682A0056
:10196000D2B252001EFA02FE36EA0E068F682A0034
:10197000D2B2520097403E43C6604A68D20040F15E
:101980008680DFF81421176857F4804717601268C3
:1019900012F480420092009ADFF800C12A009208F7
:1019A0005CF822705FF00F0E15F00302D2B29200C5
:1019B0001EFA02FE37EA0E07DFF8E420904201D15A
:1019C000002631E0DFF8DC20904201D101262BE037
:1019D000DFF8D420904201D1022625E0DFF8CC20A8
:1019E000904201D103261FE0DFF8C420904201D1CC
:1019F000042619E02F4A904201D1052614E02E4A10
:101A0000904201D106260FE02C4A904201D10726D0
:101A10000AE02B4A904201D1082605E0294A90426B
:101A200001D1092600E00A26F6B215F00302D2B26F
:101A30009200964037432A0092084CF82270224EBA
:101A40003268A243D1F804C05FEACC3C00D52243FF
:101A500032601E4F3E68A643D1F804C05FEA8C3C5A
:101A600000D526433E601A4F3A68A243D1F804C01D
:101A70005FEACC2C00D522433A60164F3E68A6435D
:101A8000D1F804C05FEA8C2C00D526433E606D1C63
:101A9000F1E6BDE8F1810000443802400838014019
:101AA000000002400004024000080240000C024016
:101AB000001002400014024000180240001C0240C6
:101AC0000020024000240240003C0140043C014050
:101AD000083C01400C3C0140BFF34F8FBFF36F8FB8
:101AE000002049490860BFF34F8FBFF36F8F47480D
:101AF000016851F400310160BFF34F8FBFF36F8F66
:101B00007047BFF34F8FBFF36F8F4048016831F4C8
:101B10000031016000203C490860BFF34F8FBFF3E4
:101B20006F8F704710B4002039490860BFF34F8FA2
:101B300038480168C1F34E32C1F3C900030043F6CF
:101B4000E07010EA421050EA8370334C20601800B5
:101B5000431E0028F3D11000421E0028ECD1BFF331
:101B60004F8F2A48046854F480340460BFF34F8FC9
:101B7000BFF36F8F10BC704710B400202449086079
:101B8000BFF34F8F2148016831F480310160BFF30A
:101B90004F8F20480168C1F34E32C1F3C9000300E2
:101BA00043F6E07010EA421050EA83701B4C20604C
:101BB0001800431E0028F3D11000421E0028ECD16B
:101BC000BFF34F8FBFF36F8F10BC704780B500F02D
:101BD00072F800F07DF800F030F800F027F80028E7
:101BE00001D000F029F800F06CF800200C490860E2
:101BF0000C480D49096801605FF01041096881F3E4
:101C0000088800688047FEE750EF00E014ED00E030
:101C100084ED00E080ED00E060EF00E074EF00E0B4
:101C200010E000E0A80000200400009010B500249F
:101C3000FFF7FCFB204310BDFEE730B591B0002458
:101C4000012005905FF48030069002200B905FF435
:101C500080000C9019200D904FF4D8700E90022047
:101C60000F900820109005A8FEF720FF050028001F
:101C7000C0B2002800D0FEE700F03EF804002000CB
:101C8000C0B2002800D0FEE70F2000900220019093
:101C9000002002904FF4A05003904FF48050049025
:101CA00006216846FFF7E5F80100C9B2002900D017
:101CB000FEE711B030BD80B5FFF70EFFFFF732FF32
:101CC00001BD80B5FFF71DFFFFF756FF01BD000006
:101CD00080B50748016851F4807101600320FFF767
:101CE00074FB0F20FFF7CEF900F004F8002002BDCE
:101CF000003C0240704700007CB500241B4801688E
:101D000051F080510160006810F080500090009800
:101D1000154E306850F480303060FEF755FE0500F7
:101D2000104C2068C00308D4FEF74EFE401B40F262
:101D3000E9318842F4D3032013E0306850F40030D6
:101D40003060FEF741FE06002068800308D4FEF7ED
:101D50003BFE801B40F2E9318842F5D3032000E0CE
:101D6000002076BD04700040007000404038024002
:101D70000F48016851F4700101600E49086850F085
:101D80000100086000200C4A10600A680B480240FD
:101D90000A600B480B4A1060086830F48020086025
:101DA0000020094908605FF000600849086070473A
:101DB00088ED00E00038024008380240FFFFF6FEE0
:101DC00010300024043802400C38024008ED00E0D6
:101DD00030B450F8041B79B10268436802440830FB
:101DE000DC0744BFA9F10104E31852F8045B43F88F
:101DF000045B091FF9D1ECE730BC704710B5074907
:101E000079441831064C7C44163404E00A68081DF5
:101E1000114488470146A142F8D110BD2C000000B2
:101E20004C0000004EF68851CEF20001086840F4E4
:101E300070000860BFF34F8FBFF36F8F4FF00070DB
:101E4000E1EE100A704700008FEBFFFFA4000000D6
:101E50000C0000200000000079FFFFFF0C000000D4
:101E6000B0000000000000200000000000F00DF8AD
:101E7000002801D0FFF7C2FFAFF300800020AFF3CE
:101E80000080FFF7A3FE00F002F80120704700F089
:101E900001B800000746384600F002F8FBE70000F2
:101EA00080B5AFF30080024A11001820ABBEFBE7FB
:101EB0002600020003480168034A1278891801606D
:101EC000704700BFAC000020080000207047FEE70C
:101ED000FEE7FEE7FEE770477047704780B5FFF703
:101EE000E9FF01BD00000000000000000102030442
:101EF000060708090148804701480047711D00088E
:101F0000051F0008AFF30080FFF78CFFFFF7AEFF5F
:101F1000100000000024F40001000000FFF7FEBFE5
:101F2000FFF7FEBFFFF7FEBFFFF7FEBFFFF7FEBFE5
:101F3000FFF7FEBFFFF7FEBFFFF7FEBFFFF7FEBFD5
:101F4000FFF7FEBFFFF7FEBFFFF7FEBFFFF7FEBFC5
:101F5000FFF7FEBFFFF7FEBFFFF7FEBFFFF7FEBFB5
:101F6000FFF7FEBFFFF7FEBFFFF7FEBFFFF7FEBFA5
:101F7000FFF7FEBFFFF7FEBFFFF7FEBFFFF7FEBF95
:101F8000FFF7FEBFFFF7FEBFFFF7FEBFFFF7FEBF85
:101F9000FFF7FEBFFFF7FEBFFFF7FEBFFFF7FEBF75
:101FA000FFF7FEBFFFF7FEBFFFF7FEBFFFF7FEBF65
:101FB000FFF7FEBFFFF7FEBFFFF7FEBFFFF7FEBF55
:101FC000FFF7FEBFFFF7FEBFFFF7FEBFFFF7FEBF45
:101FD000FFF7FEBFFFF7FEBFFFF7FEBFFFF7FEBF35
:101FE000FFF7FEBFFFF7FEBFFFF7FEBFFFF7FEBF25
:101FF000FFF7FEBFFFF7FEBFFFF7FEBFFFF7FEBF15
:10200000FFF7FEBFFFF7FEBFFFF7FEBFFFF7FEBF04
:10201000FFF7FEBFFFF7FEBFFFF7FEBFFFF7FEBFF4
:10202000FFF7FEBFFFF7FEBFFFF7FEBFFFF7FEBFE4
:10203000FFF7FEBFFFF7FEBFFFF7FEBFFFF7FEBFD4
:10204000FFF7FEBFFFF7FEBFFFF7FEBFFFF7FEBFC4
:10205000FFF7FEBFFFF7FEBFFFF7FEBFFFF7FEBFB4
:10206000FFF7FEBFFFF7FEBFFFF7FEBFFFF7FEBFA4
:10207000FFF7FEBFFFF7FEBFFFF7FEBFFFF7FEBF94
:10208000FFF7FEBFFFF7FEBFFFF7FEBFFFF7FEBF84
:10209000FFF7FEBFFFF7FEBFFFF7FEBFFFF7FEBF74
:0420A000FFF7FEBF89
:0200000490006A
:100000000000052051100090393300903B330090E0
:100010003D3300903F3300904133009000000000DA
:1000200000000000000000000000000011EA009045
:100030004333009000000000B1EA009015EB0090FF
:10004000A1100090A1100090A1100090A1100090AC
:10005000A1100090A1100090A1100090A11000909C
:10006000A1100090A1100090A1100090A11000908C
:10007000A1100090A1100090A1100090A11000907C
:10008000A1100090A1100090A1100090A11000906C
:10009000A1100090A1100090A1100090A11000905C
:1000A000A1100090A1100090A1100090A11000904C
:1000B000A1100090A1100090A1100090A11000903C
:1000C000A1100090A1100090A1100090A11000902C
:1000D000A1100090A1100090A1100090A11000901C
:1000E000A1100090A1100090A1100090A11000900C
:1000F000A1100090A1100090A1100090A1100090FC
:10010000A110009045330090A1100090A110009024
:10011000A1100090A110009051330090A110009008
:10012000A1100090A1100090A11000905D330090EC
:1001300069330090A1100090A1100090A1100090D0
:10014000A1100090A1100090A1100090A1100090AB
:10015000A110009075330090A1100090A1100090A4
:10016000A1100090A1100090A1100090A11000908B
:10017000A1100090A1100090A1100090A11000907B
:10018000A1100090A1100090A1100090A11000906B
:10019000A1100090A1100090A1100090A11000905B
:1001A00081330090A11000908D330090993300901E
:1001B000A1100090A1100090A1100090A11000903B
:0801C000A1100090A1100090B5
:1001D00010B5054C237833B9044B13B10448AFF381
:1001E00000800123237010BDB80300200000000030
:1001F000BC93049008B5034B1BB103490348AFF30C
:10020000008008BD00000000BC030020BC930490E7
:1002100010F8012B11F8013B012A28BF9A42F7D0B0
:10022000D01A70470000000000000000000000002D
:1002300001F0FF01102A2BDB10F0070F08D010F897
:10024000013B013A8B422DD010F0070F42B3F6D19B
:10025000F0B441EA012141EA014122F007047FF0B4
:1002600000070023F0E80256083C85EA010586EA0B
:10027000010685FA47F5A3FA87F586FA47F6A5FA47
:1002800087F68EB9EED1F0BC01F0FF0102F0070253
:1002900032B110F8013B013A83EA010313B1F8D1FE
:1002A0000020704701387047002D06BF35460338DF
:1002B000073815F0010F07D1013015F4807F02BF18
:1002C000013015F4C03F0130F0BC0138704700BF69
:1002D000034613F8012B002AFBD1181A0138704786
:1002E00081F0004102E000BF83F0004330B54FEAE7
:1002F00041044FEA430594EA050F08BF90EA020F54
:100300001FBF54EA000C55EA020C7FEA645C7FEAE6
:10031000655C00F0E2804FEA5454D4EB5555B8BF09
:100320006D420CDD2C4480EA020281EA030382EA7A
:10033000000083EA010180EA020281EA0303362D0C
:1003400088BF30BD11F0004F4FEA01314FF4801CDF
:100350004CEA113102D0404261EB410113F0004FF1
:100360004FEA03334CEA133302D0524263EB4303A8
:1003700094EA050F00F0A780A4F10104D5F1200E46
:100380000DDB02FA0EFC22FA05F2801841F10001A1
:1003900003FA0EF2801843FA05F359410EE0A5F175
:1003A00020050EF1200E012A03FA0EFC28BF4CF0A6
:1003B000020C43FA05F3C01851EBE37101F000455C
:1003C00007D54FF0000EDCF1000C7EEB00006EEB69
:1003D0000101B1F5801F1BD3B1F5001F0CD34908F3
:1003E0005FEA30004FEA3C0C04F101044FEA44524A
:1003F00012F5800F80F09A80BCF1004F08BF5FEAD1
:10040000500C50F1000041EB045141EA050130BDB0
:100410005FEA4C0C404141EB0101013C28BFB1F5C2
:10042000801FE9D291F0000F04BF01460020B1FA0D
:1004300081F308BF2033A3F10B03B3F120020CDAE0
:100440000C3208DD02F1140CC2F10C0201FA0CF0BE
:1004500021FA02F10CE002F11402D8BFC2F1200C23
:1004600001FA02F120FA0CFCDCBF41EA0C019040D9
:10047000E41AA2BF01EB0451294330BD6FEA040422
:100480001F3C1CDA0C340EDC04F11404C4F120020D
:1004900020FA04F001FA02F340EA030021FA04F31F
:1004A00045EA030130BDC4F10C04C4F1200220FA76
:1004B00002F001FA04F340EA0300294630BD21FAB4
:1004C00004F0294630BD94F0000F83F4801306BF7A
:1004D00081F480110134013D4EE77FEA645C18BF6E
:1004E0007FEA655C29D094EA050F08BF90EA020F05
:1004F00005D054EA000C04BF1946104630BD91EAFD
:10050000030F1EBF0021002030BD5FEA545C05D1FF
:100510004000494128BF41F0004130BD14F580043E
:100520003CBF01F5801130BD01F0004545F0FE41B2
:1005300041F470014FF0000030BD7FEA645C1ABFE7
:10054000194610467FEA655C1CBF0B46024650EA1E
:10055000013406BF52EA033591EA030F41F400214A
:1005600030BD00BF90F0000F04BF0021704730B5D0
:100570004FF4806404F132044FF000054FF00001A5
:1005800050E700BF90F0000F04BF0021704730B566
:100590004FF4806404F1320410F0004548BF40423B
:1005A0004FF000013EE700BF42004FEAE2014FEA90
:1005B00031014FEA02701FBF12F07F4393F07F4F6B
:1005C00081F06051704732F07F4208BF704793F06E
:1005D0007F4F04BF41F40021704730B54FF4607481
:1005E00001F0004521F000411CE700BF50EA010284
:1005F00008BF704730B54FF000050AE050EA01022D
:1006000008BF704730B511F0004502D5404261EB9C
:1006100041014FF4806404F132045FEA915C3FF4DD
:10062000D8AE4FF003025FEADC0C18BF03325FEA7A
:10063000DC0C18BF033202EBDC02C2F1200300FA2B
:1006400003FC20FA02F001FA03FE40EA0E0021FA50
:1006500002F11444BDE600BF70B54FF0FF0C4CF43E
:10066000E06C1CEA11541DBF1CEA135594EA0C0FF0
:1006700095EA0C0F00F0DEF82C4481EA030621EA2B
:100680004C5123EA4C5350EA013518BF52EA033566
:1006900041F4801143F4801338D0A0FB02CE4FF018
:1006A0000005E1FB02E506F00042E0FB03E54FF048
:1006B0000006E1FB03569CF0000F18BF4EF0010E40
:1006C000A4F1FF04B6F5007F64F5407404D25FEA3C
:1006D0004E0E6D4146EB060642EAC62141EA5551EF
:1006E0004FEAC52040EA5E504FEACE2EB4F1FD0C31
:1006F00088BFBCF5E06F1ED8BEF1004F08BF5FEAAF
:10070000500E50F1000041EB045170BD06F0004660
:1007100046EA010140EA020081EA0301B4EB5C040D
:10072000C2BFD4EB0C0541EA045170BD41F4801105
:100730004FF0000E013C00F3AB8014F1360FDEBF2A
:10074000002001F0004170BDC4F10004203C35DA06
:100750000C341BDC04F11404C4F1200500FA05F389
:1007600020FA04F001FA05F240EA020001F000422A
:1007700021F0004110EBD37021FA04F642EB0601A0
:100780005EEA430E08BF20EAD37070BDC4F10C04CA
:10079000C4F1200500FA04F320FA05F001FA04F28E
:1007A00040EA020001F0004110EBD37041F100017A
:1007B0005EEA430E08BF20EAD37070BDC4F1200585
:1007C00000FA05F24EEA020E20FA04F301FA05F2ED
:1007D00043EA020321FA04F001F0004121FA04F295
:1007E00020EA020000EBD3705EEA430E08BF20EA65
:1007F000D37070BD94F0000F0FD101F0004640009F
:1008000041EB010111F4801F08BF013CF7D041EA20
:10081000060195F0000F18BF704703F00046520024
:1008200043EB030313F4801F08BF013DF7D043EAF5
:100830000603704794EA0C0F0CEA135518BF95EAAB
:100840000C0F0CD050EA410618BF52EA4306D1D132
:1008500081EA030101F000414FF0000070BD50EA51
:10086000410606BF1046194652EA430619D094EADB
:100870000C0F02D150EA013613D195EA0C0F05D1C5
:1008800052EA03361CBF104619460AD181EA030119
:1008900001F0004141F0FE4141F470014FF00000D1
:1008A00070BD41F0FE4141F4780170BD70B54FF06C
:1008B000FF0C4CF4E06C1CEA11541DBF1CEA1355EC
:1008C00094EA0C0F95EA0C0F00F0A7F8A4EB0504CE
:1008D00081EA030E52EA03354FEA013100F08880C5
:1008E0004FEA03334FF0805545EA131343EA12638E
:1008F0004FEA022245EA111545EA10654FEA002643
:100900000EF000419D4208BF964244F1FD0404F5FB
:10091000407402D25B084FEA3202B61A65EB030557
:100920005B084FEA32024FF480104FF4002CB6EB14
:10093000020E75EB030E22BFB61A754640EA0C0094
:100940005B084FEA3202B6EB020E75EB030E22BFD4
:10095000B61A754640EA5C005B084FEA3202B6EB15
:10096000020E75EB030E22BFB61A754640EA9C00D4
:100970005B084FEA3202B6EB020E75EB030E22BFA4
:10098000B61A754640EADC0055EA060E18D04FEA62
:10099000051545EA16754FEA06164FEAC30343EA02
:1009A00052734FEAC2025FEA1C1CC0D111F4801FCF
:1009B0000BD141EA00014FF000004FF0004CB6E7C8
:1009C00011F4801F04BF01430020B4F1FD0C88BF67
:1009D000BCF5E06F3FF6AFAEB5EB030C04BFB6EB72
:1009E000020C5FEA500C50F1000041EB045170BD65
:1009F0000EF0004E4EEA113114EB5C04C2BFD4EB92
:100A00000C0541EA045170BD41F480114FF0000E15
:100A1000013C90E645EA060E8DE60CEA135594EA91
:100A20000C0F08BF95EA0C0F3FF43BAF94EA0C0F94
:100A30000AD150EA01347FF434AF95EA0C0F7FF409
:100A400025AF104619462CE795EA0C0F06D152EA5D
:100A500003353FF4FDAE1046194622E750EA410641
:100A600018BF52EA43067FF4C5AE50EA41047FF452
:100A70000DAF52EA43057FF4EBAE12E74FF0FF3CB7
:100A800006E000BF4FF0010C02E000BF4FF0010C88
:100A90004DF804CD4FEA410C7FEA6C5C4FEA430C01
:100AA00018BF7FEA6C5C1BD001B050EA410C0CBF50
:100AB00052EA430C91EA030F02BF90EA020F0020B2
:100AC000704710F1000F91EA030F58BF994208BF19
:100AD00090422CBFD8176FEAE37040F001007047D6
:100AE0004FEA410C7FEA6C5C02D150EA013C07D12D
:100AF0004FEA430C7FEA6C5CD6D152EA033CD3D078
:100B00005DF8040B704700BF8446104662468C4671
:100B10001946634600E000BF01B5FFF7B7FF0028A4
:100B200048BF10F1000F01BD4DF808EDFFF7F4FFCD
:100B30000CBF012000205DF808FB00BF4DF808ED58
:100B4000FFF7EAFF34BF012000205DF808FB00BF7B
:100B50004DF808EDFFF7E0FF94BF012000205DF89D
:100B600008FB00BF4DF808EDFFF7CEFF94BF012052
:100B700000205DF808FB00BF4DF808EDFFF7C4FF4B
:100B800034BF012000205DF808FB00BF4FEA410C94
:100B90007FEA6C5C02D150EA013C0AD14FEA430C77
:100BA0007FEA6C5C02D152EA033C02D14FF00000B4
:100BB00070474FF0010070474FEA410212F50012F2
:100BC00015D211D56FF47873B3EB625212D94FEA94
:100BD000C12343F0004343EA505311F0004F23FA7E
:100BE00002F018BF404270474FF00000704750EAD3
:100BF000013005D111F0004008BF6FF00040704790
:100C00004FF00000704700BF4A0011D212F50012E9
:100C100011D20DD56FF47873B3EB62520ED44FEA54
:100C2000C12343F0004343EA505323FA02F07047D4
:100C30004FF00000704750EA013002D14FF0FF3012
:100C400070474FF0000070474FEA4102B2F1E043B5
:100C500024BFB3F5001CDCF1FE5C0DD901F0004CA3
:100C60004FEAC0024CEA5070B2F1004F40EB8300F3
:100C700008BF20F00100704711F0804F21D113F11F
:100C80003872BCBF01F00040704741F480114FEA58
:100C90005252C2F11802C2F1200C10FA0CF320FAE1
:100CA00002F018BF40F001004FEAC1234FEAD323FE
:100CB00003FA0CFC40EA0C0023FA02F34FEA430368
:100CC000CCE77FEA625307D150EA01331EBF4FF0F1
:100CD000FE4040F44000704701F0004040F0FE400C
:100CE00040F40000704700BF53B94AB9002908BF5B
:100CF00000281CBF4FF0FF314FF0FF3000F0A6B9C5
:100D0000ADF1080C6DE904CE00F03CF8DDF804E02C
:100D1000DDE9022304B0704738B500220023044601
:100D20000D46FFF70BFF28B920462946BDE838409D
:100D300000F00AB8204605F1004100F005F84042F5
:100D400061EB410138BD00BFD0B50C4B0022064617
:100D50000F46FFF781FCFFF757FF0446FFF702FC41
:100D6000074B0022FFF778FC02460B463046394617
:100D7000FFF7BAFAFFF748FF2146D0BD0000F03D6B
:100D80000000F0412DE9F047089E0D4604460F464D
:100D9000002B4AD18A42944665D9B2FA82F343B114
:100DA00002FA03FCC3F120029F4020FA02F217432B
:100DB0009C404FEA1C4E1FFA8CF5B7FBFEF1220C4B
:100DC0000EFB117742EA074201FB05F090420AD977
:100DD0001CEB020201F1FF3780F01C81904240F2CF
:100DE000198102396244121AA4B2B2FBFEF00EFB62
:100DF000102244EA024400FB05F5A5420AD91CEB87
:100E0000040400F1FF3280F00781A54240F2048122
:100E10006444023840EA0140641B00211EB1DC40FA
:100E20000023C6E90043BDE8F0878B4208D9002EB5
:100E300000F0ED800021C6E900050846BDE8F08716
:100E4000B3FA83F1002949D1AB4202D3824200F2C6
:100E5000F880841A65EB030201201746002EE2D0C9
:100E6000C6E90047DFE702B9FFDEB2FA82F3002BE2
:100E700040F090808A1A4FEA1C471FFA8CFE01212D
:100E8000B2FBF7F507FB1520220C42EA00420EFBED
:100E900005F0904208D91CEB020205F1FF3802D29E
:100EA000904200F2CB804546121AA4B2B2FBF7F092
:100EB00007FB102244EA02440EFB00FEA64508D9B7
:100EC0001CEB040400F1FF3202D2A64500F2BB8005
:100ED0001046A4EB0E0440EA05409FE7C1F120074D
:100EE0008B4022FA07FC4CEA030C05FA01F420FAC5
:100EF00007F3FD404FEA1C492343B5FBF9F81FFAFD
:100F00008CFE09FB18551C0C44EA054408FB0EF541
:100F1000A54202FA01F200FA01F00BD91CEB04041D
:100F200008F1FF3A80F08880A54240F28580A8F160
:100F300002086444641B9DB2B4FBF9F309FB13443B
:100F400045EA044403FB0EFEA64508D91CEB040445
:100F500003F1FF356CD2A6456AD9023B644443EAEB
:100F60000843A3FB0295A4EB0E04AC42C846AE4670
:100F700056D353D056B1B0EB080264EB0E0404FA1A
:100F800007F7CA40CC401743C6E900741846002151
:100F9000BDE8F087C3F1200102FA03FC20FA01F258
:100FA00025FA01F19D402A434FEA1C471FFA8CFEA7
:100FB000B1FBF7F007FB1015110C41EA054100FBEE
:100FC0000EF58D4204FA03F408D91CEB010100F17F
:100FD000FF382FD28D422DD902386144491B92B27D
:100FE000B1FBF7F507FB151142EA014205FB0EF1D3
:100FF000914208D91CEB020205F1FF3816D291424A
:1010000014D9023D6244521A45EA004138E731469C
:10101000304608E73946E6E61046FBE64845A9D2E1
:10102000B9EB020865EB0C0E013BA3E74546EAE786
:101030002B4694E74046D1E7D0467BE7023D624429
:1010400032E708460AE76444023842E7704700BFC7
:10105000DFF834D0002103E00C4B5B5843500431DF
:101060000B480C4B42189A42F6D30B4A02E000237D
:1010700042F8043B094B9A42F9D306F059FF43F07A
:10108000D9FF01F0DFF970470000052068180590CE
:1010900000000020B8030020B803002038D401204D
:1010A000FEE7000008B5034903480DF069F8034B5B
:1010B000187008BD40240020249404907D24002052
:1010C0000020704708B513460A460146034809F058
:1010D00005FC003818BF012008BD00BFD0A50020C6
:1010E00008B513460A460146034809F087FC003854
:1010F00018BF012008BD00BFD0A5002008B50348D7
:1011000009F011FF043818BF012008BDD0A5002048
:101110000146014809F0F5BED0A50020704708B58A
:10112000FFF7FCFF08BD08B500F010F908BD08B5D1
:1011300000F01EF908BD012307B58DF8073000F057
:1011400017F808B98DF807009DF8070003B05DF89F
:1011500004FB000008B5FFF7EEFF012804D10348A7
:10116000BDE8084009F0B2BE022008BDD0A50020AD
:101170004FF40051034808B507F0DAFCB0FA80F0EC
:10118000400908BD00080240134B30B51C7889B0F7
:10119000154614F001041BD1032903D8DFE801F040
:1011A0001A060C120424204609B030BD6846FFF729
:1011B000AFFF069B2B60F6E76846FFF7A9FF079B8A
:1011C0002B80F0E76846FFF7A3FF079B5B0AF1E778
:1011D0000324E8E70C46E6E70400002010B50123ED
:1011E000054C2370FFF78AFF18B9237803F0FE033C
:1011F0002370207810BD00BF0400002038B50DF02A
:101200002DF847F22F5504460DF028F8031BAB428A
:1012100002D94FF0FF3003E0FFF770FF0028F3D151
:1012200038BD000030B585B00C4601920093FFF741
:10123000E5FF0028DDE9002102DA012005B030BD1C
:101240002046FFF74DFF02460028F6D10E4847F230
:1012500030530DF10E0100680DF0F2F90028ECD1C9
:10126000BDF80E30022BE8D10CF0F8FF47F22F55F5
:1012700004460CF0F3FF031BAB42DED8FFF73EFF42
:101280000028F6D1DAE700BF8024002030B585B011
:101290000C4601920093FFF7B1FF0028DDE9002121
:1012A00002DA012005B030BD2046FFF70BFF0246F1
:1012B0000028F6D10E4847F230530DF10E010068B8
:1012C0000DF0BEF90028ECD1BDF80E30012BE8D1AD
:1012D0000CF0C4FF47F22F5504460CF0BFFF031B70
:1012E000AB42DED8FFF70AFF0028F6D1DAE700BFED
:1012F0008024002038B5134C012525700CF07EFFAA
:1013000002281DD1FFF726FF50B92570FFF7F6FE22
:1013100018B9237803F0FE0323702378DBB223701F
:101320002378012B0CD0084D2A684AB902210A20E3
:101330000DF0FEF8286018B9237843F001032370FC
:10134000207838BD0400002080240020022307B547
:10135000ADF80630002305480DF106011A46006875
:101360000DF02CF903B05DF804FB00BF80240020D1
:10137000012307B5ADF80630002305480DF106013D
:101380001A4600680DF01AF903B05DF804FB00BFBF
:1013900080240020704708B500F058FDBDE80840E3
:1013A00000F0E4BC00F054BD4068704741607047F5
:1013B0004FF0E022D2F8FC3D43F08073C2F8FC3DD0
:1013C000054B064AD3F8B01F0A43C3F8B02F1A687A
:1013D00042F001021A607047001000E055CEACC523
:1013E000511A01EB5301B1FBF3F07047014B586800
:1013F000704700BF001000E0704710B504460C2194
:1014000025F0D6FB204610BD036810B51B690446C5
:1014100031B19847A26863689B1A1844606010BD98
:101420009847A060FBE7704730B58DB00D46144675
:1014300000212C2201A841F021FE01A806F0BAFCEF
:101440009DF8040030B1BDF8063001202B60BDF8D6
:10145000103023600DB030BD10B50446042125F0D6
:10146000A7FB204610BD000008B54FF488714FF46B
:10147000F07006F049FC28B1034B2021034A0448D0
:101480003FF00CFD08BD00BF60940490819404906F
:10149000AB940490032823D8DFE800F0020B131A62
:1014A000104B102110481A68B2FA82F2520907F064
:1014B00045BB0C4B40215A68B2FA82F252090B48E4
:1014C000F5E7084B80219A68B2FA82F25209F6E7F2
:1014D000044B40210648DA68B2FA82F25209E6E784
:1014E000704700BF8424002000040240000802402E
:1014F00000180240032823D8DFE800F0020B131A7B
:10150000104B102110481A68003A18BF012207F04A
:1015100015BB0C4B40215A68003A18BF01220B48FA
:10152000F5E7084B80219A68003A18BF0122F6E7D8
:10153000044B40210648DA68003A18BF0122E6E76A
:10154000704700BF842400200004024000080240CD
:101550000018024003280FD8DFE800F00206090B4C
:101560001021064807F0EFBA40210548FAE780212C
:10157000FBE740210348F5E7704700BF0004024045
:10158000000802400018024008B5032813D8DFE81D
:1015900000F0020A0D0F1021084807F0C9FA431E97
:1015A0005842584108BD40210548F6E78021FBE735
:1015B00040210448F1E70020F1E700BF00040240A9
:1015C000000802400018024070B5084D00240126B2
:1015D000E0B2FFF7D9FF18B12B68012B18BF2E60BE
:1015E00001340435052CF3D170BD00BF84240020E4
:1015F000012380F8741080F8753070470020704720
:1016000041640039024B18BF01211970704700BFB7
:10161000F3B9012000207047836B0BB108461847CF
:1016200070474FF6FF707047406803689B69184722
:101630007047000038B50446FFF7C6FF204600F0AB
:10164000FDFC2368094A4FF04041D3F888502046FA
:10165000074BA8470023074D84F84A302846FFF778
:10166000A7FE0123256184F86C3038BD00FC03C05F
:1016700000F807C09424002008B503680446D3F896
:1016800080309847236820469B6F984700F032F9D6
:10169000236820461B6F98474FF48051064807F097
:1016A00052FA0821054807F04EFA00F023F92368A2
:1016B00020461B6F9847F8E70020024000280240B0
:1016C00010B5044612F082F923682046D3F8AC30F6
:1016D000BDE81040184700F07BBC00F07FBC000064
:1016E00070B500F0D1FC10490023C1F88430BFF37D
:1016F0004F8FD1F8803043F6E074C3F3C900C3F3D1
:101700004E335B0103EA0406024646EA8275013A5B
:10171000C1F87452F9D2203B13F1200FF2D1BFF37C
:101720004F8FBFF36F8F70BD00ED00E000F02CBC59
:1017300000F0B6BC00F0BEBC00F030BC11F0ABBB9A
:1017400010B504467C2125F033FA204610BD90F8F0
:1017500077301BB1406803681B681847184670470C
:1017600090F834100D4B10B590F874401A788C42F4
:1017700009D03AB90A490B4A088814881080012216
:101780000C801A7010BD002AFCD0064A0449148847
:1017900008880C8010800022F3E700BFECB901201C
:1017A000EAB90120E8B9012070B50D46194635B9EE
:1017B000094B40F2D221094A09483FF06FFBC0E9CA
:1017C0000F52003A074B18BF01221A700368BDE898
:1017D0007040D3F88C3018471095049048950490C9
:1017E00096950490F2B9012008B5094B1B888B42ED
:1017F00003D8084B1B88934205D9074B9E21074A03
:1018000007483FF04BFB074B1980074B1A8008BD78
:10181000E8B90120EAB90120DB9504903E960490D6
:1018200096950490EEB90120F0B90120014608B563
:10183000034B186801B1012112F0E2F8012008BD44
:10184000F4B90120034B00225A609A60024A1A60E0
:10185000704700BF9424002040940490012100228E
:1018600008B508460CF07CFD0A4B186028B90A4BF5
:1018700028210A4A0A483FF011FB002204210120D6
:101880000CF056FE074B186018B9074B2C21034A81
:10189000F0E708BDA42400205C970490A59704906D
:1018A000D4970490A02400201F980490024B4FF07E
:1018B000FF3118680CF0AABDA4240020014B186861
:1018C0000CF0DEBDA4240020024B002118680CF0AF
:1018D0009DBD00BFA4240020FFF7F0BF00230348F4
:1018E00003491A4600680CF069BE00BFA02400201E
:1018F0000800002013B50023074C01A91A462068F0
:101900000CF09EFE4FF0FF33002201A920680CF07E
:1019100097FE02B010BD00BFA024002003685B6CDE
:1019200018470120704703689B6A18470D4B82B027
:101930001A6B42F400021A631A6B02F4000201925D
:10194000019A1A6942F400021A611A6922F400022B
:101950001A61054B054A1A614FF08062044B9A6088
:1019600002B0704700380240C0A20020B5190090B4
:1019700000E100E040F2EF3070470000054B4FF00F
:1019800080620360044BC3F88820BFF34F8FBFF31E
:101990006F8F7047BC99049000E100E010B50446D9
:1019A0004FF45A61FFF7EAFF204625F001F920467F
:1019B00010BD0000024B1B68586803685B6918473C
:1019C000F4B9012070B504460A4B0C3000262546B8
:1019D000602260602672667245F8203B294612F04C
:1019E0004BF904F55A63EE602435AB42FBD1204637
:1019F00070BD00BFBC99049008B50B290BD8DFE877
:101A000001F01206100A0A0A0A080808080801204C
:101A100008BD0520FCE7054B6621054A05483FF057
:101A20003DFA0020F4E70220F2E700BF619804903D
:101A30007C980490C698049008B50A2909D8DFE874
:101A400001F010060E080808080606060600012028
:101A500008BD054B8721054A05483FF01FFA0020C5
:101A6000F6E70220F4E700BF619804900F99049014
:101A7000C69804902DE9F84391F81D800C4607465E
:101A80004146FFF7B9FF94F81E900546384649468F
:101A9000FFF7B2FF494606463846FFF7CDFFA18A59
:101AA000628B434B521A1A649A61228B521A1A6142
:101AB000E28A586342EA014220695A646268D86344
:101AC000DA602768802F28D0227F0FD8202F65D09A
:101AD000402F63D0042F1AD045EA0265344BC84525
:101AE00045F40035DD615FD0324A44E0B7F5807FD0
:101AF00004D0B7F5007FEFD12F4900E02F4941EA2C
:101B00000262DA61E2681A625E62586132E045EAB6
:101B1000026242F40032DA61F6E7A7683A1DDA623F
:101B2000217F3A7845EA016545F40035DD615E6262
:101B3000586142B1012A21D0214B40F21111214AB2
:101B400021483FF0ABF9DA69798822F47F42013904
:101B500022F0100242EA01220121DA61144BDA6913
:101B600042F02002DA61DA699206FCD410229A600F
:101B70000029B9D0154A1A60BDE8F883DA69FF393F
:101B8000788822F47F4218BF0121013822F0100228
:101B900042EA002242F01002DA61DFE745EA02621F
:101BA000034B42F40032B6E740F20122E3E700BF04
:101BB00000B0024001020100090002000A00020018
:101BC0005A99049074990490C698049001020200F6
:101BD00038B50C46897FFFF72FFF174BA58AE28A9D
:101BE000586342EA054221695A64628BD963521BE9
:101BF0001A642568082D0ED19A611A6158620F4A3D
:101C0000207F42EA0062DA61E2681A620C4A596196
:101C1000D9601A6038BD0022D8611A61E1680A0AE9
:101C20004809C1F3C40102F4784200F4FC600243A5
:101C30000A439A63034AECE700B00240090001003E
:101C4000010202000102030001207047402070479A
:101C500000EB81100830704700EB811008307047AE
:101C6000012070474FF4146070474FF4146303FB76
:101C70000100083070474FF4146303FB0100083083
:101C80007047012070471020704700EB01100830AA
:101C9000704700EB011008307047084602F0E2BBC5
:101CA000034B10B5044603600EF0F3FC204610BD54
:101CB000749A049010B50446FFF7F2FF48212046BD
:101CC00024F076FF204610BD034B10B50446036098
:101CD0000EF0DFFC204610BD409A049010B504467B
:101CE000FFF7F2FF40F64811204624F061FF20463E
:101CF00010BD0000034B10B5044603600EF0C9FC94
:101D0000204610BD0C9A049010B50446FFF7F2FF70
:101D10001821204624F04CFF204610BD084B10B57A
:101D20000446036000F67410FFF7BAFF04F12C00BC
:101D3000FFF7CAFF04F11400FFF7DCFF204610BDD7
:101D4000A89A049008B50248FFF7E8FF08BD00BF55
:101D5000AC24002010B50446FFF7E0FF40F6283120
:101D6000204624F025FF204610BD00002DE9F34158
:101D700001F086FB0024054601F086FB2346014660
:101D800022462846009419F0FDF8254B254A2046A6
:101D9000254D1A6004F064F8244819F05BF82B68AC
:101DA000BFF35B8FDB0735D4284624F003FF88B3ED
:101DB0001F4C204B04F6CC1604F1140004F12C083F
:101DC00004F6741723606060C4F80880E760266139
:101DD0000EF060FC184B404663610EF05BFC174B45
:101DE0003846E3620EF056FC154B04F6BC10C4F8FE
:101DF000743904F0F1FA224604F6BC11304604F0BE
:101E00003FFA304602F02EFB0E483FF065F82846B8
:101E100024F0DCFE0C4802B0BDE8F041FFF70ABC3C
:101E200050BA0120F43D0020A82400200C0000201E
:101E3000AC240020A89A04900C9A0490409A049034
:101E4000749A0490451D0090783D00207047000072
:101E50000148FFF711BC00BF783D002070B5234E4C
:101E6000234B244C3046244D2360FFF7ABFD28461E
:101E70001CF094F9214B00224FF4807120481A86FF
:101E80001A6683F86C201A67DC60C3E912121D49D8
:101E9000C3E919124FF080715967012183F8781056
:101EA00019490B604FF4F0710180184801804FF41C
:101EB00088711748C3E90422C3E90622C3E908224E
:101EC000C3E90A22C3E90E22C3E91022C3E914229E
:101ED000C3E91622C3E9016501800E4883F8342066
:101EE00001800D490A700D4A1A6070BDD82F00207C
:101EF00000950490D42F0020F83D0020783D00206C
:101F0000E8B9012001000001F4B90120EEB9012077
:101F1000EAB90120F0B90120ECB901208C960490B7
:101F20000148FFF72BBD00BFD82F002000207047CD
:101F300081807047C180704701817047418170473F
:101F40007047704770477047704710B4C488036883
:101F5000121B84885B6D091B12B25DF8044B09B239
:101F600018474FF6FF7383814FF0FF330362136806
:101F7000C3611060704790F825201AB190F82420B2
:101F800002B1186070470000034B902283F85A2377
:101F900083F85823704700BF00E100E0094A0A496E
:101FA000D3680A48C3F30A03013B9BB20B80116953
:101FB000C1F30A01013901801364536B43F001033B
:101FC0005363704700680140743E0020723E002059
:101FD000014BD3F8AC00704700680140024B01226E
:101FE000C3F8AC105A62704700680140124A536946
:101FF000DB0370B51ED50023C2F88430BFF34F8FCA
:10200000D2F8803043F6E074C3F3C900C3F34E3313
:102010005B0103EA0406014646EA81750139C2F80C
:102020007452F9D2203B13F1200FF2D1BFF34F8F3E
:10203000BFF36F8F70BD00BF00ED00E070B50446C8
:1020400010F07FFF23685D6E15F014FC01462046FA
:10205000A84723682046054AD3F888504FF04041EE
:102060000023AC46BDE87040604700BF00FC03C0E1
:1020700010F04EBF90F84B3013B1024B01221A7092
:1020800010F052BF703E002010F00BBF11F067B887
:1020900090F8252012B103685B691847704700006B
:1020A000034B4FF080629A604FF080729A607047E5
:1020B00000E100E0084B4FF08062C3F88820BFF3D6
:1020C0004F8FBFF36F8F4FF08072C3F88820BFF33C
:1020D0004F8FBFF36F8F704700E100E010B5144CD5
:1020E000236823B3134B144A1B6C11888B4213D102
:1020F000124B198807F0ECF9226892F86630013328
:1021000082F86630FFF7EAFB206811F05FFC0020E0
:10211000BDE81040FFF7BEB907F0DAF920680368A0
:102120001B6A98470020BDE81040FFF7E3B910BDD7
:10213000F4B9012000680140743E0020723E002086
:10214000014900200DF00ABE2D18009080B54A4DBF
:102150004A4F3A682B68002A00F08280002B2ED16B
:10216000474B0220DA8A9B69B3FBF2F2454B1978A0
:1021700005F0DAFB444B186008BB444BC3F8E80495
:1021800001232B60424C2168F9B105F0B3FA022318
:102190002B603F4C3A4B21685B688B422DD202206A
:1021A00005F0BCFA00233B4A2360136014222B6025
:1021B0003B60344B1A600122374B1A60C9E72B6829
:1021C000012BDFD0022BC4D1E3E7344E34480BF0AF
:1021D000F9FD334644F2E842324931480BF0BAFC8B
:1021E0003368002BD3D044F2E8412E4805F048FA7A
:1021F000226833681A442260C9E7244ED6F8E834CE
:10220000012B16D1DFF8948025480BF0DBFD42F25C
:1022100074224346A6F5804121480BF09BFCD8F878
:10222000002032B10023C6F8E83423681344236049
:102230008FE7D6F8E834022B8BD1DFF86080216875
:1022400017480BF0BFFD42F274224346164914486A
:102250000BF080FCD8F80020002A3FF47AAFE1E7C9
:10226000022B04BF01232B60094B1B68002B3FF49A
:1022700070AF05F02BFA6CE77C3E0020C0A7002071
:10228000D0A7002010000020CCA70020847E0020D2
:10229000C8A700207083002098A2002044240020BA
:1022A00010140020843E0020F86000202DE9F8433F
:1022B0001E4F00221E4C1F4907F116061E48DFF86C
:1022C00080800BF0EFFA1D4920701D480BF089FE4D
:1022D0002070164940460BF0F3FE2070C0B9BB7D5C
:1022E000B3B12E21304641F0D5F81649FDF790FFE5
:1022F0000028EED1DFF8549031461348D9F8005049
:1023000000EB0520013542F0BDFEC9F80050E0E7C2
:102310000B480BF0BEFE0022064910460BF0C2FA35
:10232000207064200CF002F8FBE700BF80A10020C1
:102330007C24002055B20490D4030020B49A049069
:1023400048240020B89A0490808300207C830020D9
:1023500010B51446642392B2024809F0DAFB204615
:1023600010BD00BF38A7002010B594B01022002186
:1023700002240AA840F082FE1422002103A840F0A3
:102380007DFE204B012119201A6C42F080521A6404
:102390001B6C03F080530193019B1B4B1A6842F4A2
:1023A00040421A601B68129403F440430293029B5C
:1023B0004FF48033CDE908134FF48003CDE90E4389
:1023C0004FF4D873CDE91003092308A8139307F03D
:1023D000D5F800B1FEE707F099F800B1FEE70F234A
:1023E0004FF4A0520590072103A8CDE903344FF420
:1023F0008053CDE9062307F0A9FA00B1FEE714B037
:1024000010BD00BF003802400070004000B5A3B00E
:102410008022002102A840F031FE094B05200193E3
:10242000642306930223CDE90730012301A80B930F
:1024300007F068FB00B1FEE723B05DF804FB00BFC6
:10244000080030002DE980489DB0BFF34F8FBFF3E7
:102450006F8FC54A0021C2F85012BFF34F8FBFF3F0
:102460006F8F536943F400335361BFF34F8FBFF352
:102470006F8FC2F88410BFF34F8FD2F8803043F6CD
:10248000E074C3F3C900C3F34E335B0103EA0406EF
:10249000014646EA81750139C2F86052F9D2203B03
:1024A00013F1200FF2D1BFF34F8F536943F4803300
:1024B0005361BFF34F8FBFF36F8F4FF0100B05F0D9
:1024C00067FD00210FA85A464FF0005A40F0D6FD94
:1024D000012605F0F7FDA54A0FA800254FF01C08BE
:1024E000ADF83C60032740F201144FF00409CDE938
:1024F00010A29F4A4FF0020A129205F001FE4FF01F
:1025000040420FA88DF8448010928DF83D608DF800
:102510004750ADF84A5005F0F3FD16220FA8ADF86C
:102520004A408DF844208DF83DA08DF8477005F0A5
:10253000E7FD4FF010420FA88DF844804FF00508DA
:1025400010928DF83D708DF84750ADF84A5005F067
:10255000D7FD17220FA8ADF84A408DF844208DF81A
:102560003D908DF8477005F0CBFD13220FA8814CEC
:102570008DF844208DF83D808DF8485005F0C0FD61
:10258000484605F0ADFDFFF7EFFEFFF73FFF1422D1
:1025900029460FA840F072FD226B5946764842EA60
:1025A0000B022263226B02EA0B020492049A226B52
:1025B00042EA0A022263226B02EA0A020592059AA3
:1025C000226B42F008022263226B02F0080206929C
:1025D000069A226B42EA09022263226B02EA09028E
:1025E0000792079A226B42F040022263226B02F0AC
:1025F00040020892089A226B42F400722263226B16
:1026000002F400720992099A226B42F480722263EA
:10261000226B02F480720A920A9A226B42F4806260
:102620002263226B02F480620B920B9A226B42F0BF
:1026300020022263226B02F020020C920C9A226B81
:1026400032432263226B32400D920D9A226B42F08C
:1026500080022263226B02F080020E920E9A2A46BA
:1026600006F06CFA2A460821444806F067FA2A4622
:102670004FF48051424806F061FA2A46C021414891
:1026800006F05CFA2A4640213F4806F057FA0FA9A7
:102690003948CDE90FB6CDE9115706F0C7F84FF428
:1026A00000520FA937481196CDE90F2506F0BEF864
:1026B00008220FA93148CDE90F26CDE9115506F0C2
:1026C000B5F84FF480520FA92D48CDE90F26CDE97A
:1026D000115506F0ABF8C0220FA92A48CDE90F2604
:1026E000CDE9115706F0A2F840230FA92648CDE9FD
:1026F0000F36CDE9115706F099F8226B41463B2081
:1027000042F480022263226B204C02F48002039286
:10271000039A2A4605F084FC3B2005F0B3FC2A46C8
:1027200041463C2005F07CFC3C2005F0ABFC2A46F1
:102730004146452005F074FC452005F0A3FC144AF1
:102740002046C4E90A55C4E90C55C4E90025C4E98A
:10275000025505F06BFF00B1FEE73146204606F05A
:102760001DF8B8B1FEE700BF00ED00E01200000365
:10277000010001010038024000040240002802402C
:10278000002002400008024000180240C0A20020C1
:1027900000B00240934A40239349C2F810B0CDF8EC
:1027A00054B0C2E900108021C2E90209C2E9053132
:1027B000C2E90700C2E909000FA91046CDE90FBB25
:1027C000CDE911BBCDE913BB08F014FD00B1FEE764
:1027D00005F080FA05F032FA054600B1FEE7342232
:1027E00001460FA8814C40F049FC814B28274FF04F
:1027F000350C40F2152E40F235292046A58625617C
:1028000084F83650C4E900350923C4E905730B2365
:10281000C4E907C340F21B13C4E909E340F21D13E6
:10282000C4E90255C4E90B9306F05AFD024600B113
:10283000FEE74FF4F0710F904FF48873ADF86C2001
:102840008DF86E201A93CDE91010FF20CDE9140207
:102850004FF48060CDE91821CDE916080FA9204674
:10286000CDE9123A06F007FE00B1FEE7614B4FF4E6
:10287000E132614D18615862C3E900520C22C3E98C
:102880000200C3E90520C3E90700184609F0B5F9BD
:1028900000B1FEE7594B5A4A9861C3E90020C3E9E9
:1028A0000400C3E90200574B02F5823298801A6097
:1028B0001E62C3E90500184605F04EFC00B1FEE7B4
:1028C000FEF7F0FB5048514B012540264BF6803275
:1028D000082403600023C26103634360C363836011
:1028E0008361C360C3620366C0E90D63C0E904335A
:1028F000C0E90933C0E91045C0E91233C0E9143317
:10290000C0E9163507F0CEFC00B1FEE7404B414A66
:1029100018631A600322D86318619861D860D8627E
:1029200018665A609D60C3E90D60C3E90900C3E9F8
:102930001200C3E91400C3E916051846C3E910459F
:1029400007F0B0FC00B1FEE7334B4FF04022C3E983
:102950000200C3E90020C3E90400C3E90600C3E99B
:1029600008009862184608F0AAFC00B1FEE72B4B5D
:102970004FF482722A499860586198625C63C3E997
:1029800000124FF44072C3E903204FF40072C3E910
:1029900006200722C3E90800C3E90B20184608F007
:1029A000C5FC00B1FEE70190FEF7F5FCFEF7F2FC76
:1029B0000BF00AFC1B4A01991B480BF063FC1B4BF4
:1029C0001B4A186001991B480BF05CFC1A4B1B4A10
:1029D000186001991A480BF055FC1A4B18600BF05F
:1029E0001DFCFEE754A60020400100A020A400200A
:1029F0000068014038A7002000100140D0A5002049
:102A0000002C01409CA20020C8A40020045C0140CE
:102A10004CA50020245C014088A60020D4A60020FC
:102A200000380040289B0490AD2200907483002061
:102A3000E09A0490A5130090783E0020049B049037
:102A40004D210090803E0020064B1B68022B08D1D0
:102A5000054842F27421C0F8E834A0F5804004F043
:102A60002DBE70477C3E0020847E0020064B1B68F4
:102A7000022B08D1054B012242F274210448C3F80D
:102A8000E82404F01BBE70477C3E0020847E0020BA
:102A9000F86000200268034B9A4201D105F08ABA1F
:102AA000704700BF00100040FEE700000D4B82B0F1
:102AB0000F216FF001001A6C42F080521A641A6CF8
:102AC00002F080520092009A5A6C42F480425A649A
:102AD00000225B6C03F480430193019B02B005F07C
:102AE0009FBA00BF00380240026882B0084B9A4289
:102AF0000BD1D3F8302803F5006342F480521A63F7
:102B00001B6B03F480530193019B02B0704700BF1D
:102B1000003002400E4B07B502689A4215D1A3F56A
:102B2000F04305215A201A6B42F400021A63002276
:102B30001B6B03F400030193019B05F071FA5A200B
:102B400003B05DF804EB05F09DBA03B05DF804FB3B
:102B500000B0024070B58CB004461422002107A8D2
:102B600040F08CFA22683E4B9A4277D103F55043ED
:102B700002240E2607A95A6C00253A4842F08062CA
:102B80005A645A6C02F080620192019A1A6B42F008
:102B900010021A631A6B02F010020292029A1A6B68
:102BA00042F400721A631A6B02F400720392039AE1
:102BB0001A6B42F480621A631A6B02F48062049208
:102BC000049A1A6B42F040021A631A6B02F0400238
:102BD0000592059A1A6B42F480721A631B6B03F418
:102BE00080730693069B1023CDE907340A940B9655
:102BF00005F01CFE4EF6FF7307A91B480B96CDE9A6
:102C00000734CDE9095405F011FEF72307A9174849
:102C10000B96CDE90734CDE9095405F007FE4FF4D2
:102C2000805307A91248CDE907340923CDE9095497
:102C30000B9305F0FBFD4FF4464307A90D480B9697
:102C4000CDE90734CDE9095405F0F0FD58202A46B6
:102C5000052105F0E5F9582005F014FA0CB070BD17
:102C60000068014000100240002402400028024099
:102C700000180240002002402DE9F043ABB00546A9
:102C80001422002104A840F0F9F98422002109A8A7
:102C900040F0F4F92A684E4B9A4240F095804FF488
:102CA000200309A8099306F02DFF08B1FFF7FCFEE9
:102CB000484B00264FF0020903275A6C0C2404A944
:102CC000454842F400624FF004085A645A6C02F41A
:102CD00000620192019A1A6B42F004021A631A6BA5
:102CE00002F004020292029A1A6B42F008021A637E
:102CF0001B6B089403F008030393039B4FF4885362
:102D0000CDE90667CDE9043905F090FD04A9334803
:102D10000894334CCDE90489CDE9066705F086FDBA
:102D20004FF00063DFF8C4E04FF480694FF4804255
:102D30004FF400012046A762C4E900E34FF480533A
:102D4000C4E904932023C4E906234FF40013C4E923
:102D50000266C4E90868C4E90B1305F071FA08B10A
:102D6000FFF7A2FE1F4A4FF000632C644021A563C9
:102D70004FF480601C4C04274FF480464FF4000C45
:102D8000C4E9002300234FF48052C4E902132362F4
:102D90000323C4E90402C4E9097320224FF4001399
:102DA0002046C4E90662C4E90BC305F049FA08B13C
:102DB000FFF77AFE312000220521EC63A56305F0C0
:102DC0002FF9312005F05EF92BB0BDE8F08300BF8C
:102DD000002C01400038024000080240000C024074
:102DE00060A30020A0640240C0A3002058640240F9
:102DF00010B5A8B004461422002102A840F03EF904
:102E00008422002107A840F039F92368B3F1402F4C
:102E100031D1C0234FF0807107A8CDE907130223F9
:102E20000B93CDE909330123109306F06BFE08B133
:102E3000FFF73AFE114B12481A6C42F480321A64C2
:102E40001A6C02F480320092009A1A6B42F0080267
:102E50001A6380221B6B03F008030193019B02237A
:102E6000CDE902230023CDE9043308230DEB030150
:102E7000069305F0DBFC28B010BD00BF003802400F
:102E8000000C024070B588B004461422002103A84B
:102E900040F0F4F822681C4B9A4233D103F500331A
:102EA0000226032505241A6C03A9184842F480421F
:102EB0001A641A6C02F480420092009A1A6B42F073
:102EC00008021A631A6B02F008020192019A1A6B47
:102ED00042F480721A631B6B03F480730293029BAB
:102EE0000823CDE90654CDE9033605F09FFC0C23F9
:102EF00003A907480794CDE903360023CDE905353A
:102F000005F094FC08B070BD00380040000C024091
:102F100000200240F0B5ABB004461422002104A802
:102F200040F0ACF88422002109A840F0A7F82268FC
:102F3000204B9A423CD1402309A8099306F0E2FDB8
:102F400008B1FFF7B1FD1C4B0227002603255A6C80
:102F5000072404A9194842F010025A645A6C02F07E
:102F600010020192019A1A6B42F002021A631A6B64
:102F700002F002020292029A1A6B42F001021A63F4
:102F80001B6B089403F001030393039B8023CDE99B
:102F90000665CDE9043705F049FC4FF4007304A938
:102FA00007480894CDE90437CDE9066505F03EFCF5
:102FB0002BB0F0BD00100140003802400004024078
:102FC00000000240F0B5002387B003932A4B1E682F
:102FD000002E4ED10122022703250C241A6001A9DC
:102FE000264B27489A6B42F001029A639B6B03F0D1
:102FF00001030093009B4FF68373CDE90454CDE9A0
:10300000013705F013FC48F2331301A91D4805945C
:10301000CDE90137CDE9036505F008FC4CF20373F7
:1030200001A919480594CDE90137CDE9036505F0FB
:10303000FDFB4FF63F0301A914480594CDE9013784
:10304000CDE9036505F0F2FB242301A9104805949E
:10305000CDE90137CDE9036505F0E8FB04230D4810
:103060000DEB03010594CDE90137CDE9036505F0CA
:10307000DDFB07B0F0BD00BF00A800200038024013
:103080000010024000180240000C024000140240F0
:10309000001C02400008024008B5144B1A6822BB0D
:1030A00001224FF6837112481A60124A936B23F083
:1030B0000103936305F09CFC48F233110E4805F0C0
:1030C00097FC4CF203710D4805F092FC4FF63F015E
:1030D0000B4805F08DFC24210A4805F089FC0421E9
:1030E0000948BDE8084005F083BC08BDFCA70020E6
:1030F000001002400038024000180240000C02405C
:1031000000140240001C02400008024002683A4BD2
:103110009A4270B5054688B043D1384C226882B9CE
:10312000374B5B20596C41F40001596405215B6CFD
:1031300003F400030193019B04F072FF5B2004F091
:10314000A1FF2368F02100262E48013323600223CB
:103150002D4CCDE903130A2303A90793CDE9056696
:1031600005F064FB29484FF0C0634FF4806C4FF4C6
:10317000005EC4E9000340232046C4E902364FF450
:103180000063C4E904C34FF48073C4E90866C4E96A
:1031900006E305F055F808B1FFF786FC2C67A56338
:1031A000EC662A681A4B9A4224D1144C226882B9E0
:1031B000134B5B20596C41F40001596405215B6C91
:1031C00003F400030293029B04F02AFF5B2004F047
:1031D00059FF23684FF4806203A90E48013323602E
:1031E0000223CDE903230023CDE905330A23079306
:1031F00005F01CFB08B070BD045C014004A8002071
:10320000003802400020024000A300207064024009
:10321000245C01400018024002681A4B9A4210B523
:10322000044616D1184A1368013B13603BB9174A8C
:103230005B20536C23F40003536404F031FFF0214E
:10324000134805F0D5FB206F05F078F8E06E05F027
:1032500075F822680F4B9A4213D10B4A1368013B51
:1032600013603BB9094A5B20536C23F40003536499
:1032700004F016FF4FF480610748BDE8104005F0E8
:10328000B7BB10BD045C014004A800200038024018
:1032900000200240245C014000180240214B1A6CBF
:1032A00042F0100270B51A6488B01B6C054601A983
:1032B00003A803F010030293029B06F005FC069B93
:1032C0004BBB06F0E1FB184E184B336040F2E7337E
:1032D000F360174BB0FBF3F3013B30467360002300
:1032E0003361B360B36108F0E9F9044680B9304650
:1032F00008F08CF8044658B9362004F0C3FE0F2DB0
:103300000DD822462946362004F08AFE094B1D605E
:10331000204608B070BD06F0B7FB4000D3E701249B
:10332000F6E700BF0038024008A800200010004067
:1033300040420F00800000207047FEE7FEE7FEE7F6
:10334000FEE77047014807F053BE00BFD0A500203C
:10335000014808F09DB800BF08A80020014805F00A
:10336000A5B800BF60A30020014805F09FB800BFCA
:1033700000A30020014805F099B800BFC0A30020B9
:10338000014806F01BB800BF20A40020014805F04A
:103390007BB900BFC0A20020044808B507F0F0F9CF
:1033A0000348BDE8084007F0EBB900BFC8A40020FF
:1033B0004CA500200120704708B541F035FE1623CA
:1033C00003604FF0FF3008BD08B541F02DFE162315
:1033D0000360FEE770B50D4614460E46731B9C4213
:1033E00001DC204670BDAFF3008006F8010BF5E765
:1033F0004FF0FF3070474FF4005300204B60704790
:1034000001207047002070470A4A08B513680BB9BD
:10341000094B1360136869461844884206D941F085
:1034200003FE0C2303604FF0FF3008BD1060184608
:10343000FBE700BF58A8002038D40120704710B522
:103440000446042123F0B4FB204610BD08B503292F
:1034500013D8DFE801F002060A0E02F04DFD006805
:1034600008BD02F049FD4068FAE702F045FD8068BA
:10347000F6E702F041FDC068F2E70020F0E7000047
:1034800000487047609B04902620704713B50024C5
:1034900051B1036801AA01948DF803409C680DF1B5
:1034A0000303A04702B010BD0846FBE7C089704780
:1034B000008A7047C088704780887047807A00F023
:1034C0007F007047807AC009704770477047704727
:1034D00070477047704730B585B003680446018176
:1034E0006D460146D3F884303C342846984795E829
:1034F000070084E8070005B030BD30B585B003682B
:10350000044641816D460146D3F884303C34284658
:10351000984795E8070084E8070005B030BD002211
:10352000028042808280C280704780F836107047E7
:10353000036870B504461B6B154698472368204600
:1035400029465B6EBDE87040184700207047806CCC
:1035500070477047704770477047704770477047B3
:10356000704770477047704730B444680346C2687C
:103570009B68551004EB6200D20748BF625930BC0B
:1035800048BFD358184743682BB183682BB9C0682C
:1035900000F001007047184670470120704710B5D1
:1035A0000446082123F004FB204610BD10B5044654
:1035B0004C2123F0FDFA204610BD10B50446102121
:1035C00023F0F6FA204610BD10B504464FF4996179
:1035D00023F0EEFA204610BD00F19C03994270B52D
:1035E00004460D4603D114F045F900F04BFF04F5F5
:1035F00030739D4203D123682046DB6A984704F567
:1036000023739D4203D1236820461B6B984704F522
:103610004A739D4203D1236820465B6B984704F5AB
:103620003D739D4203D1236820469B6B984704F568
:1036300064739D4203D123682046DB6B984704F5F1
:1036400057739D4203D1236820461B6C984704F5AD
:1036500071739D4205D1236820465B6CBDE87040C4
:10366000184770BD08B5FEF713FD08BD036870B5B7
:103670005E6B0446114B8DB21B682BB9104B6C214D
:10368000104A11483DF00AFC1049828D0988914288
:1036900003D80F4B6D210B4AF3E713F812200D4BA3
:1036A0001B6853F8220003681B6B9847281A33469F
:1036B00001B22046BDE87040184700BF44BA01205F
:1036C000589E04909A9E0490D59E049048BA01207A
:1036D0001C9F04904CBA012000224FF0FF31826001
:1036E000C0E900217047036870B504461B6B15469E
:1036F00098472368204629465B6BBDE87040184711
:1037000070B504461D46BDF91060FFF7ECFF236855
:10371000294620469B6B9847236831462046DB6B41
:10372000BDE87040184700000022C0E90122C0E94E
:103730000322C0E90522C0E907224FF48072828487
:10374000014A0260704700BFA09F049010B5044674
:10375000262200213FF092FC2046FFF7E5FF0023E0
:103760002046A36284F82C30012384F82430044BD3
:1037700023604FF6FF73E385238684F8323010BD53
:1037800028C5049010B50446262200213FF076FC9F
:103790002046FFF7C9FF0A4B4FF47F022046236003
:1037A000084BA3624FF6FF73A3850023C4E90C32D4
:1037B0004FF0FF322387E363C4E9102310BD00BF3D
:1037C000ACC3049008A004901A4B73B51B8806463E
:1037D000018F8B422BD9184B1B682BB9174B6C21CF
:1037E000174A18483DF05AFB13F81120164B1B6876
:1037F00053F82250154B186802F06EFB2B680190AD
:1038000028469B6B98472B68044601999B6C284679
:10381000984714FB00F42B682846A4B201995B6A10
:10382000984723181BB2A6F8463002B070BD00239B
:10383000F9E700BF48BA012044BA0120589E04901D
:103840009A9E0490D59E04904CBA012050BA012053
:103850002DE9F04F04464FF0000BFF25A04604F180
:103860006C0604F19C0A04F1D00904F58C772DED67
:103870000C8B8DB015F020FC9D4B26225946C4F8C8
:103880003CB048F8403B40463FF0F8FB4046FFF76D
:103890004BFF984B2622594623644FF6FF73304660
:1038A00084F86650C4F868B0ADF828303FF0E6FB05
:1038B0003046FFF739FF904B0AA93046E366BDF862
:1038C000283084F89450A4F8923012F0A4F98B4B6D
:1038D0005046A4F896B0E366A4F898B0FFF736FF18
:1038E0004846FFF74FFF3846FFF74CFF844D04F57D
:1038F000B273C4F860B1C4F81851184609EE903A92
:10390000FFF740FF04F5D673184608EE903AFFF72C
:1039100039FF04F5FC73C4F8AC511846C4F8F4B18F
:103920000AEE103AFFF72EFF04F51073184609EE61
:10393000103AFFF727FF04F52373C4F84052251D02
:103940001846C4F888B20BEE103AFFF7FFFE04F5F4
:10395000307318460BEE903AFFF7F8FE04F53D730E
:1039600018460CEE103AFFF7F1FE04F54A731846BC
:103970000CEE903AFFF7EAFE04F5577318460DEE89
:10398000103AFFF7E3FE04F5647318460DEE903A23
:10399000FFF7DCFE04F5717318460AEE903A12F058
:1039A00071FA04F20C43184608EE103A0EF06AF968
:1039B000544B5A464046C4F8B8345946524BC4F8A2
:1039C000BC44C4F8C0344FF48873C4F8C4B4009342
:1039D0004FF4F073FFF794FE4FF07F4341462846C3
:1039E000A3664FF003080EF038FD30460AA9ADF883
:1039F000288011F081FD4FF4887330465A465946AD
:103A000000934FF4F073FFF77BFE5A463046594659
:103A100011F050FD3146284604AE0EF01EFD504612
:103A2000F222E121FFF75FFE4FF00D030AAA504694
